:1000000037EF0FF06896000C046ED8CF05F0E0CF04
:1000100006F00001E9CF0CF0EACF07F0E1CF08F0DD
:10002000E2CF09F0D9CF0AF0DACF0BF0F3CF12F01C
:10003000F4CF13F0FACF14F0F5CF15F0F6CF16F099
:10004000F7CF17F000C00EF001C00FF002C010F0A3
:1000500003C011F0A0AA30EF00F0A1BACCEF07F076
:100060000EC000F00FC001F010C002F011C003F08C
:100070000CC0E9FF07C0EAFF078E08C0E1FF09C016
:10008000E2FF0AC0D9FF0BC0DAFF12C0F3FF13C0B2
:10009000F4FF14C0FAFF15C0F5FF16C0F6FF17C035
:1000A000F7FF045006C0E0FF05C0D8FF1000F76A54
:1000B000BE0FF66E000EF7220900F5501200000088
:1000C000F76AD00FF66E000EF7220900F550120005
:1000D000000302FFFFFFFFFFFFFFFFFFFFFFFFFF28
:1000E000F76AF00FF66E000EF7220900F5501200C5
:1000F00000FF02FFFFFFFFFFFFFFFFFFFFFFFFFF0C
:10010000F76A100FF66E010EF7220900F550120083
:10011000080008004000000000000000000000008F
:1001200000000000000000000000000000000000CF
:10013000F76A400FF66E010EF7220900F550120023
:100140000800000040000000000000000000000067
:10015000000000000000000000000000000000009F
:10016000F76A700FF66E010EF7220900F5501200C3
:1001700009024300020100C032090400000102022A
:1001800001000524001001042402020524060001D8
:100190000524010001070581030800FA0904010094
:1001A000020A000000070502024000010705820262
:1001B0004000FA00F76AC40FF66E010EF72209003C
:1001C000F55012000200F76AD60FF66E010EF72204
:1001D0000900F5501200120017001B002000FFFF5D
:1001E000FFFFFFFFFFFFF76AF60FF66E010EF72223
:1001F0000900F55012001201100102000008D80495
:100200000B00000101020001F76A180FF66E020EE2
:10021000F7220900F5501200040309040803430003
:100220004300530028035500530042005F00430081
:100230006F006E00740072006F006C005F0044007D
:100240006500760069006300650073000A0D4D705B
:100250003E2564006D92699468A402D06894FCD72E
:10026000D8EF07F0080E0401016F040E036F180E9B
:10027000026F880E006F046B040E076F200E066F6E
:100280000001000C70A002D0EDDF7090689AE1EFE1
:1002900007F06A6A6892E7EF07F001012C912BBF23
:1002A0002C812B9F2B51100803E2000E016E1BD0F6
:1002B0002CA10DD0036A2B51000102DFFF0802E1DF
:1002C000000E01D0010E016E01010DD00CD0036AA9
:1002D0002B51000105DFFF0802E1000E01D0010EE5
:1002E000016E010100D00001000C036A01012A51D6
:1002F000700FE96E0F0E0320EA6EEF6A2AC12BF130
:100300000001CBDF015219E001012A51080DF35021
:100310002C6BE96E040E2C25EA6EEF6A2A51080D4B
:10032000F3502C6B2B6F040E2B27000E2C232BC1AC
:10033000E9FF040E2C25EA6EEF6A0001000C010EA5
:100340000101296F29510F0807E329C12AF1000192
:10035000CCDF0101292BF6D70001000C566A556A43
:10036000250E546E800E536E576A586A080E596EE9
:10037000A76B26965B6A5A6AA36BA491000C0101D5
:100380001F6B1F5101080AE3036A1F51510FE96EE9
:10039000000E0320EA6EEF6A1F2BF3D70001DEDFA9
:1003A000456A010E466E446A000C6A6A686A9F0ECE
:1003B0006B6E3D0E696E6E6AC2DFE1DF160E706E07
:1003C00068A602D01FDEFCD76D984CDF030E4C6E82
:1003D000EDEF07F0698468986D82F3EF07F0689C91
:1003E000F9EF07F024C14DF0000CFF0E4D6E000C2C
:1003F0000101226B50522CE02251070829E347509B
:10040000000A000105E0020A09E0010A0DE012D02D
:10041000036A4F50A5DEE8CF23F10CD0036A4F509A
:10042000F3DEE8CF23F106D0036A4F50DCDEE8CFDD
:1004300023F100D04F2A500601012251222B036ADA
:10044000200FE96E040E0320EA6E23C1EFFFD2D71E
:10045000505204E12251080801E0446A22C124F10B
:100460000001C0DF000C4F6A476A04011B51010AFA
:10047000000107E0030A0AE0010A0BE0220A1BE080
:100480002FD0120E506E030E476E2CD0430E506EBE
:1004900029D0020E476E036A04011A51480FE96E13
:1004A000000E0320EA6EEFCF4FF0036A4F500001B9
:1004B000ABDE506E17D0D89004011A35036A0001E4
:1004C00082DE0900F5CF03F04F6E4F3C01D006D01D
:1004D000036A4F5045DE506E05D002D086DF0ED045
:1004E00084DF0CD004011F5305E150501E5D02E271
:1004F0001EC450F0010E446E00017ADFAAEF03F033
:100500000101215306E1040E4C6E000118DFC5D035
:100510000101050E4C6E040E246F280E236F010E90
:10052000226F22510F08D8A0B8D022C12AF10001B1
:10053000DCDE0101256B036A22510001D1DDFF08D9
:1005400053E0040E0101256FD8902235036A0001A3
:10055000EFDD0900F5CF03F00101266F03C027F19D
:100560002251080DF3502A6B296F010E2925016EC7
:10057000000E2A21036E01C0E9FF040E0324EA6E77
:1005800026C1EFFF2251080DF3502A6B296F020E8E
:100590002925016E000E2A21036E01C0E9FF040E19
:1005A0000324EA6E24C1ECFFED5223C1EFFFD89083
:1005B0002235036A0001BCDD0900F5CF03F001011B
:1005C000232703502423880E286F27B1288127B3BF
:1005D00028832251080DF3502A6BE96E040E2A2558
:1005E000EA6E28C1EFFF0001036A010122510001F8
:1005F00067DDFF0837E0010125832251080DF35024
:100600002A6B296F040E2927000E2A23020E2925A2
:10061000016E000E2A21036E01C0E9FF040E0324BF
:10062000EA6E24C1ECFFED5223C1EFFFD8902235D2
:10063000036A000165DD0900F5CF03F001012327FE
:10064000035024232251080DF3502A6B296F040E06
:100650002927000E2A2329C1E9FF040E2A25EA6E64
:10066000400EEF6E01012551060802E10E0E256FC6
:10067000036A2251000124DD010803E001012589FC
:100680000001036A01012251700FE96E0F0E032071
:10069000EA6E25C1EFFF222B44D70001A2EF03F041
:1006A00004011951000A00010DE0010A15E0020AD7
:1006B00020E0060A2AE0030A31E00E0A31E0010ACE
:1006C00037E046D046C020F40401216B020E010140
:1006D000246F000187DE3ED004011A2D07D0010EE1
:1006E00046160101246B00017DDE02D000017DDE93
:1006F00031D004011A2D06D046820101246B00017D
:1007000071DE02D0000171DE25D0020E446E1AC4E3
:100710004EF00101246B000165DE1CD0A4D61AD076
:1007200045C020F4010E0101246F00015BDE12D0F0
:1007300004011A5101080AE31AC445F01AC421F150
:100740000001DED60101246B00014CDE000102D065
:100750004CDE00D01BEF05F045C021F1040119511A
:10076000000A000105E00A0A0CE0010A2BE03FD074
:100770000401206B216B020E0101246F000132DEA7
:1007800038D0010121531BE0010E215D036A0001F5
:1007900011DD016E04011C5DD8A002D001010FD053
:1007A000036A1C51510FE96E000E0320EA6EEFCF71
:1007B00020F4010E0101246F000114DE02D00001BB
:1007C00014DE17D0010121530FE0036A04011C510C
:1007D000510FE96E000E0320EA6E1AC4EFFF01010B
:1007E000246B0001FFDD02D00001FFDD02D0FDDD42
:1007F00000D01BEF05F00101229121BF2281219F32
:1008000022A111D02151080DF350246B236F040E47
:100810002327000E242323C1E9FF040E2425EA6EBA
:10082000880EEF6E09D02151080DF350246BE96E4C
:10083000040E2425EA6EEF6A000183EF04F0010143
:10084000229121BF2281219F22A111D02151080D87
:10085000F350246B236F040E2327000E242323C19F
:10086000E9FF040E2425EA6E840EEF6E0AD02151B2
:10087000080DF350246BE96E040E2425EA6E840EF5
:10088000EF6E00018BEF04F00101229121BF228164
:10089000219F22A111D02151080DF350256B246F07
:1008A000040E2427000E252324C1E9FF040E25256C
:1008B000EA6EEFCF23F10AD02151080DF350256BDA
:1008C000E96E040E2525EA6EEFCF23F123AF02D0A7
:1008D00023B502D0000E01D0010E016E000197EF8A
:1008E00004F01CC42BF1D9DC01522EE00401195193
:1008F000010A000105E0020A0BE0030A11E022D020
:100900001CC421F178D70101246B00016BDD1CD0E0
:100910001CC421F194D70101246B000163DD14D0C4
:100920000401206B216B1CC421F10001ADD70152E1
:1009300003E0010E0401206F020E0101246F00018B
:1009400051DD02D052DD00D01BEF05F0FE0E4D6EE2
:10095000000C04011C2D01D002D01C5351E119518F
:10096000000A00010BE0010A0DE0210A1CE0010A67
:100970001FE0030A30E0010A37E03FD0010EA96F03
:10098000E5DF3DD0040EEA6E200EE96EE26A5C0EF1
:10099000E16E080E016EE6CFEEFF012EFCD71EC4FD
:1009A00024F120DD2CD0020EA96F2686CFDF27D0C0
:1009B000040EEA6E200EE96EE26A530EE16E070E37
:1009C000016EE6CFEEFF012EFCD7070E0101246F6A
:1009D000000108DD14D01BC4A8F01AC4A7F001015F
:1009E000246B0001FFDC0BD01AC45BF01BC45AF06F
:1009F0000101246B0001F6DC02D0F7DC00D0040119
:100A000000011BEF05F0446A040118517F0B000A36
:100A1000000107E0010A07E0030A07E0230A07E0F4
:100A200008D03ED608D098D606D05BD704D091D750
:100A300002D0DBDC00D02BEF07F001012251080DC2
:100A4000F350286BE96E040E2825EA6EEFCF24F1EF
:100A50002351020806E124AD02D0236B02D0010E1F
:100A6000236F2351030813E1840E246F2251080DD4
:100A7000F350286B276F040E2727000E282327C169
:100A8000E9FF040E2825EA6E840EEF6E07D0232DB1
:100A900003D0C80E246F02D0880E246FD890223560
:100AA000036A000198EC00F00900F5CF03F00101A2
:100AB000256F03C026F12251080DF350286B276FD4
:100AC000010E2725016E000E2821036E01C0E9FFEB
:100AD000040E0324EA6E25C1EFFF26B1248126B35C
:100AE00024832251080DF350286BE96E040E28254B
:100AF000EA6E24C1EFFF0001000C036A01012F51CF
:100B0000700FE96E0F0E0320EA6EEF5212E02F51C4
:100B1000080DF350316B306F040E3027000E312377
:100B200030C1E9FF040E3125EA6EEFCF30F130AF6E
:100B300002D0000E01D0010E016E0001000C2AC18E
:100B40002FF1DBDF015264E001012A51080DF3505F
:100B5000306B2F6F040E2F27000E3023010E2F2530
:100B6000016E000E3021036E01C0E9FF040E032464
:100B7000EA6E2BC1EFFF2D51020817E12A51080D33
:100B8000F350306B2F6F040E2F27000E30232FC130
:100B9000E9FF040E3025EA6EEFCF2EF12EAD02D024
:100BA0002D6B02D0010E2D6F13D02D51040810E1D2
:100BB0002A51080DF350306BE96E040E3025EA6EB1
:100BC000EFCF2EF12EAD03D0010E2D6F01D02D6B86
:100BD0002D2D03D0C80E2E6F02D0880E2E6F2CB193
:100BE0002E812CB32E832A51080DF350306B2F6FBA
:100BF000040E2F27000E30232FC1E9FF040E3025ED
:100C0000EA6E2EC1EFFF010E016E05D000D000018B
:100C1000000E016E01010001000CA951010A05E05E
:100C2000020A14E0010A19E02CD0EA6A5C0EE96EAF
:100C3000040EE26E180EE16E080E016EE6CFEEFFB6
:100C4000012EFCD7030EA96F81DE1DD00101246B9C
:100C50000001F2EC01F0A96B16D0EA6A530EE96EBE
:100C6000040EE26E180EE16E070E016EE6CFEEFF87
:100C7000012EFCD7A96B0101246B0001F2EC01F0FD
:100C800002D0A96B00D079EF06F001012251080DC6
:100C9000F350246B236F010E2325016E000E2421D7
:100CA000036E01C0E9FF040E0324EA6E036AEFCF6E
:100CB00001F003C002F000016DEF06F0A491020EF6
:100CC0000101226F236F0001B8DE000CA481A66B26
:100CD000020E0101226F0001D8D701C0A5F0A55373
:100CE00001E1ECDF80EF06F00101215304E1000196
:100CF00094D706D001012151020803E10001E6D793
:100D000001010001000C22C16EFF0101225303E02A
:100D1000040E4C6E02D0020E4C6E000195EF06F0F0
:100D2000456A446A4EC022F1EED705EF07F022C1B2
:100D30002FF1E3DE015241E001012251080DF35091
:100D40002B6B2A6F040E2A27000E2B23020E2A2556
:100D5000016E000E2B21036E01C0E9FF040E032477
:100D6000EA6EECCF03F0ED52EFCF28F103C029F18A
:100D700029C1EAFF28C1E9FF24C1E2FF23C1E1FF45
:100D800026C102F025C101F0015202E0022A02D080
:100D9000025206E0E6CFEEFF012EFCD7022EFAD774
:100DA00022C12AF126C12CF125C12BF127C12DF139
:100DB0000001C5DE015003D000D0000E016E000C12
:100DC000020E0101226F246B640E236F266BA3C0F9
:100DD00025F1020E276F0001AADFA3C0A8F0A36BC4
:100DE000000CA35301E0ECDF0CEF07F001012153ED
:100DF0000EE1442C05D00001F8EC01F006D0010111
:100E00004450020803E100018BD7010106D02151B3
:100E1000020803E10001E5D701010001000C4B309D
:100E200001011F6F1F331F331F0E1F174B524FE15E
:100E3000040100513C0B0101206F430E0401001717
:100E400001012051340825E104010451800B01E027
:100E5000046B0001D8D56D984D3C07D00101226B81
:100E6000030E236F0001E9DD12D00101226B020E97
:100E7000236F0001E2DD4D50FE0809E001012A6BFD
:100E80002C6B4DC02BF1040E2D6F000158DE1DD0D0
:100E90000101205104081AE1216B000125DF010145
:100EA000226B020E236F0001C8DD4D50FE080CE0DE
:100EB0004D3C01D009D001012A6B2C6B4DC02BF1A8
:100EC000010E2D6F00013BDE00D0010162D04B50BE
:100ED000040818E1430E04010417FF0E4D6E0101D2
:100EE000216B000183DF4D3C01D00AD001012A6B48
:100EF0002C6B4DC02BF1020E2D6F000120DE00D0B7
:100F000047D001014BB41DD01F51080DF350226B87
:100F1000016E040E2225036E1F51080DF350246B41
:100F2000E96E040E2425EA6EEF50430B03C0EAFF7E
:100F300001C0E9FFEF6E1FC121F10001D5DE28D00D
:100F400001011F51080DF350226B216F040E212760
:100F5000000E222321C101F0040E2225036E1F5131
:100F6000080DF350246B236F040E2327000E242357
:100F700023C1E9FF040E2425EA6EEF50430B03C0A2
:100F8000EAFF21C1E9FFEF6E1FC121F100012EDF51
:100F90000101000105EF08F0A19A4C5201E13ED099
:100FA00068523CE068A404D069A402D02AEF01F0A2
:100FB0006DA201D033D068AA04D069AA02D042EF52
:100FC00001F068A204D069A202D049EF01F068A044
:100FD00004D069A002D0D5EF01F068A804D069A8B8
:100FE00002D0EAEF01F068AC04D069AC02D0EFEFB8
:100FF00001F001011E6B68A60AD069A608D06CCF6B
:101000004BF0000102EC00F00AD702D0010105D03C
:1010100001011E511E2B0308EEE2000130EF00F02B
:101020000A0D74657374202575006D6A696A080E6F
:101030006F6E945030090101946E4C6A196AF2BEC9
:10104000198EF29E0001BFEC01F019BEF28E000C69
:10105000ECDF5AEF08F0196AF2BE198EF29EBFEC6F
:1010600001F019BEF28E6D6A140E6F6E696A6D869C
:10107000010E4C6E42EF08F0938481A404D06DB64B
:1010800001D0E9D703D06DA601D0CFDF4C2C0BD017
:101090006DBA09D0686A696AA08AC00EF212110E90
:1010A000696E020E4C6E000C4550016E000CAEECE9
:1010B00001F0CED7E1DF938481A40AD0F5DF01529D
:1010C00004E0010E016E06D003D0000E016E02D0C6
:1010D000FF0E016E81EF08F0010EEA6EE96EEF502F
:1010E0000EE0050E016E006A002EFED7012EFBD722
:1010F0002E0E006E002EFED700D0EF2EF2D7000C81
:10110000D6D701C0B1F09698D190800ED56ECD6A39
:10111000000ECA6E000ECB6E070EB46E9250926E29
:101120000D0E006E002EFED7B450A19CB56A000EC5
:10113000966E936E800E956E8D9096908D8296929F
:101140008D8496940C0E0101006FFA0E016F000160
:10115000C3DF0101002FF9D70001B8EF0FF008C17C
:101160000AF107C109F10AC103F0010109C1E9FF50
:101170000AC1EAFFEF5206E0092BD8B40A2B00019E
:10118000F2D701010751095D006E08510A59036E3B
:1011900000C001F00001000C0101016703D00267EB
:1011A00002D007D0022B00C1EEFF012FFCD7022F87
:1011B000FAD70001000C60DF938481A40AD074DFA9
:1011C000015204E0010E016E06D003D0000E016E44
:1011D00002D0FF0E016EEEEF08F0EDD7012C08D023
:1011E0008D8096908D929692010E016E08D007D058
:1011F0008D9096908D829692000E016E00D0CEEF6B
:101200000FF001010F91F2BE0F81F29E0001A35178
:101210003E0802E23E0EA36FA351A32B036A640FA4
:10122000E96E000E0320EA6E0EC1EFFFF29E01018F
:101230000FB1F28E000120EF09F00DC10EF1E1D7E0
:10124000196AF2BE198EF29E020E01012F6F000183
:1012500054DC19BEF28E015207E0196AF2BE198EF3
:10126000F29EAEDD19BEF28E000CA3513E0815E2CF
:10127000196AF2BE198EF29E020E01012F6F000153
:101280003CDC19BEF28E015207E0196AF2BE198EDB
:10129000F29E96DD19BEF28EE8D70CC10DF1CDDFBE
:1012A000000C0900F6CF01F1F7CF02F1F5CF0CF1F8
:1012B000DCDF01C1F6FF02C1F7FF0101002F01D001
:1012C00002D00001EED70001DCEF0FF001010D515B
:1012D000016A0C5D03E20CC100F00CD0006A080E3C
:1012E0000E6F0C3700360D51005CD8B0006E013621
:1012F0000E2FF7D70001000C015000C10CF1640E55
:1013000001010D6F0001E2DF00C000F10150300E5D
:1013100008E1010101A30FD001B70DD001B9200EE2
:1013200004D00101019701990181012601C00CF14E
:1013300000019BDF010100C10CF10A0E0D6F0001DD
:10134000C5DF00C000F10150300E08E1010101B716
:101350000AD001A108D001B9200E0001012601C068
:101360000CF183DF0101300E002700C10CF10001F8
:101370007CDFE4EF0FF0A4B101D0FDD7A651A62B7E
:10138000036A300FE96E040E0320EA6EEFCF00F11E
:1013900001010001A551A65D07E3196AF2BE198E8D
:1013A000F29E8CDC19BEF28E010100C101F0000139
:1013B000E6EF0FF0720E01010C6F000156DF958C05
:1013C000959A8C9A040E0101006FFA0E016F0001CC
:1013D00083DE0101002FF9D7959A8C8A0C0E006FDD
:1013E000FA0E016F000178DE0101002FF9D7000E1F
:1013F000016E00019EEF10F00900F6CF07F1F7CF64
:1014000008F1F5CF0CF131DF07C1F6FF08C1F7FF96
:101410000101062F01D002D00001EED700018CEFB0
:101420000AF0200E010107A9300E086F06C100F076
:1014300006AF07D0001E002A00C006F12D0E086F6F
:10144000078F015006C10CF1640E0D6F00013EDFE5
:1014500000C006F1300E01240101096F06C10CF134
:101460000A0E0D6F000132DF300E002401010B6FF8
:10147000300E01240A6F08C100F007A702D007AFA1
:10148000079507B90BD007AF22D007B520D000C011
:1014900009F107B31CD000C00AF119D0300E095D64
:1014A00016E100C009F1200E086F07A704D00795C8
:1014B000078307AF0793300E0A5D09E100C00AF108
:1014C000200E096F07A7F7D7079307AF079107A566
:1014D00005D008C10CF10001C8DE010107A305D049
:1014E00009C10CF10001C1DE010107A104D00AC14C
:1014F0000CF10001BADE0BC10CF10001B6DE93EF76
:101500000AF005C127F04C0EF66E020EF76E050EBE
:101510000101066F000170D727C006F11F0E0101FF
:10152000076F00017ED7000C010108BF11D00F0E1C
:10153000006E073900160A0E005C03E2300E00262A
:1015400002D00851002600C00CF100018EDE01011E
:101550000F0E07170A0E075D02E2300E02D0089F39
:101560000851072707C10CF100017FDE000C9EA87F
:10157000FED7AD6E000C0A0E01010C6F000175DE86
:101580000D0E01010C6F000170DE3E0E01010C6FAB
:1015900000016BDE06C107F1370E0101086F000183
:1015A000C3DF010106510001E2DF200E01010C6FD3
:1015B00000015BDE650E01010C6F000156DE25C0E7
:1015C00007F1370E0101086F0001AEDF000C040EB9
:1015D00001010A5F0AE3010EEA6E0A0EE96EEF509E
:1015E00004E001D00000EF2EFDD7000103EF0BF067
:1015F0000C0E0101086F850E076F020E096F9B0E1E
:101600000A6F0001E4D70101092FF9D7072F05D090
:10161000082F03D0256A016A0AD09EAAEED7AB50E4
:10162000256EAE50016E25A202D0AB98AB880001AA
:10163000000C0101056B0A0E066F26949EBA10D0AD
:1016400006530EE005530CE10001D2DF01C005F1A5
:101650002A0E01010C6F000108DE01010607EED71A
:10166000055305E10001C4DF01C005F101010A0EC7
:101670000C6F0001FADD0D0E01010C6F0001F5DDAC
:101680003C0E01010C6F0001F0DD05C107F1570EA2
:101690000101086F000148DF200E01010C6F0001FD
:1016A000E4DD650E01010C6F0001DFDD25C007F1EF
:1016B000570E0101086F000137DF010105C101F07C
:1016C0000001000C0101056B00011BDF550E01013B
:1016D000066F000150DFADDF01C03DF03D50060850
:1016E00003E0010E016E09D026822690010E010151
:1016F000056F000106DF000E016E0BEF10F026A251
:1017000003D0272C01D003D0010E016E1CD0400E57
:101710000101066F00012FDF690E0101066F000154
:101720002ADF87DF01C03DF03D50060804E0020ECD
:10173000016E09D001D02680020E0101056F000163
:10174000E0DE000E016E10EF10F0560E0101066F84
:10175000000111DF6EDF01C020F06BDF01C021F05E
:1017600068DF01C022F065DF01C023F062DF01C045
:1017700024F00A0E01010C6F000177DD0D0E01014E
:101780000C6F000172DD20C007F1570E0101086FD8
:101790000001CADE200E01010C6F000166DD21C0D0
:1017A00007F1570E0101086F0001BEDE200E010196
:1017B0000C6F00015ADD22C007F1570E0101086FBE
:1017C0000001B2DE200E01010C6F00014EDD23C0CE
:1017D00007F1570E0101086F0001A6DE200E01017E
:1017E0000C6F000142DD24C007F1570E0101086FA4
:1017F00000019ADE9EEF10F008C10DF107C10CF157
:1018000001010B5324E00AC103F009C1E9FF0AC139
:10181000EAFFEF521CE00DC103F00C510C2BD8B4C1
:101820000D2B0E6F03C00FF10AC103F00951092BF4
:10183000D8B40A2BE96E03C0EAFFEFCF10F10FC155
:10184000EAFF0EC1E9FF10C1EFFF0B07DAD70B5318
:101850000CE00DC103F00C510C2BD8B40D2BE96E2C
:1018600003C0EAFFEF6A0B07F2D707C101F008C116
:1018700002F0000168EF0CF026B003D0010E016EFB
:101880002FD00101025306E0050E056F000139DE7D
:1018900005D00101030E056F000133DE01C108F11F
:1018A00000C107F15CDC01C029F029500C0802E3FB
:1018B000295001D00C0E296E0101086B2E0E076F06
:1018C00001C10AF100C109F129C00BF1000194D74F
:1018D000286A2694010E3A6E150E3D6E000E016EBA
:1018E000000C26B003D0FF0E016E63D02750050810
:1018F00003E0FE0E016E5DD00101005305E00051D2
:10190000640802E33A6A05D0FD0E016E000151D071
:1019100001012D6A2C6A2B6A00C12AF0400E066F65
:10192000000129DE740E0101066F000124DE3A5029
:101930003B103C100101016F066F00011CDE286A9C
:101940002950285C0EE2036A28502E0FE96E000E23
:101950000320EA6EEFCF01F101C106F10CDE282A67
:10196000EFD70101066B000106DE2DC001F12DC08D
:1019700006F101DE2CC001F12CC006F1FCDD2BC00C
:1019800001F12BC006F1F7DD2AC001F12AC006F1F2
:10199000F2DD4FDE01C03DF03D50060803E0FC0ED5
:1019A000016E07D0060E0101056F0001AADD000ED1
:1019B000016E24EF10F0286A2A5206E12B5204E14E
:1019C0002C5202E12D521EE001010251285CD8A0E8
:1019D00002D0000117D0036A28500025E96E01519A
:1019E0000320EA6EEFCF03F103C106F10001C3DD6E
:1019F000282AFF0E2A26D8A02B26D8A02C26D8A02D
:101A00002D26DAD72A5214E12B5212E12C5210E182
:101A10002D520EE10EDE01C03DF03D50060803E000
:101A2000F80E016E07D0070E0101056F000169DD98
:101A300028C001F02FEF10F00101016B026B036B66
:101A4000046B005306E00051640803E300C13AF060
:101A500007D0FD0E006EFF0E016E026E036E47D0C2
:101A6000400E066F000187DD610E0101066F000167
:101A700082DD3AC006F17FDD286A28500B0811E3A9
:101A80002950285C0EE2036A28502E0FE96E000EE2
:101A90000320EA6EEFCF05F105C106F16CDD282ABF
:101AA000ECD70101066B000166DDC3DD01C001F169
:101AB000C0DD01C002F1BDDD01C003F1BADD01C02E
:101AC00004F101C12DF002C12CF003C12BF004C1BF
:101AD0002AF0040E0101056F000113DD2AC000F099
:101AE0002BC001F02CC002F02DC003F00101000159
:101AF0003FEF10F0006A016A026A036A0101146B89
:101B0000156B166B176B13511211111110112CE07C
:101B1000200E186FD8900C370D370E370F3714374B
:101B20001537163717371351175D08E11251165D37
:101B300005E11151155D02E11051145D0FE31051E3
:101B4000145F1151D8A0113D155F1251D8A0123D5C
:101B5000165F1351D8A0133D175FD88000360136A9
:101B600002360336182FD6D7010EEA6E140EE96E30
:101B70000001000CE9500101046F3B0E0B6F9A0E3F
:101B80000A6FCA0E096F086B0A0E066F03C10FF1C8
:101B900002C10EF101C10DF100C10CF10BC113F135
:101BA0000AC112F109C111F108C110F10001A2DF4F
:101BB0000150EFCF00F1ECCF01F1ECCF02F1ECCF0F
:101BC00003F1005213E101010651010AD8A402D029
:101BD00000010CD004510CE00F0B065D01E010E297
:101BE00004BF0ED004BD04D0200E03D00101046B4D
:101BF000300E002600C00DF100011DEC09F00101BE
:101C00000BC10FF10AC10EF109C10DF108C10CF1B0
:101C1000136B126B116B0A0E106F00016BDF03C0A8
:101C20000BF102C00AF101C009F100C008F1010185
:101C3000062FACD700019EEF10F00101026B286A5D
:101C4000060E066F000197DC3A50285C20E22A520B
:101C500006E12B5204E12C5202E12D5218E0E9DC9E
:101C600001C002F1036A285001010025E96E01510B
:101C70000320EA6E02C1EFFF282AFF0E2A26D8A011
:101C80002B26D8A02C26D8A02D260001DDD72A523D
:101C900014E12B5212E12C5210E12D520EE1C9DC5D
:101CA00001C03DF03D50060803E0FC0E016E07D078
:101CB000070E0101056F000124DC28C001F06BEF65
:101CC00010F0200E010101A9300E026F00C100F0DA
:101CD00000AF07D0001E002A00C000F12D0E026FD9
:101CE000018F015000C10CF1640E0D6F000166EC14
:101CF00009F000C000F1300E01240101036F00C1A2
:101D00000CF10A0E0D6F000166EC09F0300E002494
:101D10000101056F300E0124046F02C100F001A71C
:101D200002D001AF019501B90BD001AF22D001B5AE
:101D300020D000C003F101B31CD000C004F119D0C1
:101D4000300E035D16E100C003F1200E026F01A703
:101D500004D00195018301AF0193300E045D09E1C8
:101D600000C004F1200E036F01A7F7D7019301AF64
:101D7000019101A506D002C10DF100011DEC09F091
:101D8000010101A306D003C10DF100011DEC09F012
:101D9000010101A105D004C10DF100011DEC09F004
:101DA00005C10DF100011DEC09F0000CEF5210E02F
:101DB000EACF01F1E9CF00F1EFCF0DF11DEC09F011
:101DC00001C1EAFF00C1E9FFE92AD8B4EA2AEED747
:101DD0009EEF10F02750040806E1150EB7EC0AF04C
:101DE00028DC01C03DF02750060814E12A5206E124
:101DF0002B5204E12C5202E12D520CE0000EB7EC04
:101E00000AF0FF0E2A26D8A02B26D8A02C26D8A070
:101E10002D26ECD72D6A2C6A2B6A2A6A020E010144
:101E2000056F000181EC0AF0010E3A6E000E016EA2
:101E30008CEF10F0EA6A2E0EE96E000E57EC00F0FF
:101E40000A000900F550EE6E0009FBE1286A296AD4
:101E50002694010E3A6E150E3D6E020E0101056FBD
:101E6000000181EC0AF0000E016E90EF10F0F86AAC
:101E7000D09E078EEA6AE96AB886A00EAF6E010EA0
:101E8000B06EA60EAC6E900EAB6E26902692269487
:101E9000276A286A296A2D6A2C6A2B6A2A6A010E27
:101EA0003A6E800E3B6E3C6A150E3D6E4C6A506A6F
:101EB000A36BA96BAA6BB16BC150C00B0F09C16EAC
:101EC000070EB46E1A6A1B6A256A206A216A226AA2
:101ED000236A246A3E6A3F6A486A040E496E0C0E01
:101EE0004A6EAB6BAC6B740EB26F650EB36F730E54
:101EF000B46F740EB56F2E0EB66F740EB76F780E8A
:101F0000B86F740EB96FBA6B700EBB6F720EBC6F88
:101F1000750EBD6F650EBE6F620EBF6F610EC06F36
:101F2000200EC16F640EC26F650EC36F200EC46FAA
:101F3000650EC56F730EC66F630EC76F720EC86FE6
:101F4000690EC96F740ECA6F750ECB6F720ECC6FAF
:101F5000610ECD6F0A0ECE6F0D0ECF6FD06BF96B89
:101F6000FA6BFE6BFD6BFC6BFB6BFF6B80EF08F09D
:101F70000101086BBB0E076F0001AFEC08F001C058
:101F8000FAF0EA6AD10EE96E0101006B026B280ECD
:101F9000016F0001CCEC08F0EDEF08F00152D8B46D
:101FA000F6D0F92B200EF66E100EF76E070E01011B
:101FB000006F000151EF09F0F9C000F11B0E0101A3
:101FC000016F00017CEF09F0BBEF09F001C0FFF0E9
:101FD000FF53FAE0FF51300A19E0010A1AE0030A40
:101FE0001DE05B0A20E00C0A21E0120A2AE0040A44
:101FF0002EE01F0A37E01E0A3FE0150A66E0040AD9
:10200000D8B489D01B0AD8B48AD08DD0DAEF09F0C1
:1020100095D062EF0BF001C0B1F090D07FEF0BF0E4
:1020200001C0B1F08BD0A5EF0BF088D00101016B9E
:10203000B20E006F010E026F00011EDC01C0B1F094
:102040007DD0FAC000F14DD401C0B1F077D00101CC
:10205000016BBB0E006FFAC002F10001ACD401C0ED
:10206000B1F06CD00101016BB20E006F026B000188
:1020700003DC01C0B1F062D0FAC000F1DDD403C0CE
:10208000FEF002C0FDF001C0FCF000C0FBF00A0E43
:1020900001010D6F00011DEC09F00D0E01010D6F26
:1020A00000011DEC09F0740E01010D6F00011DEC23
:1020B00009F0410EE96EFEC003F1FDC002F1FCC063
:1020C00001F1FBC000F156D539D00101016BD10EF1
:1020D000006F0001B2D501C0B1F00A0E01010D6F11
:1020E00000011DEC09F00D0E01010D6F00011DEC4A
:1020F00009F0B1C000F11F0E0101016F0001E1DD27
:10210000200E01010D6F00011DEC09F0EA6AD10EED
:10211000E96E4CD613D05ED601C0B1F00FD08AD68E
:1021200001C0B1F00BD0140E0101006FFA0E016F67
:1021300000016CEC08F00101002FF8D70A0E010134
:102140000D6F00011DEC09F00D0E01010D6F000176
:102150001DEC09F0450E01010D6F00011DEC09F0A9
:10216000B1C000F11F0E0101016F0001AADDEA6A92
:10217000D10EE96E0101006B026B280E016F0001A8
:10218000CCEC08F0B16BFE6BFD6BFC6BFB6B04D70A
:0221900003004A
:020000040030CA
:0E0000003CCE3E1E008581000FC00FE00F4079
:00000001FF
;PIC18F4550
;CRC=36B6  CREATED="01-Mar-13 13:35"
