:0400000062EF00F0BB
:08000800046ED8CF05F0E0CF33
:1000100006F00001E9CF0CF0EACF07F0E1CF08F0DD
:10002000E2CF09F0D9CF0AF0DACF0BF0F3CF12F01C
:10003000F4CF13F0FACF14F0F5CF15F0F6CF16F099
:10004000F7CF17F0F8CF18F0FBCF19F000C00EF083
:1000500001C00FF002C010F003C011F09DA634EFF4
:1000600000F09EB65FEF00F00EC000F00FC001F090
:1000700010C002F011C003F00CC0E9FF07C0EAFF96
:10008000078E08C0E1FF09C0E2FF0AC0D9FF0BC01C
:10009000DAFF12C0F3FF13C0F4FF14C0FAFF15C05B
:1000A000F5FF16C0F6FF17C0F7FF18C0F8FF19C01C
:1000B000FBFF045006C0E0FF05C0D8FF10009E966D
:1000C00034EF00F0F86AD09E078EEA6AE96AC088C9
:1000D000FF0EC16EC098C29CC29EC088C098D26AF2
:1000E000D16A1B6A1C6AC088200EC16EC098C29C6F
:1000F000C29EC088C098C150C00BC16EC19EC28054
:10010000C28EC282C2B2FED7C29EC69A949A948808
:100110009496200EC66E000EC76E6C9A9598958ABE
:10012000959C010E6C6E000E6D6EC090800ED56EAB
:10013000CD6A000ECA6E000ECB6E796A766E000E26
:10014000776E9484BB6ABE6ABF6AD26AD16A9D86A2
:08015000C00EF212FFD70300FC
:020000040001F9
:08FFF800AEF7C4F7F8FB0000AE
:00000001FF
;PIC18F67J50
;CRC=7799  CREATED="10-Jul-12 12:00"
