:1000000070EF00F06D732072713A202558202C207B
:10001000000072703A202558200A0D00EA6A0F0E7F
:10002000E96EEF5011E0030E016EBF0E006E04008A
:10003000002EFDD7012EF9D73C0E006E002EFED704
:1000400000000400EF2EEFD7000C0900F6CF0EF0F1
:10005000F7CF0FF0F5509EA8FED7AD6E0EC0F6FF9D
:100060000FC0F7FF0D2EF1D7000C0EBE10D00F0EF3
:10007000006E0D3800160A0E005C03E2300E0026FA
:1000800002D00E50002600509EA8FED7AD6E0F0E77
:100090000D160A0E0D5C02E2300E02D00E9E0E50BE
:1000A0000D260D509EA8FED7AD6E000CC9500DC098
:1000B000C9FFC730FEE3040E0E6EFA0E0F6EAEDF00
:1000C0000E2EFBD7C7B001D0FDD7C7A005D0C9CF32
:1000D0000AF00AC001F002D0FF0E016EDEEF00F060
:1000E000F86AD09EEA6AE96AB896400EAF6EA60E2C
:1000F000AC6E900EAB6E0A6AC150C00B0F09C16E98
:10010000070EB46E046A056A1F0E0B6E0C6AC150AE
:10011000C00B0F09C16EC050C00BC06EC08EC28034
:100120009698C69A949A94889496210EC66E000E5C
:10013000C76ED190800ED56ECD6A000ECA6E000ECD
:10014000CB6EB16A9484BD6AB76AB66A070EB46EA4
:100150009250926E0400070E006E002EFED700D063
:10016000B450A19CB56A0F0E926E926AF00E896E21
:10017000040E0D6EFA0E0F6E51DF0D2EFBD70C6ABA
:100180000B500C5C38E2040EF66E000EF76E070E94
:100190000D6E5BDF0CC00DF0370E0E6E66DF200EAD
:1001A0009EA8FED7AD6E2C0E9EA8FED7AD6E200E7B
:1001B0009EA8FED7AD6E0CC00DF078D70150FF0899
:1001C00018E0120EF66E000EF76E040E0D6E3DDF97
:1001D0000AC00DF0370E0E6E48DF200E9EA8FED727
:1001E000AD6E0A0E9EA8FED7AD6E0D0E9EA8FED770
:0C01F000AD6E0C2AC5D70C6AC2D7030004
:020000040030CA
:0E00000000C2190E008781000FC00FE00F40F4
:00000001FF
;PIC18F4620
;CRC=8CB1  CREATED="15-Jul-12 16:48"
