:1000000007EF02F066656368613A2025752F257554
:100010002F257520646F773A202575200A0D000082
:10002000686F72613A2025753A25753A25750A0D73
:100030000000080E016E00D000D08A92939200D08A
:1000400000D0000066368A90D8B09380D8A09390F4
:10005000938281A2FED7012EEED700D000D08A92E3
:1000600093920000938000D000D0000000D000D018
:100070000000938281A2FED7016A00D000D0000068
:1000800081B001808A9293928A909390000C080E1E
:10009000636E00C064F0938000D000D000009382B3
:1000A00081A2FED781B0D88081A0D890013600D03F
:1000B00000D093928A92632EEED7938000D000D026
:1000C00000008A906450D8A493900000938281A28B
:1000D000FED700D000D08A92939200D000D00000CA
:1000E0008A909390000C63C064F0D8906432780ECC
:1000F00064166430006E00323F0E00160050642417
:10010000656E63500F0B6524016E000C65C066F0D0
:10011000676A6650090805E20A0E665E100E6726D9
:1001200003D06650672601D0F4D767C001F0000CF9
:10013000606AF29CF29EF2BEFDD7938000D000D0A0
:10014000938200D000D000008A90939000D000D01D
:100150008A929392D00E666E6CDF666A6ADF938035
:1001600000D000D0938200D000D0000081A2FED742
:100170008A90939000D000D08A929392D10E666EAE
:1001800058DF006A84DF01C061F001C063F0ABDFBB
:1001900001C060F093900000938281A2FED700D04E
:1001A00000D000D00000938000D000D0609E020EEE
:1001B000006E002EFED7938000D000D0938200D036
:1001C00000D000008A90939000D000D08A92939241
:1001D000D00E666E2EDF666A2CDF60C065F096DF9B
:1001E00001C061F001C066F024DF938000D000D030
:1001F000938200D000D0000081A2FED78A90939015
:1002000000D000D08A929392D00E666E12DF070E55
:10021000666E0FDF5FC066F00CDF93900000938284
:1002200081A2FED700D000D000D00000938000D083
:1002300000D0C00EF21222EF01F0FF0E5E6E100E23
:100240005F6E76D79698D190800ED56ECD6A000EEF
:10025000CA6E000ECB6E070EB46E9250926E080EF0
:10026000006E002EFED7B450A19CB56AB2EF02F02A
:10027000F29CF29EF2BEFDD7649E3F0E6216938002
:1002800000D000D0938200D000D000008A909390DC
:1002900000D000D08A929392D00E666ECADE666A53
:1002A000C8DE64C065F032DF01C065F001C066F0F1
:1002B000C0DE63C065F02ADF01C065F001C066F0F2
:1002C000B8DE62C065F022DF01C065F001C066F0F3
:1002D000B0DE61C065F01ADF01C065F001C066F0F4
:1002E000A8DE5EC065F012DF01C065F001C066F0F7
:1002F000A0DE5FC065F00ADF01C065F001C066F0F6
:1003000098DE60C065F002DF01C065F001C066F0F4
:1003100090DE93900000938281A2FED700D000D09F
:1003200000D00000938000D000D0C00EF212C1EFC8
:1003300002F00900F6CF5FF0F7CF60F0F5509EA80D
:10034000FED7AD6E5FC0F6FF60C0F7FF5E2EF1D73F
:10035000000C6150016A605C03E260C000F00CD0E8
:10036000006A080E626E603600366150005CD8B0DC
:10037000006E0136622EF7D7000C01505EC060F0AF
:10038000640E616EE6DF00C05EF00150300E07E1E2
:100390005FA20DD05FB60BD05FB8200E03D05F9682
:1003A0005F985F80012601509EA8FED7AD6E5EC0AB
:1003B00060F00A0E616ECDDF00C05EF00150300EBD
:1003C00006E15FB609D05FA007D05FB8200E012616
:1003D00001509EA8FED7AD6E300E5E265E509EA8E0
:1003E000FED7AD6E000CEA6A5F0EE96EEF500EE0CC
:1003F000030E016E006A002EFED7012EFBD73C0EC5
:10040000006E002EFED700D0EF2EF2D7000CF86A57
:10041000D09EEA6AE96AB896400EAF6EA60EAC6E40
:10042000900EAB6E94869488180EC86E280EC66E19
:10043000C78EC79C94869488180EC86E280EC66E08
:10044000C78EC79CC150C00B0F09C16E070EB46E9A
:10045000046A056A066A076A4C0E086E750E096E14
:100460006E0E0A6E650E0B6E730E0C6E0D6A0E6AC2
:100470000F6A106A116A126A4D0E136E610E146EC5
:10048000720E156E740E166E650E176E730E186E64
:10049000196A1A6A1B6A1C6A1D6A4D0E1E6E690E65
:1004A0001F6EE90E206E720E216E630E226E6F0EAD
:1004B000236E6C0E246E650E256E730E266E276AF3
:1004C000286A4A0E296E750E2A6E650E2B6E760E00
:1004D0002C6E650E2D6E730E2E6E2F6A306A316A89
:1004E000326A336A560E346E690E356E650E366E9C
:1004F000720E376E6E0E386E650E396E730E3A6E72
:100500003B6A3C6A3D6A3E6A530E3F6EE10E406EA6
:10051000620E416E610E426E640E436E6F0E446E4B
:10052000456A466A476A486A496A440E4A6E6F0ECF
:100530004B6E6D0E4C6E690E4D6E6E0E4E6E670EEE
:100540004F6E6F0E506E516A526A556A566A010EAE
:10055000576E586E0C0E596E010E5A6E5B6E5C6EC5
:100560005D6A6BD657C05EF058C05FF059C060F04E
:100570005DC061F05AC062F05BC063F05CC064F0C3
:1005800077D6F29CF29EF2BEFDD7938000D000D0C9
:10059000938200D000D000008A90939000D000D0C9
:1005A0008A929392D00E666E44DD030E666E41DD34
:1005B000938000D000D0938200D000D0000081A2B0
:1005C000FED78A90939000D000D08A929392D10E59
:1005D000666E2FDD010E006E5ADD01507F0B5E6EE0
:1005E000636E81DD01C05DF0010E006E50DD0150D3
:1005F0003F0B5E6E636E77DD01C057F0010E006E3B
:1006000046DD01501F0B5E6E636E6DDD01C058F05C
:10061000006A3DDD01C05EF001C063F064DD01C031
:1006200059F093900000938281A2FED700D000D0B1
:1006300000D00000938000D000D0C00EF212040E53
:10064000F66E000EF76E070E5E6E73DE57C05EF03C
:100650001B0E5F6E92DE2F0E9EA8FED7AD6E58C0A9
:100660005EF01B0E5F6E89DE2F0E9EA8FED7AD6E6C
:1006700059C05EF01B0E5F6E80DE130EF66E000E2C
:10068000F76E060E5E6E55DE5DC05EF01B0E5F6E91
:1006900074DE200E9EA8FED7AD6E0A0E9EA8FED771
:1006A000AD6E0D0E9EA8FED7AD6E630E5F6E9BDE27
:1006B000F29CF29EF2BEFDD7938000D000D09382D0
:1006C00000D000D000008A90939000D000D08A9291
:1006D0009392D00E666EADDC666AABDC938000D080
:1006E00000D0938200D000D0000081A2FED78A9073
:1006F000939000D000D08A929392D10E666E99DCCE
:10070000010E006EC4DC01507F0B5E6E636EEBDC8D
:1007100001C05CF0010E006EBADC01507F0B5E6E12
:10072000636EE1DC01C05BF0006AB1DC01503F0B9D
:100730005E6E636ED8DC01C05AF093900000938225
:1007400081A2FED700D000D000D00000938000D05E
:1007500000D0C00EF212200EF66E000EF76E060EDE
:100760005E6EE7DD5AC05EF01B0E5F6E06DE3A0E6F
:100770009EA8FED7AD6E5BC05EF01B0E5F6EFDDD0A
:100780003A0E9EA8FED7AD6E5CC05EF01B0E5F6E8B
:10079000F4DD0A0E9EA8FED7AD6E0D0E9EA8FED704
:1007A000AD6E040E5E6EE10E5F6E1DDE5E2EFBD73B
:0407B000E8D6030084
:020000040030CA
:0E00000000C2190E008781000FC00FE00F40F4
:00000001FF
;PIC18F4620
;CRC=6F59  CREATED="24-Sep-12 12:34"
