:1000000067EF00F06D732072713A202558202C2084
:10001000000072703A202558200A0D00EA6A120E7C
:10002000E96EEF5011E0030E016EBF0E006E04008A
:10003000002EFDD7012EF9D73C0E006E002EFED704
:1000400000000400EF2EEFD7BCEF00F00900F6CF60
:1000500012F0F7CF13F0F5509EA8FED7AD6E12C088
:10006000F6FF13C0F7FF112EF1D7000C12BE10D00F
:100070000F0E006E113800160A0E005C03E2300EFF
:10008000002602D01250002600509EA8FED7AD6E6A
:100090000F0E11160A0E115C02E2300E02D0129EF3
:1000A0001250112611509EA8FED7AD6E000CC950FB
:1000B00011C0C9FFC730FEE3C7A005D0C9CF0AF001
:1000C0000AC001F002D0FF0E016EDDEF00F0F86A09
:1000D000D09EEA6AE96AB896400EAF6EA60EAC6E84
:1000E000900EAB6E0A6A0F0E0C6EC70E0B6E0F0EE3
:1000F0000E6EC90E0D6EC150C00B0F09C16E070EFA
:10010000B46E046A056A1F0E0F6E106AC150C00BF0
:100110000F09C16EC050C00BC06EC08EC2809698D1
:10012000C69A949A94889496210EC66E000EC76E55
:10013000D190800ED56ECD6A000ECA6E000ECB6EC9
:10014000B16A9484BD6AB76AB66A070EB46E9250FB
:10015000926E0400070E006E002EFED700D0B45041
:10016000A19CB56A0F0E926E926AF00E896E040E13
:10017000116EFA0E126E52D7112EFBD7106A0F5065
:10018000105C38E2040EF66E000EF76E070E116E6C
:100190005DDF10C011F0370E126E68DF200E9EA8D2
:1001A000FED7AD6E2C0E9EA8FED7AD6E200E9EA87B
:1001B000FED7AD6E10C011F07AD70150FF0818E0DD
:1001C000120EF66E000EF76E040E116E3FDF0AC0BF
:1001D00011F0370E126E4ADF200E9EA8FED7AD6ECC
:1001E0000A0E9EA8FED7AD6E0D0E9EA8FED7AD6E70
:0A01F000102AC5D7106AC2D7030019
:020000040030CA
:0E00000000C2190E008781000FC00FE00F40F4
:00000001FF
;PIC18F4620
;CRC=34AF  CREATED="16-Jul-12 11:41"
