:10000000A1EF02F03CEF02F0046ED8CF05F0E0CF94
:1000100006F00001E9CF0CF0EACF07F0E1CF08F0DD
:10002000E2CF09F0D9CF0AF0DACF0BF0F3CF12F01C
:10003000F4CF13F0FACF14F0F5CF15F0F6CF16F099
:10004000F7CF17F000C00EF001C00FF002C010F0A3
:1000500003C011F0A0A230EF00F0A1B263EF00F0F6
:100060009DA436EF00F09EB467EF00F0A0A03CEF37
:1000700000F0A1B0A4EF00F00EC000F00FC001F03E
:1000800010C002F011C003F00CC0E9FF07C0EAFF86
:10009000078E08C0E1FF09C0E2FF0AC0D9FF0BC00C
:1000A000DAFF12C0F3FF13C0F4FF14C0FAFF15C04B
:1000B000F5FF16C0F6FF17C0F7FF045006C0E0FFBB
:1000C00005C0D8FF1000652AA1923CEF00F06350F4
:1000D000FF0808E19484BD6A040EBD6EB76AB66A73
:1000E000636A2FD0635212E1016A886B896BBE503C
:1000F00088256A6EBF5089216B6E000E65206C6E7C
:10010000000E01206D6E010E636E1BD0632C19D0A2
:100110006DC069F06CC068F06BC067F06AC066F0D3
:10012000016A886B896BBE5088256A6EBF50892131
:100130006B6E000E65206C6E000E01206D6E020E5F
:10014000636E9E943CEF00F06350FF0808E19484D6
:10015000BD6A040EBD6EB76AB66A636A2FD0635279
:1001600012E1016A886B896BBB5088256A6EBC50AE
:1001700089216B6E000E65206C6E000E01206D6E85
:10018000010E636E1BD0632C19D06DC069F06CC07A
:1001900068F06BC067F06AC066F0016A886B896BB3
:1001A000BB5088256A6EBC5089216B6E000E65209D
:1001B0006C6E000E01206D6E020E636EA1903CEF1E
:1001C00000F0C69E9E9687C0C9FF020EC6BE05D02F
:1001D0009EA6FED7000EC5BC010E016E000C806B02
:1001E000C580C5B0FED7A00E876FEBDF01C080F0E1
:1001F000876BE7DF7DC087F0E4DF01C080F08053CC
:1002000003E0010E016E17D07FC003F07EC0E9FF4E
:100210007FC0EAFFEFCF81F081C087F0D2DF01C05D
:1002200080F0805303E0020E016E05D0C584C5B492
:10023000FED7000E016ECEEF01F0C580C5B0FED72F
:10024000A00E876FBEDF0150819101B08181C5840E
:10025000C5B4FED7000E81A1010E016E41EF01F081
:10026000C69CC586C5B6FED700B0C59A00A0C58A93
:10027000C588C5B8FED7C9CF01F06CEF01F0806B1F
:10028000DCD70152FDE0C580C5B0FED7A00E876F58
:1002900098DF01C080F0876B94DF7DC087F091DF2D
:1002A00001C080F0805303E0010E016E1CD0C582B6
:1002B000C5B2FED7A10E876F84DF01C080F08053E6
:1002C00003E0020E016E0FD07FC003F07EC0E9FF95
:1002D0007FC0EAFF006AC4D701C0EFFFC584C5B480
:1002E000FED7000E016EDBEF01F0836B846B85910E
:1002F000C580C5B0FED7A00E876F63DF01C083F055
:10030000876B5FDF7FC087F05CDF01C083F08353C2
:1003100003E0010E016E21D08451842B036A8025F5
:10032000E96E81510320EA6EEFCF86F086C087F038
:1003300048DF0150859101B0858185B103D082519C
:10034000845DEAE3C584C5B4FED78251845D03E0D1
:10035000020E016E02D0000E016EFCEF01F0EA6A9F
:100360007D0EE96EEF500EE0030E016E006A002E66
:10037000FED7012EFBD73C0E006E002EFED700D01C
:10038000EF2EF2D7000C746A7B6A7C6A090E7B6ED2
:10039000160E7D6E7F6A7B0E7E6E21D701C074F0D3
:1003A000745203E074C001F033D0160E7D6E7F6A84
:1003B0007C0E7E6E64D701C074F0745203E074C08A
:1003C00001F026D07C507B5C04E09D0E016E20D0B5
:1003D00002D07CC058F0776A77C076F076C075F0AE
:1003E000016A750E006E100E7F6E01C081F000C0B4
:1003F00080F0060E826F79D701C074F0745203E06A
:1004000074C001F005D0640E7D6EA9DF000E016E90
:1004100080EF02F0C150C00B0C09C16EC050C00B80
:100420000A09C06EC08EC280070E926E000E016E69
:1004300083EF02F064C0B1FFB190B36AB26A615059
:10044000080BD8B48294BD6A61C0BDFFB76AB66AB2
:100450006250080BD8B48292BA6A62C0BAFF948420
:100460009482000E016E86EF02F09EA8FED7AD6E5C
:10047000000C150E746EC6D5050E756E6E0E7D6E73
:100480006EDF752EFBD7550EF0DF9EAA04D09EAA14
:10049000FED7AECF74F07450060803E0FF0E016E75
:1004A0002AD0560EE2DF9EAAFED79EAAFED7AECF76
:1004B00044F09EAAFED7AECF45F09EAAFED7AECF9F
:1004C00046F09EAAFED7AECF47F09EAAFED7AECF8B
:1004D00048F0690ECADF9EAA04D09EAAFED7AECF0E
:1004E00074F07450060804E0FE0E016E04D001D0D2
:1004F0002180000E016E89EF02F0FF0E736E43D76C
:1005000001C073F087D701C073F094D701C073F0B6
:10051000B0D701C073F09698D190800ED56ECD6A99
:10052000000ECA6E000ECB6E070EB46E9250926E25
:10053000080E006E002EFED7B450A19CB56AFFEFE6
:1005400002F0F86AD09E078EEA6AE96AB896400E11
:10055000AF6EA60EAC6E900EAB6E94869488180E9D
:10056000C86E280EC66EC78EC79C2190436A220EA5
:10057000426E010E556E800E566E576AB896400E4A
:10058000AF6EA60EAC6E900EAB6E94869488180E6D
:10059000C86E280EC66EC78EC79C050E616E626E51
:1005A000FF0E636ECD0E646E656A696A686A676A7B
:1005B000666A6D6A6C6A6B6A6A6AC150C00B0F0921
:1005C000C16E070EB46E196A1A6A1F6A206A446AFD
:1005D000456A466A476A486A010E586E020E596EAD
:1005E000030E5A6E800E5B6E5C6E5D6E5E6E5F6EAD
:1005F000606E716A706A6F6A6E6A726A7ED77252D2
:0C06000004E1FA0E7D6EABDEFAD70300B9
:020000040030CA
:0E00000000C2190E008781000FC00FE00F40F4
:00000001FF
;PIC18F4620
;CRC=A2C0  CREATED="19-Sep-12 19:33"
