:1000000084EF00F06D732072713A2025580A0D00BC
:100010007265737075657374613A202558200A0DF6
:1000200000000900F6CF0FF0F7CF10F0F5509EA8B2
:10003000FED7AD6E0FC0F6FF10C0F7FF0E2EF1D742
:10004000000C0FBE10D00F0E006E0E3800160A0EF8
:10005000005C03E2300E002602D00F500026005054
:100060009EA8FED7AD6E0F0E0E160A0E0E5C02E2B3
:10007000300E02D00F9E0F500E260E509EA8FED7B7
:10008000AD6E000C040EF66E000EF76E070E0E6ECF
:10009000C8DF0DC00EF0370E0F6ED3DF0A0E9EA81C
:1000A000FED7AD6E0D0E9EA8FED7AD6ED8900D3664
:1000B00000500D12C9500DC0C9FFC730FEE3C7A0E4
:1000C000FED7C7A005D0C9CF0AF00AC001F002D000
:1000D000FF0E016ED4EF00F0EA6A0E0EE96EEF50EB
:1000E00011E0030E016EBF0E006E0400002EFDD75E
:1000F000012EF9D73C0E006E002EFED70000040042
:10010000EF2EEFD7F4EF00F0F86AD09EEA6AE96AC2
:10011000B896400EAF6EA60EAC6E900EAB6EFF0E94
:100120000A6EC150C00B0F09C16E070EB46E046A8F
:10013000056A1F0E0B6E0C6AC150C00B0F09C16E11
:10014000C050C00BC06EC08EC2809698C69A949A5A
:1001500094889496210EC66E000EC76ED190800EC4
:10016000D56ECD6A000ECA6E000ECB6EB16A948455
:10017000BD6AB76AB66A070EB46E9250926E0400FA
:10018000070E006E002EFED700D0B450A19CB56AB9
:100190000F0E926E926AF00E896E0C6A0B500C5C18
:1001A00027E20CC00DF06ED7013C01D018D0100E24
:1001B000F66E000EF76E0B0E0E6E33DF0AC00EF0F9
:1001C000370E0F6E3EDF200E9EA8FED7AD6E0A0ED4
:1001D0009EA8FED7AD6E0D0E9EA8FED7AD6E020E88
:1001E0000D6EFA0E0E6E78D70D2EFBD70C2AD6D7D1
:0601F0000C6AD3D70300E6
:020000040030CA
:0E00000000C2190E008781000FC00FE00F40F4
:00000001FF
;PIC18F4620
;CRC=8497  CREATED="14-Jul-12 11:33"
