:1000000084EF0EF06896000C046ED8CF05F0E0CFB8
:1000100006F00001E9CF0CF0EACF07F0E1CF08F0DD
:10002000E2CF09F0D9CF0AF0DACF0BF0F3CF12F01C
:10003000F4CF13F0FACF14F0F5CF15F0F6CF16F099
:10004000F7CF17F000C00EF001C00FF002C010F0A3
:1000500003C011F0A0A230EF00F0A1B23AEF0CF013
:100060009DA436EF00F09EB43EEF0CF0A0A03CEF54
:1000700000F0A1B090EF0CF0A0AA42EF00F0A1BAFE
:10008000DDEF07F00EC000F00FC001F010C002F06D
:1000900011C003F00CC0E9FF07C0EAFF078E08C0DB
:1000A000E1FF09C0E2FF0AC0D9FF0BC0DAFF12C0AE
:1000B000F3FF13C0F4FF14C0FAFF15C0F5FF16C01C
:1000C000F6FF17C0F7FF045006C0E0FF05C0D8FFD9
:1000D0001000F76AE20FF66E000EF7220900F550E5
:1000E0001200000302FFFFFFFFFFFFFFFFFFFFFF04
:1000F000FFFFF76A020FF66E010EF7220900F550B6
:10010000120000FF02FFFFFFFFFFFFFFFFFFFFFFE7
:10011000FFFFF76A220FF66E010EF7220900F55075
:10012000120008000800400000000000000000006D
:1001300000000000000000000000000000000000BF
:100140000000F76A520FF66E010EF7220900F55013
:100150001200080000004000000000000000000045
:10016000000000000000000000000000000000008F
:100170000000F76A820FF66E010EF7220900F550B3
:10018000120009024300020100C03209040000010C
:1001900002020100052400100104240202052406C5
:1001A00000010524010001070581030800FA090484
:1001B0000100020A000000070502024000010705D5
:1001C00082024000FA00F76AD60FF66E010EF7229F
:1001D0000900F55012000200F76AE80FF66E010EF2
:1001E000F7220900F5501200120017001B00200032
:1001F000FFFFFFFFFFFFFFFFF76A080FF66E020E1B
:10020000F7220900F5501200120110010200000847
:10021000D8040B00000101020001F76A2A0FF66EF4
:10022000020EF7220900F550120004030904080326
:1002300043004300530028035500530042005F0071
:1002400043006F006E00740072006F006C005F006E
:100250004400650076006900630065007300F76A7A
:100260006E0FF66E020EF7220900F5501200EF0035
:10027000FE000D016D92699468A402D06894FCD7C9
:10028000E9EF07F0080E0401016F040E036F180E6A
:10029000026F880E006F046B040E076F200E066F4E
:1002A0000001000C70A002D0EDDF7090689AF2EFB0
:1002B00007F06A6A6892F8EF07F00101BE91BDBFCE
:1002C000BE81BD9FBD51100803E2000E016E1BD020
:1002D000BEA10DD0036ABD510001FBDEFF0802E1A3
:1002E000000E01D0010E016E01010DD00CD0036A89
:1002F000BD510001FEDEFF0802E1000E01D0010E3B
:10030000016E010100D00001000C036A0101BC5123
:10031000700FE96E0F0E0320EA6EEF6ABCC1BDF1EB
:100320000001CBDF015219E00101BC51080DF3506F
:10033000BE6BE96E040EBE25EA6EEF6ABC51080D75
:10034000F350BE6BBD6F040EBD27000EBE23BDC1B2
:10035000E9FF040EBE25EA6EEF6A0001000C010EF3
:100360000101BB6FBB510F0807E3BBC1BCF100012A
:10037000CCDF0101BB2BF6D70001000C356A346AD3
:10038000250E336E800E326E366A376A080E386E6E
:10039000876B86913A6A396A826B8391000C0101FE
:1003A000B16BB15101080AE3036AB151300FE96E34
:1003B000000E0320EA6EEF6AB12BF3D70001DEDFF7
:1003C000246A010E256E236A000C6A6A686A9F0E11
:1003D0006B6E3D0E696E6E6AC2DFE1DF160E706EE7
:1003E00068A602D00FDEFCD76D984CDF030E2B6E93
:1003F000FEEF07F0698468986D8204EF08F0689C4E
:100400000AEF08F0B6C12CF0000CFF0E2C6E000CA9
:100410000101B46B2F522CE0B451070829E3265098
:10042000000A000105E0020A09E0010A0DE012D00D
:10043000036A2E509EDEE8CFB5F10CD0036A2E5031
:10044000ECDEE8CFB5F106D0036A2E50D5DEE8CF5A
:10045000B5F100D02E2A2F060101B451B42B036A46
:10046000200FE96E040E0320EA6EB5C1EFFFD2D76C
:100470002F5204E1B451080801E0236AB4C1B6F177
:100480000001C0DF000C2E6A266A04011B51010A1C
:10049000000107E0030A0AE0010A0BE0220A1BE060
:1004A0002FD0120E2F6E030E266E2CD0430E2F6E01
:1004B00029D0020E266E036A04011A51270FE96E35
:1004C000000E0320EA6EEFCF2EF0036A2E500001DB
:1004D000A4DE2F6E17D0D89004011A35036A0001EC
:1004E0007BDE0900F5CF03F02E6E2E3C01D006D046
:1004F000036A2E503EDE2F6E05D002D086DF0ED06E
:1005000084DF0CD004011F5305E12F501E5D02E271
:100510001EC42FF0010E236E00017ADFBAEF03F044
:100520000101B35306E1040E2B6E000118DFC5D0A4
:100530000101050E2B6E040EB66F280EB56F010E6D
:10054000B46FB4510F08D8A0B8D0B4C1BCF1000149
:10055000DCDE0101B76B036AB4510001CADDFF089C
:1005600053E0040E0101B76FD890B435036A00015F
:10057000E8DD0900F5CF03F00101B86F03C0B9F160
:10058000B451080DF350BC6BBB6F010EBB25016E5F
:10059000000EBC21036E01C0E9FF040E0324EA6EC5
:1005A000B8C1EFFFB451080DF350BC6BBB6F020E26
:1005B000BB25016E000EBC21036E01C0E9FF040ED5
:1005C0000324EA6EB6C1ECFFED52B5C1EFFFD8903F
:1005D000B435036A0001B5DD0900F5CF03F0010170
:1005E000B5270350B623880EBA6FB9B1BA81B9B333
:1005F000BA83B451080DF350BC6BE96E040EBC25F0
:10060000EA6EBAC1EFFF0001036A0101B4510001B3
:1006100060DDFF0837E00101B783B451080DF350E6
:10062000BC6BBB6F040EBB27000EBC23020EBB25A8
:10063000016E000EBC21036E01C0E9FF040E03240D
:10064000EA6EB6C1ECFFED52B5C1EFFFD890B435FC
:10065000036A00015EDD0900F5CF03F00101B52753
:100660000350B623B451080DF350BC6BBB6F040E9E
:10067000BB27000EBC23BBC1E9FF040EBC25EA6EFC
:10068000400EEF6E0101B751060802E10E0EB76F82
:10069000036AB45100011DDD010803E00101B789BF
:1006A0000001036A0101B451700FE96E0F0E0320BF
:1006B000EA6EB7C1EFFFB42B44D70001B2EF03F0ED
:1006C00004011951000A00010DE0010A15E0020AB7
:1006D00020E0060A2AE0030A31E00E0A31E0010AAE
:1006E00037E046D025C020F40401216B020E010141
:1006F000B66F000187DE3ED004011A2D07D0010E2F
:1007000025160101B66B00017DDE02D000017DDE01
:1007100031D004011A2D06D025820101B66B0001EB
:1007200071DE02D0000171DE25D0020E236E1AC4E4
:100730002DF00101B66B000165DE1CD0A4D61AD0E5
:1007400024C020F4010E0101B66F00015BDE12D05F
:1007500004011A5101080AE31AC424F01AC4B3F1BF
:100760000001DED60101B66B00014CDE000102D0B3
:100770004CDE00D029EF05F024C0B3F1040119517B
:10078000000A000105E00A0A0CE0010A2BE03FD054
:100790000401206B216B020E0101B66F000132DEF5
:1007A00038D00101B3531BE0010EB35D036A0001B1
:1007B0000ADD016E04011C5DD8A002D001010FD03A
:1007C000036A1C51300FE96E000E0320EA6EEFCF72
:1007D00020F4010E0101B66F000114DE02D0000109
:1007E00014DE17D00101B3530FE0036A04011C515A
:1007F000300FE96E000E0320EA6E1AC4EFFF01010C
:10080000B66B0001FFDD02D00001FFDD02D0FDDD8F
:1008100000D029EF05F00101B491B3BFB481B39FBB
:10082000B4A111D0B351080DF350B66BB56F040EDF
:10083000B527000EB623B5C1E9FF040EB625EA6E52
:10084000880EEF6E09D0B351080DF350B66BE96E08
:10085000040EB625EA6EEF6A000193EF04F0010181
:10086000B491B3BFB481B39FB4A111D0B351080DFB
:10087000F350B66BB56F040EB527000EB623B5C1A5
:10088000E9FF040EB625EA6E840EEF6E0AD0B3516E
:10089000080DF350B66BE96E040EB625EA6E840EB1
:1008A000EF6E00019BEF04F00101B491B3BFB4817E
:1008B000B39FB4A111D0B351080DF350B76BB66F0D
:1008C000040EB627000EB723B6C1E9FF040EB72504
:1008D000EA6EEFCFB5F10AD0B351080DF350B76B04
:1008E000E96E040EB725EA6EEFCFB5F1B5AF02D0D1
:1008F000B5B502D0000E01D0010E016E0001A7EFC8
:1009000004F01CC4BDF1D9DC01522EE004011951E0
:10091000010A000105E0020A0BE0030A11E022D0FF
:100920001CC4B3F178D70101B66B00016BDD1CD09C
:100930001CC4B3F194D70101B66B000163DD14D080
:100940000401206B216B1CC4B3F10001ADD701522F
:1009500003E0010E0401206F020E0101B66F0001D9
:1009600051DD02D052DD00D029EF05F0FE0E2C6ED5
:10097000000C04011C2D01D002D01C534FE1195171
:10098000000A00010BE0010A0DE0210A1CE0010A47
:100990001FE0030A30E0010A35E03DD0010E896F07
:1009A000E5DF3BD0040EEA6E200EE96EE26A3B0EF4
:1009B000E16E080E016EE6CFEEFF012EFCD71EC4DD
:1009C000B6F120DD2AD0020E896F8681CFDF25D0D7
:1009D000040EEA6E200EE96EE26A320EE16E070E38
:1009E000016EE6CFEEFF012EFCD7070E0101B66FB8
:1009F000000108DD12D01AC487F00101B66B0001B6
:100A000001DD0BD01AC43AF01BC439F00101B66BFA
:100A10000001F8DC02D0F9DC00D00401000129EF6C
:100A200005F0236A040118517F0B000A000107E05A
:100A3000010A07E0030A07E0230A07E008D040D6CE
:100A400008D09AD606D05DD704D093D702D0DDDC8B
:100A500000D03CEF07F00101B451080DF350BA6B20
:100A6000E96E040EBA25EA6EEFCFB6F1B551020871
:100A700006E1B6AD02D0B56B02D0010EB56FB5512F
:100A8000030813E1840EB66FB451080DF350BA6B2E
:100A9000B96F040EB927000EBA23B9C1E9FF040EDD
:100AA000BA25EA6E840EEF6E07D0B52D03D0C80EBE
:100AB000B66F02D0880EB66FD890B435036A0001C5
:100AC000A1EC00F00900F5CF03F00101B76F03C0FE
:100AD000B8F1B451080DF350BA6BB96F010EB925D6
:100AE000016E000EBA21036E01C0E9FF040E03245B
:100AF000EA6EB7C1EFFFB8B1B681B8B3B683B451EF
:100B0000080DF350BA6BE96E040EBA25EA6EB6C151
:100B1000EFFF0001000C036A0101C151700FE96E83
:100B20000F0E0320EA6EEF5212E0C151080DF35090
:100B3000C36BC26F040EC227000EC323C2C1E9FFFC
:100B4000040EC325EA6EEFCFC2F1C2AF02D0000E91
:100B500001D0010E016E0001000CBCC1C1F1DBDF50
:100B6000015264E00101BC51080DF350C26BC16F2A
:100B7000040EC127000EC223010EC125016E000E16
:100B8000C221036E01C0E9FF040E0324EA6EBDC159
:100B9000EFFFBF51020817E1BC51080DF350C26BC3
:100BA000C16F040EC127000EC223C1C1E9FF040EAC
:100BB000C225EA6EEFCFC0F1C0AD02D0BF6B02D04C
:100BC000010EBF6F13D0BF51040810E1BC51080DD6
:100BD000F350C26BE96E040EC225EA6EEFCFC0F18E
:100BE000C0AD03D0010EBF6F01D0BF6BBF2D03D0CE
:100BF000C80EC06F02D0880EC06FBEB1C081BEB338
:100C0000C083BC51080DF350C26BC16F040EC127E5
:100C1000000EC223C1C1E9FF040EC225EA6EC0C1A5
:100C2000EFFF010E016E05D000D00001000E016E35
:100C300001010001000C8951010A05E0020A14E0DB
:100C4000010A19E02CD0EA6A3B0EE96E040EE26E4E
:100C5000180EE16E080E016EE6CFEEFF012EFCD7F6
:100C6000030E896F83DE1DD00101B66B000102EC1B
:100C700002F0896B16D0EA6A320EE96E040EE26E5B
:100C8000180EE16E070E016EE6CFEEFF012EFCD7C7
:100C9000896B0101B66B000102EC02F002D0896B96
:100CA00000D088EF06F00101B451080DF350B66B87
:100CB000B56F010EB525016E000EB621036E01C0A1
:100CC000E9FF040E0324EA6E036AEFCF01F003C0CC
:100CD00002F000017CEF06F08391020E0101B46F77
:100CE000B56F0001B8DE81EF06F08381856B020EDF
:100CF0000101B46F0001D7D701C084F0845301E132
:100D0000EBD78FEF06F00101B35304E1000193D755
:100D100006D00101B351020803E10001E6D7010149
:100D20000001000CB4C16EFF0101B45303E0040ED6
:100D30002B6E02D0020E2B6E0001A4EF06F0246A87
:100D4000236A2DC0B4F1EED716EF07F0B4C1C1F19C
:100D5000E2DE015241E00101B451080DF350BD6BD8
:100D6000BC6F040EBC27000EBD23020EBC25016E15
:100D7000000EBD21036E01C0E9FF040E0324EA6EDC
:100D8000ECCF03F0ED52EFCFBAF103C0BBF1BBC122
:100D9000EAFFBAC1E9FFB6C1E2FFB5C1E1FFB8C1E0
:100DA00002F0B7C101F0015202E0022A02D0025261
:100DB00006E0E6CFEEFF012EFCD7022EFAD7B4C133
:100DC000BCF1B8C1BEF1B7C1BDF1B9C1BFF10001FD
:100DD000C4DE015003D000D0000E016EFDEF06F01E
:100DE000020E0101B46FB66B430EB56FB86B82C0D3
:100DF000B7F1020EB96F0001A9D782C088F0826BEB
:100E000005EF07F0825301E0EBD71DEF07F001017A
:100E1000B3530EE1232C05D0000108EC02F006D0FC
:100E200001012350020803E1000189D7010106D026
:100E3000B351020803E10001E5D701010001000CF4
:100E40002A300101B16FB133B1331F0EB1172A52ED
:100E50004FE1040100513C0B0101B26F430E04014C
:100E600000170101B251340825E104010451800B3F
:100E700001E0046B0001D5D56D982C3C07D0010131
:100E8000B46B030EB56F0001E6DD12D00101B46B47
:100E9000020EB56F0001DFDD2C50FE0809E00101F4
:100EA000BC6BBE6B2CC0BDF1040EBF6F000155DEE4
:100EB0001DD00101B25104081AE1B36B000123DF18
:100EC0000101B46B020EB56F0001C5DD2C50FE08A8
:100ED0000CE02C3C01D009D00101BC6BBE6B2CC0D6
:100EE000BDF1010EBF6F000138DE00D0010162D0FC
:100EF0002A50040818E1430E04010417FF0E2C6E5B
:100F00000101B36B000183DF2C3C01D00AD0010149
:100F1000BC6BBE6B2CC0BDF1020EBF6F00011DDEAD
:100F200000D047D001012AB41DD0B151080DF350B3
:100F3000B46B016E040EB425036EB151080DF3506D
:100F4000B66BE96E040EB625EA6EEF50430B03C094
:100F5000EAFF01C0E9FFEF6EB1C1B3F10001D3DEDA
:100F600028D00101B151080DF350B46BB36F040EDA
:100F7000B327000EB423B3C101F0040EB425036EF1
:100F8000B151080DF350B66BB56F040EB527000EC6
:100F9000B623B5C1E9FF040EB625EA6EEF50430B48
:100FA00003C0EAFFB3C1E9FFEF6EB1C1B3F10001C5
:100FB0002EDF0101000116EF08F0A19A2B5201E18A
:100FC0003ED068523CE068A404D069A402D03AEF55
:100FD00001F06DA201D033D068AA04D069AA02D072
:100FE00052EF01F068A204D069A202D059EF01F0DB
:100FF00068A004D069A002D0E5EF01F068A804D091
:1010000069A802D0FAEF01F068AC04D069AC02D054
:10101000FFEF01F00101B06B68A60AD069A608D005
:101020006CCF2AF0000102EC00F00AD702D00101D7
:1010300005D00101B051B02B0308EEE2000142EFF0
:1010400000F00A0D25752F25752F25752825753A71
:1010500025753A25752920533A2575204E3A257570
:1010600020563A254C75000086A302D0000E01D010
:10107000010E8693E8B0868386A303D08D84969470
:1010800002D08D949694680EF46F100EF56F12EFE7
:1010900010F0080E016E040E006E002EFED78A922C
:1010A0009392040E006E002EFED7010193378A90B2
:1010B000D8B09380D8A09390938281A2FED7012EBE
:1010C00001D002D00001E7D7040E006E002EFED73B
:1010D0008A92939200009380040E006E002EFED739
:1010E000040E006E002EFED7938281A2FED7016A05
:1010F000040E006E002EFED781B001808A9293927A
:101100008A9093900001000C080E0101946F00C0BA
:1011100095F19380040E006E002EFED7938281A27B
:10112000FED781B0D88081A0D8900136040E006E21
:10113000002EFED793928A92942FEBD79380040EC1
:10114000006E002EFED78A909551D8A4939000008F
:10115000938281A2FED7040E006E002EFED78A92E3
:101160009392040E006E002EFED78A909390000199
:10117000000C94C195F1D89001019533780E951724
:101180009531006E00323F0E001600509525966F87
:1011900094510F0B9625016E0001000C95908C90D8
:1011A000080E016E00D00000018E10D0019E0101DA
:1011B000A3330001D8B08C80D8A08C90018C06D0CD
:1011C000019C012EF4D700D000008C80840EE96EC3
:1011D000E92EFED700D0000001BEE8D701BCF0D751
:1011E000000CEF520FE0EACF90F1E9CF8FF1EFCF93
:1011F000A3F1D4DF90C1EAFF8FC1E9FFE92AD8B497
:10120000EA2AEFD7E1EF09F09380040E006E002E7A
:10121000FED79382040E006E002EFED78A90939024
:10122000040E006E002EFED78A929392D00E01011A
:10123000936F00012EDF030E0101936F000129DF80
:101240009380040E006E002EFED79382040E006E73
:10125000002EFED781A2FED78A909390040E006ED6
:10126000002EFED78A929392D10E0101936F000156
:1012700010DF010E006E48DF01507F0B01018F6F00
:10128000946F000176DF01C08AF0010E006E3CDF32
:1012900001503F0B01018F6F946F00016ADF01C0A5
:1012A000E1F0010E006E30DF01501F0B01018F6F66
:1012B000946F00015EDF01C0E2F0006A25DF01C02B
:1012C0008FF101C094F155DF01C0E3F0939000006D
:1012D000938281A2FED7040E006E002EFED700D0AE
:1012E00000009380040E006E002EFED79380040E43
:1012F000006E002EFED79382040E006E002EFED7E5
:101300008A909390040E006E002EFED78A929392DC
:10131000D00E0101936F0001BCDE0101936B00014F
:10132000B8DE9380040E006E002EFED79382040E6A
:10133000006E002EFED781A2FED78A909390040EF5
:10134000006E002EFED78A929392D10E0101936F08
:1013500000019FDE010E006ED7DE01507F0B010100
:101360008F6F946F000105DF01C0E6F0010E006E83
:10137000CBDE01507F0B01018F6F946F0001F9DE0E
:1013800001C0E5F0006AC0DE01503F0B01018F6F24
:10139000946F0001EEDE01C0E4F0939000009382B0
:1013A00081A2FED7040E006E002EFED700D00000F2
:1013B0009380040E006E002EFED7EA6A9D0EE96E41
:1013C00010D7080E0101036F120E046F12EF10F018
:1013D000985302E1000E01D0010E016EF3EF0BF005
:1013E000FE8FEF8FF6EF0BF001019751050804E136
:1013F000000E016E0BD00AD09751060804E1010ED1
:10140000016E04D003D0000E016E00D00001000C6C
:10141000010E986FC00EF212A082976B966B956BBF
:10142000946B97C093F096C092F095C091F094C0E1
:1014300090F0B36AB26AB1800101972D02D09D8409
:1014400001D0A080000115EF0CF08E51020802E0DF
:10145000000E01D0010E016E16EF0CF09051945D5C
:10146000006E91519559016E92519659026E9351A9
:101470009759036E21EF0CF09D94A090A0928C518F
:10148000080BD8B48292BA6A8CC0BAFF8D51080B8F
:10149000D8B48292BA6A8DC0BAFFFF0E8E6FB19037
:1014A0008F6B986B2AEF0CF001019A51016A995DDC
:1014B00003E299C100F00CD0006A080E9B6F9937C7
:1014C00000369A51005CD8B0006E01369B2FF7D7DA
:1014D0000001000C015097C199F1640E01019A6F4F
:1014E0000001E2DF00C097F10150300E08E1010178
:1014F00098A30FD098B70DD098B9200E04D0010151
:10150000989798999881012601C0A3F1000146DEC1
:10151000010197C199F10A0E9A6F0001C5DF00C061
:1015200097F10150300E08E1010198B70AD098A157
:1015300008D098B9200E0001012601C0A3F12EDECB
:101540000101300E972797C1A3F1000127DE000C9F
:101550000900F6CF98F1F7CF99F1F5CFA3F11EDE90
:1015600098C1F6FF99C1F7FF0101972F01D002D072
:101570000001EED70001B5EF0BF0006A016A026AC4
:10158000036A0101AB6BAC6BAD6BAE6BAA51A911D9
:10159000A811A7112CE0200EAF6FD890A337A43765
:1015A000A537A637AB37AC37AD37AE37AA51AE5DEE
:1015B00008E1A951AD5D05E1A851AC5D02E1A7517B
:1015C000AB5D0FE3A751AB5FA851D8A0A83DAC5FBE
:1015D000A951D8A0A93DAD5FAA51D8A0AA3DAE5F40
:1015E000D8800036013602360336AF2FD6D7010E2B
:1015F000EA6EAB0EE96E0001000CE95001019B6F31
:101600003B0EA26F9A0EA16FCA0EA06F9F6B0A0EBF
:101610009D6F9AC1A6F199C1A5F198C1A4F197C196
:10162000A3F1A2C1AAF1A1C1A9F1A0C1A8F19FC1D2
:10163000A7F10001A2DF0150EFCF97F1ECCF98F1B5
:10164000ECCF99F1ECCF9AF1005213E101019D51D9
:10165000010AD8A402D000010CD09B510CE00F0B62
:101660009D5D01E00FE29BBF0DD09BBD04D0200E1D
:1016700003D001019B6B300E002600C0A3F10001D6
:101680008DDD0101A2C1A6F1A1C1A5F1A0C1A4F106
:101690009FC1A3F1AA6BA96BA86B0A0EA76F0001EB
:1016A0006CDF03C0A2F102C0A1F101C0A0F100C033
:1016B0009FF101019D2FADD70001ECEF0BF00A0E59
:1016C0000101A36F00016ADD0D0E0101A36F00018E
:1016D00065DDE1C097F11B0E0101986F0001FADE94
:1016E0002F0E0101A36F000159DDE2C097F11B0E1F
:1016F0000101986F0001EEDE2F0E0101A36F0001C2
:101700004DDDE3C097F11B0E0101986F0001E2DE91
:10171000280E0101A36F000141DDE4C097F11B0E0B
:101720000101986F0001D6DE3A0E0101A36F00019E
:1017300035DDE5C097F11B0E0101986F0001CADE8F
:101740003A0E0101A36F000129DDE6C097F11B0EDF
:101750000101986F0001BEDE550EF66E100EF76E99
:10176000040E0101976F0001F3D6E7C097F11B0E3D
:101770000101986F0001AEDE200E0101A36F000190
:101780000DDD4E0E0101A36F000108DD3A0E0101CF
:10179000A36F000103DDE8C097F11B0E0101986FF4
:1017A000000198DE200E0101A36F0001F7DC560E48
:1017B0000101A36F0001F2DC3A0E0101A36F0001E9
:1017C000EDDC410EE96EECC09AF1EBC099F1EAC094
:1017D00098F1E9C097F111D732EF0CF0FE9FEF9F1F
:1017E00033EF0CF0F5D5015220E1FAD5992D0CD04C
:1017F000060E0101976F0001F7DD015202E0020EB3
:1018000001D0010E996F0ED0995102080BE1050E1F
:101810000101976F0001E8DD015202E0010E01D0E5
:10182000020E996F99C097F1F3D50FD6015208E1D6
:101830003E0E0101126F180E136F12EF10F000012F
:101840000DD603C0ECF002C0EBF001C0EAF000C01E
:10185000E9F012D6992D02D0050E01D0060EE76FE1
:10186000E82B2DD7BBD7E40E0101126F170E136FB3
:1018700012EF10F08F2BA19242EF00F08E51FF0873
:1018800008E19484BD6A040EBD6EB76AB66A8E6BB9
:1018900044D08E531CE1016A8FC0B2F10101B06BDC
:1018A000B16BBE50B0250001946FBF500101B12152
:1018B0000001956F000E0101B2210001966F000E2C
:1018C000010101200001976F010E8E6F26D08E2D31
:1018D00024D09D9497C093F096C092F095C091F05B
:1018E00094C090F0016A8FC0B2F10101B06BB16B8E
:1018F000BE50B0250001946FBF500101B12100011D
:10190000956F000E0101B2210001966F000E0101DA
:1019100001200001976F020E8E6F9E9442EF00F03F
:101920008E51FF0808E19484BD6A040EBD6EB76A4B
:10193000B66A8E6B44D08E531CE1016A8FC0B2F13F
:101940000101B06BB16BBB50B0250001946FBC506E
:101950000101B1210001956F000E0101B2210001CA
:10196000966F000E010101200001976F010E8E6F2E
:1019700026D08E2D24D0A09097C093F096C092F0E0
:1019800095C091F094C090F0016A8FC0B2F101014E
:10199000B06BB16BBB50B0250001946FBC5001011E
:1019A000B1210001956F000E0101B2210001966F77
:1019B000000E010101200001976F020E8E6FA190B1
:1019C00042EF00F00A0D4D703E2564000A0D4D6592
:1019D0006D496E663A2025782025782025782025C7
:1019E0007820257800000A0D3D3D257820257820B7
:1019F0002578202578006D6A696A080E6F6E94500C
:101A000030090101946E2B6A196AF2BE198EF29E9A
:101A10000001CFEC01F019BEF28E000CECDF42EFBA
:101A20000DF0196AF2BE198EF29ECFEC01F019BECC
:101A3000F28E6D6A140E6F6E696A6D86010E2B6EE2
:101A400028EF0DF0958683A604D06DB601D0E9D7B6
:101A500003D06DA601D0CFDF2B2C0BD06DBA09D0EF
:101A6000686A696AA08AC00EF212110E696E020ECF
:101A70002B6E43EF0DF02450016E47EF0DF0BEECDE
:101A800001F0CCD7DFD7958683A60AD0F4D70152D0
:101A900004E0010E016E06D003D0000E016E02D0EC
:101AA000FF0E016E3AEF0EF08BC0B1FFB190B36A3A
:101AB000B26A8C51080BD8B48294BD6A8CC0BDFF49
:101AC000B76AB66A8D51080BD8B48292BA6A8DC0D3
:101AD000BAFF94849482000E016E3DEF0EF08BC12C
:101AE0008CF101018D6B8C51090805E20A0E8C5FA7
:101AF000100E8D2703D08C518D2701D0F4D78DC1C6
:101B000001F00001FDEF0DF001018A6B9380040EDE
:101B1000006E002EFED79382040E006E002EFED7BC
:101B20008A909390040E006E002EFED78A929392B4
:101B3000D00E936F000149EC08F00101936B000196
:101B400049EC08F09380040E006E002EFED79382BD
:101B5000040E006E002EFED781A2FED78A909390CD
:101B6000040E006E002EFED78A929392D10E0101D0
:101B7000936F000149EC08F0006A84EC08F001C0A2
:101B80008BF101C094F1B9EC08F001C08AF1939097
:101B90000000938281A2FED7040E006E002EFED7B5
:101BA00000D000009380040E006E002EFED70101CD
:101BB0008A9F030E006E002EFED700D09380040E85
:101BC000006E002EFED79382040E006E002EFED70C
:101BD0008A909390040E006E002EFED78A92939204
:101BE000D00E936F000149EC08F00101936B0001E6
:101BF00049EC08F08AC18BF172D701C08BF101C0AA
:101C000093F149EC08F09380040E006E002EFED78D
:101C10009382040E006E002EFED781A2FED78A901A
:101C20009390040E006E002EFED78A929392D00EEF
:101C30000101936F000149EC08F0070E0101936F59
:101C4000000149EC08F089C193F149EC08F0939048
:101C50000000938281A2FED7040E006E002EFED7F4
:101C600000D000009380040E006E002EFED744EFDB
:101C70000EF005D701C09AF017D701C09AF0900E68
:101C80000101896F000140D7E36BE3C0E2F0E2C0DD
:101C9000E1F0E66BE6C0E5F0E5C0E4F0E86BE8C033
:101CA000E7F0EC6BEB6BEA6BE7C0E9F059EF0EF095
:101CB000E0D79698D190C69A949E93809392010E05
:101CC000C66E000EC76E880ED56ECD6A000ECA6E47
:101CD000000ECB6E070EB46E9250926E0D0E006E1B
:101CE000002EFED7B450A19CB56A000E966E936E7E
:101CF000830E946E4E0E956E8D9296928D80969078
:101D00008D84969494EF0FF0F86AD09E078EEA6A5D
:101D1000E96A2B6A2F6A826B896B8A6BFD0E8B6F67
:101D2000050E8C6F8D6FFF0E8E6F8F6B936B926BAA
:101D3000916B906B976B966B956B946B986B959082
:101D40008C808693010E996F9A6B9C6B9B6B010143
:101D50001C6BB886A00EAF6E010EB06EA60EAC6EF8
:101D6000900EAB6E0001869586978699869B010141
:101D70006D6B6E6B6F6B736B726B716B706B010E57
:101D8000856F800E866F400E876F150E886FC1506D
:101D9000C00B0F09C16E070EB46E030E1B6E1C6ADA
:101DA0001D6A1E6A276A040E286E0C0E296E0A0E22
:101DB00000019D6F0D0E9E6F6E0E9F6F6F0EA06FD8
:101DC000200EA16F730EA26F650EA36F200EA46F7D
:101DD000700EA56F750EA66F650EA76F640EA86FC7
:101DE000650EA96F200EAA6F670EAB6F750EAC6FF4
:101DF000610EAD6F720EAE6F640EAF6F610EB06F9D
:101E0000720EB16FB26B700EB36F720EB46F750E4F
:101E1000B56F650EB66F620EB76F610EB86FB96BB6
:101E20004C0E01011D6F750E1E6F6E0E1F6F650E3D
:101E3000206F730E216F226B236B246B256B266B37
:101E4000276B4D0E286F610E296F720E2A6F740E6C
:101E50002B6F650E2C6F730E2D6F2E6B2F6B306BEF
:101E6000316B326B4D0E336F690E346FE90E356F87
:101E7000720E366F630E376F6F0E386F6C0E396FE0
:101E8000650E3A6F730E3B6F3C6B3D6B4A0E3E6FB7
:101E9000750E3F6F650E406F760E416F650E426F97
:101EA000730E436F446B456B466B476B486B560E26
:101EB000496F690E4A6F650E4B6F720E4C6F6E0E56
:101EC0004D6F650E4E6F730E4F6F506B516B526BB3
:101ED000536B530E546FE10E556F620E566F610EC9
:101EE000576F640E586F6F0E596F5A6B5B6B5C6B5C
:101EF0005D6B5E6B440E5F6F6F0E606F6D0E616F9A
:101F0000690E626F6E0E636F670E646F6F0E656FA2
:101F1000666B676B6A6B6B6B6C6B746B756B766BFC
:101F2000776B786B0001C4D6EF6BF16B0A0EF06F24
:101F3000F36BF26BF96BF86BF76BF66BFF0EFB6FE5
:101F4000FA6FFD6BFC6B680EF46F100EF56FFE6B95
:101F50000101006B0A0E0001FF6F0101026B016BB2
:101F6000086B076B066B056BFF0E0A6F096F0C6B36
:101F70000B6B080E036F120E046F0D6B0F6B060ECA
:101F80000E6F116B106B176B166B156B146BFF0ECE
:101F9000196F186F1B6B1A6BE40E126F170E136F0D
:101FA0001A6A810ED56E0B0ED76EDC0ED66EF294C9
:101FB000810ED56E0B0ED76EDC0ED66EF2941C6AB7
:101FC000080E1B6ED8901A34006E00012FEC01F041
:101FD000026E010E00242FEC01F0036E03C0EAFF35
:101FE00002C0E9FFEFCF02F0E92AEFCF00F0ECCF1B
:101FF00001F0EC2AEFCF03F002E1EC2AED52EC50B5
:10200000015C5CE10050035C59E1ED52ED52EE6A77
:10201000EE6A02BE53D0EC52ECCFFAFFED52EFCF96
:10202000E8FFF96E0001D8901A34006E2FEC01F031
:10203000026E010E00242FEC01F0036E03C0EAFFD4
:1020400002C0E9FFF2A401D0EF88070EE926000ED6
:10205000EA22D650D7CF03F0240F016E0B0E03589F
:10206000026E0150EF260250EC20EF6E000EEC20C5
:10207000EF6E000EEC20EF6EED52ED52ED52EC5093
:10208000EC50EC50EC500250EC5C0AE304E1ED52F1
:102090000150EE5C05E3ED520150EF6E0250EC6E24
:1020A000EE52EC50025C0AE304E1ED520150EE5CAA
:1020B00005E2ED520150EF6E0250EC6E1A2A030E4B
:1020C0001A5CD8B402D001017DD71A6AD650D7CF96
:1020D00003F0F2A402D001016DD7F8D7FF0E1A6EFB
:0220E0000300FB
:020000040030CA
:0E0000003CCE3E1E008581000FC00FE00F4079
:00000001FF
;PIC18F4550
;CRC=D705  CREATED="28-Ene-14 11:39"
