:04000000FFEF0BF013
:08000800046ED8CF05F0E0CF33
:1000100006F00001E9CF0CF0EACF07F0E1CF08F0DD
:10002000E2CF09F0D9CF0AF0DACF0BF0F3CF12F01C
:10003000F4CF13F0FACF14F0F5CF15F0F6CF16F099
:10004000F7CF17F000C00EF001C00FF002C010F0A3
:1000500003C011F0A0A230EF00F0A1B2EFEF00F06A
:100060009DA436EF00F09EB4F3EF00F0A0A03CEFAB
:1000700000F0A1B030EF01F00EC000F00FC001F0B1
:1000800010C002F011C003F00CC0E9FF07C0EAFF86
:10009000078E08C0E1FF09C0E2FF0AC0D9FF0BC00C
:1000A000DAFF12C0F3FF13C0F4FF14C0FAFF15C04B
:1000B000F5FF16C0F6FF17C0F7FF045006C0E0FFBB
:1000C00005C0D8FF1000F36ED890F734F66EF746EF
:1000D000010EF716F60EF626000EF7220900F5506F
:1000E0000900F626F550F722F350F626000EF72207
:1000F0000900F55012000C000E001000120015004F
:1001000018001B004143430056454C005245560021
:100110004143434D0053454E50004343503100434B
:1001200043503200757362206572726F72203D25F4
:10013000640A0D0025752F25752F25752025753A24
:1001400025753A2575206D6F643A25732076616CAC
:100150003A254C64000025752F25752F257520251F
:10016000753A25753A2575206D6F643A25732076AA
:10017000616C3A254C64000025752F25752F257577
:100180002025753A25753A2575206D6F643A2573DB
:100190002076616C3A254C64000025752F25752F5B
:1001A00025752025753A25753A2575206D6F643AB9
:1001B00025732076616C3A254C75000025752F2536
:1001C000752F25752025753A25753A2575206D6F93
:1001D000643A25732076616C3A254C750000AB2B90
:1001E000A1923CEF00F0AA51FF0808E19484BD6A97
:1001F000040EBD6EB76AB66AAA6B2FD0AA5312E17D
:10020000016ACF6BD06BBE50CF25B06FBF50D021ED
:10021000B16F000EAB21B26F000E0120B36F010E63
:10022000AA6F1BD0AA2D19D0B3C0AFF0B2C0AEF0E8
:10023000B1C0ADF0B0C0ACF0016ACF6BD06BBE50B6
:10024000CF25B06FBF50D021B16F000EAB21B26F80
:10025000000E0120B36F020EAA6F9E943CEF00F0D7
:10026000AA51FF0808E19484BD6A040EBD6EB76A06
:10027000B66AAA6B2FD0AA5312E1016ACF6BD06B7A
:10028000BB50CF25B06FBC50D021B16F000EAB2159
:10029000B26F000E0120B36F010EAA6F1BD0AA2D02
:1002A00019D0B3C0AFF0B2C0AEF0B1C0ADF0B0C0C5
:1002B000ACF0016ACF6BD06BBB50CF25B06FBC5098
:1002C000D021B16F000EAB21B26F000E0120B36FD1
:1002D000020EAA6FA1903CEF00F0C150C00B0C09B8
:1002E000C16EC090C082C094C08EC280070E926E54
:1002F000000E016E59EF03F0A7C0B1FFB190B36AD1
:10030000B26AA851080BD8B48294BD6AA8C0BDFFD8
:10031000B76AB66AA951080BD8B48292BA6AA9C062
:10032000BAFF94849482000E016E5CEF03F0080E15
:10033000016E070E006E002EFED78A929392070E72
:10034000006E002EFED7B8378A90D8B09380D8A020
:100350009390938281A2FED7012EEBD7070E006EF9
:10036000002EFED78A92939200009380070E006EB3
:10037000002EFED7070E006E002EFED7938281A2BC
:10038000FED7016A070E006E002EFED781B00180F5
:100390008A9293928A909390000C080EB96F00C0D5
:1003A000BAF09380070E006E002EFED7938281A2D2
:1003B000FED781B0D88081A0D8900136070E006E9C
:1003C000002EFED793928A92B92FEBD79380070E17
:1003D000006E002EFED78A90BA51D8A493900000E8
:1003E000938281A2FED7070E006E002EFED78A925E
:1003F0009392070E006E002EFED78A909390000C09
:10040000B9C0BAF0D890BA33780EBA17BA31006EC4
:1004100000323F0E00160050BA25BB6FB9510F0BCA
:10042000BB25016E000CB7C0B8F0B96BB851090814
:1004300005E20A0EB85F100EB92703D0B851B927EC
:1004400001D0F4D7B9C001F092EF02F0B66BF29C84
:10045000F29EF2BEFDD79380070E006E002EFED7EF
:100460009382070E006E002EFED78A909390070E9F
:10047000006E002EFED78A929392D00EB86F57DF8F
:10048000B86B55DF9380070E006E002EFED7938267
:10049000070E006E002EFED781A2FED78A909390A1
:1004A000070E006E002EFED78A929392D10EB86F7F
:1004B0003EDF006A72DF01C0B7F001C0B9F0A0DF13
:1004C00001C0B6F093900000938281A2FED7070E80
:1004D000006E002EFED700D000009380070E006E45
:1004E000002EFED7B69F050E006E002EFED700D060
:1004F0009380070E006E002EFED79382070E006ECB
:10050000002EFED78A909390070E006E002EFED725
:100510008A929392D00EB86F0ADFB86B08DFB6C02C
:10052000B7F081D701C0B7F001C0B8F000DF938009
:10053000070E006E002EFED79382070E006E002E6F
:10054000FED781A2FED78A909390070E006E002EF0
:10055000FED78A929392D00EB86FE9DE070EB86F7D
:10056000E6DEB5C0B8F0E3DE93900000938281A28E
:10057000FED7070E006E002EFED700D0000093803D
:10058000070E006E002EFED7C00EF21261EF03F0D0
:100590000900F6CFB6F0F7CFB7F0F5509EA8FED71A
:1005A000AD6EB6C0F6FFB7C0F7FFB52FF1D77DEF40
:1005B00003F0BC51016ABB5D03E2BBC000F00CD08C
:1005C000006A080EBD6FBB370036BC51005CD8B066
:1005D000006E0136BD2FF7D7000C200EB6A9300EE5
:1005E000B76FB5C000F0B5AF07D0001E002A00C03D
:1005F000B5F02D0EB76FB68F0150B5C0BBF0640ECD
:10060000BC6FD7DF00C0B5F0300E0124B86FB5C0A5
:10061000BBF00A0EBC6FCDDF300E0024BA6F300E77
:100620000124B96FB7C000F0B6A702D0B6AFB69537
:10063000B6B90BD0B6AF22D0B6B520D000C0B8F056
:10064000B6B31CD000C0B9F019D0300EB85D16E1B9
:1006500000C0B8F0200EB76FB6A704D0B695B68329
:10066000B6AFB693300EB95D09E100C0B9F0200E07
:10067000B86FB6A7F7D7B693B6AFB691B6A504D004
:10068000B7519EA8FED7AD6EB6A304D0B8519EA8B0
:10069000FED7AD6EB6A104D0B9519EA8FED7AD6EFF
:1006A000BA519EA8FED7AD6E82EF03F0FF0EB46F75
:1006B00014D601C0B4F020D601C0B4F0100EB56F4E
:1006C000C5D69698D190800ED56ECD6A000ECA6EB2
:1006D000000ECB6E070EB46E9250926E130E006E2B
:1006E000002EFED700D0B450A19CB56A240EF66E41
:1006F000010EF76E0B0EB56F4BD7B4C0B5F01F0EE1
:10070000B66F6BD70A0E9EA8FED7AD6E0D0E9EA8D3
:10071000FED7AD6EBAEF0CF0B435006E0036FC0EAD
:100720000016C250C30B0010C26E130E006E002ED6
:10073000FED700D0C282B791C2A2B781B7A1FBD7C2
:10074000B6C003F0B5C0E9FFB6C0EAFFC2B2FED73B
:10075000C3CFEFFFC4CFECFF00D000D000D0000E1D
:10076000016E000C51C0EAFF50C0E9FFC2C0EFFFAC
:10077000E92AD8B4EA2AEF6A502AD8B4512A000CE0
:100780000150B4C0BBF0640EBC6F13DF00C0B4F006
:100790000150300E07E1B5A30CD0B5B70AD0B5B9FA
:1007A000200E03D0B597B599B581012601C0C2F0DE
:1007B000D9DFB4C0BBF00A0EBC6FFBDE00C0B4F0E2
:1007C0000150300E06E1B5B708D0B5A106D0B5B9D5
:1007D000200E012601C0C2F0C5DF300EB427B4C020
:1007E000C2F0C0DF000C0900F6CFB7F0F7CFB8F0C9
:1007F000F5CFC2F0B7DFB7C0F6FFB8C0F7FFB62F2E
:10080000F2D7000CEACFBEF0E9CFBDF0B7AF08D009
:10081000BD8FBDA9BD2BB61FB71FB62BD8B4B72B44
:10082000B739F009B96FB927E20FBA6F320FBC6F51
:10083000B7510F0BBA27BA27BC27E90FBB6FBB27ED
:10084000BB27B6390F0BBB27BC27BB37BC37BC1F38
:10085000BC37B6510F0BBC27B937070EB86F0A0E5D
:10086000BB07BC27FDE3BA07BB27FDE3B907BA27DF
:10087000FDE3B807B927FDE3EA6AB80EE96E070E93
:10088000BD15BD9DE906BD1507E1BDB9E92ABDB994
:1008900003D0200E006E1CD0E926BC0EE95CD8B453
:1008A000BD8DEF50006E08E1BDBD06D0BDB91BD0B7
:1008B000BDB702D0200E0BD0BDAF06D02D0E006EFE
:1008C000ED50BD9DBD9F04D0BD87BD99300E002663
:1008D000EACFB7F0E9CFB6F000C0C2F043DFB7C04F
:1008E000EAFFB6C0E9FFEE50BDADD7D7000CEF521E
:1008F00010E0EACFB5F0E9CFB4F0EF509EA8FED7F4
:10090000AD6EB5C0EAFFB4C0E9FFE92AD8B4EA2A5F
:10091000EED7000CF29CF29EF2BEFDD79380070E3C
:10092000006E002EFED79382070E006E002EFED7BB
:100930008A909390070E006E002EFED78A929392B3
:10094000D00EB86FF4DCB86BF2DC9380070E006E4B
:10095000002EFED79382070E006E002EFED781A2D6
:10096000FED78A909390070E006E002EFED78A92D3
:100970009392D10EB86FDBDC010E006E0EDD0150DC
:100980007F0BB46FB96F3CDD01C01DF0010E006E2E
:1009900004DD01507F0BB46FB96F32DD01C01CF074
:1009A000006AFBDC01503F0BB46FB96F29DD01C059
:1009B0001BF093900000938281A2FED7070E006E79
:1009C000002EFED700D000009380070E006E002E90
:1009D000FED7C00EF212F29CF29EF2BEFDD79380BB
:1009E000070E006E002EFED79382070E006E002EBB
:1009F000FED78A909390070E006E002EFED78A9243
:100A00009392D00EB86F93DC030EB86F90DC938096
:100A1000070E006E002EFED79382070E006E002E8A
:100A2000FED781A2FED78A909390070E006E002E0B
:100A3000FED78A929392D10EB86F79DC010E006EC8
:100A4000ACDC01507F0BB46FB96FDADC01C021F070
:100A5000010E006EA2DC01503F0BB46FB96FD0DC09
:100A600001C01EF0010E006E98DC01501F0BB46F28
:100A7000B96FC6DC01C01FF0006A8FDC01C0B4F0A2
:100A800001C0B9F0BDDC01C020F09390000093825A
:100A900081A2FED7070E006E002EFED700D0000008
:100AA0009380070E006E002EFED7C00EF212010ECC
:100AB000B46FB66B220EB56F2FDE516A280E506EE2
:100AC0001EC0B4F01B0EB56F5BDE2F0EC26F4ADE88
:100AD0001FC0B4F01B0EB56F53DE2F0EC26F42DE87
:100AE00020C0B4F01B0EB56F4BDE200EC26F3ADE95
:100AF0001BC0B4F01B0EB56F43DE3A0EC26F32DE80
:100B00001CC0B4F01B0EB56F3BDE3A0EC26F2ADE7E
:100B10001DC0B4F01B0EB56F33DE450EF66E010E30
:100B2000F76E050EB66F5FDEB56BB46BB5C0F7FF41
:100B3000B45163EC00F0000906E0B42BD8B4B52B37
:100B4000C26F10DEF3D74C0EF66E010EF76E050E77
:100B5000B66F49DE100EE96E23C0B7F022C0B6F0C2
:100B600051DEEA6A280EE96EC2DE0A0E9EA8FED7A2
:100B7000AD6E0D0E9EA8FED7AD6EBCEF0CF0F29CD4
:100B8000F29EF2BEFDD79380070E006E002EFED7B8
:100B90009382070E006E002EFED78A909390070E68
:100BA000006E002EFED78A929392D00EB86F97EC0B
:100BB00001F0B86B97EC01F09380070E006E002EE9
:100BC000FED79382070E006E002EFED781A2FED7BD
:100BD0008A909390070E006E002EFED78A92939211
:100BE000D10EB86F97EC01F0010E006ECDEC01F064
:100BF00001507F0BB46FB96F03DC01C01DF0010E13
:100C0000006ECDEC01F001507F0BB46FB96F00ECBA
:100C100002F001C01CF0006ACDEC01F001503F0B66
:100C2000B46FB96F00EC02F001C01BF093900000AC
:100C3000938281A2FED7070E006E002EFED700D051
:100C400000009380070E006E002EFED7C00EF21239
:100C5000F29CF29EF2BEFDD79380070E006E002E2E
:100C6000FED79382070E006E002EFED78A909390D7
:100C7000070E006E002EFED78A929392D00EB86FA8
:100C800097EC01F0030EB86F97EC01F09380070E1C
:100C9000006E002EFED79382070E006E002EFED748
:100CA00081A2FED78A909390070E006E002EFED789
:100CB0008A929392D10EB86F97EC01F0010E006EFC
:100CC000CDEC01F001507F0BB46FB96F00EC02F076
:100CD00001C021F0010E006ECDEC01F001503F0B80
:100CE000B46FB96F00EC02F001C01EF0010E006E8F
:100CF000CDEC01F001501F0BB46FB96F00EC02F0A6
:100D000001C01FF0006ACDEC01F001C0B4F001C0D9
:100D1000B9F000EC02F001C020F093900000938243
:100D200081A2FED7070E006E002EFED700D0000075
:100D30009380070E006E002EFED7C00EF212B46B29
:100D4000B66B220EB56FE8DC516A280E506E1EC0DD
:100D5000B4F01B0EB56F14DD2F0EC26F03DD1FC084
:100D6000B4F01B0EB56F0CDD2F0EC26FFBDC20C084
:100D7000B4F01B0EB56F04DD200EC26FF3DC1BC098
:100D8000B4F01B0EB56FFCDC3A0EC26FEBDC1CC07E
:100D9000B4F01B0EB56FF4DC3A0EC26FE3DC1DC07D
:100DA000B4F01B0EB56FECDC670EF66E010EF76E3D
:100DB000050EB66F18DD010EB56FB46BB5C0F7FF49
:100DC000B45163EC00F0000906E0B42BD8B4B52BA5
:100DD000C26FC8DCF3D76E0EF66E010EF76E050E0D
:100DE000B66F01DD100EE96E23C0B7F022C0B6F079
:100DF00009DDEA6A280EE96E7ADD0A0E9EA8FED7A2
:100E0000AD6E0D0E9EA8FED7AD6EBEEF0CF0F29C3F
:100E1000F29EF2BEFDD79380070E006E002EFED725
:100E20009382070E006E002EFED78A909390070ED5
:100E3000006E002EFED78A929392D00EB86F97EC78
:100E400001F0B86B97EC01F09380070E006E002E56
:100E5000FED79382070E006E002EFED781A2FED72A
:100E60008A909390070E006E002EFED78A9293927E
:100E7000D10EB86F97EC01F0010E006ECDEC01F0D1
:100E800001507F0BB46FB96F00EC02F001C01DF090
:100E9000010E006ECDEC01F001507F0BB46FB96F05
:100EA00000EC02F001C01CF0006ACDEC01F0015032
:100EB0003F0BB46FB96F00EC02F001C01BF09390D0
:100EC0000000938281A2FED7070E006E002EFED78F
:100ED00000D000009380070E006E002EFED7C00EDB
:100EE000F212F29CF29EF2BEFDD79380070E006EC6
:100EF000002EFED79382070E006E002EFED78A903A
:100F00009390070E006E002EFED78A929392D00E19
:100F1000B86F97EC01F0030EB86F97EC01F0938077
:100F2000070E006E002EFED79382070E006E002E75
:100F3000FED781A2FED78A909390070E006E002EF6
:100F4000FED78A929392D10EB86F97EC01F0010E02
:100F5000006ECDEC01F001507F0BB46FB96F00EC67
:100F600002F001C021F0010E006ECDEC01F0015045
:100F70003F0BB46FB96F00EC02F001C01EF0010E20
:100F8000006ECDEC01F001501F0BB46FB96F00EC97
:100F900002F001C01FF0006ACDEC01F001C0B4F016
:100FA00001C0B9F000EC02F001C020F09390000005
:100FB000938281A2FED7070E006E002EFED700D0CE
:100FC00000009380070E006E002EFED7C00EF212B6
:100FD000020EB46FB66B220EB56F8CEC03F0516A43
:100FE000280E506E1EC0B4F01B0EB56FC0EC03F09F
:100FF0002F0EC26FB2EC03F01FC0B4F01B0EB56F22
:10100000C0EC03F02F0EC26FB2EC03F020C0B4F0BE
:101010001B0EB56FC0EC03F0200EC26FB2EC03F0F4
:101020001BC0B4F01B0EB56FC0EC03F03A0EC26FDC
:10103000B2EC03F01CC0B4F01B0EB56FC0EC03F0B3
:101040003A0EC26FB2EC03F01DC0B4F01B0EB56FC8
:10105000C0EC03F0890EF66E010EF76E050EB66F4A
:10106000F3EC03F0020EB56FB46BB5C0F7FFB451EB
:1010700063EC00F0000907E0B42BD8B4B52BC26FC5
:10108000B2EC03F0F2D7900EF66E010EF76E050E7D
:10109000B66FF3EC03F0100EE96E23C0B7F022C078
:1010A000B6F002EC04F0EA6A280EE96E20DC0A0EC3
:1010B0009EA8FED7AD6E0D0E9EA8FED7AD6EC0EFFA
:1010C0000CF0C00EF212A082B36AB26AB180B42DE5
:1010D00002D09D8401D0A080AA51020801E0FCD773
:1010E0009D94A090A851080BD8B48292BA6AA8C067
:1010F000BAFFA951080BD8B48292BA6AA9C0BAFF44
:10110000FF0EAA6FB190AB6BB5C0E9FFB6C0EAFFA6
:10111000AC51B05D006EAD51B159016EAE51B259D6
:10112000026EAF51B35900C0EFFF01C0ECFF02C027
:10113000ECFFEC6E000E016E000C006A016A026AA0
:10114000036ACA6BCB6BCC6BCD6BC951C811C7118D
:10115000C6112CE0200ECE6FD890C237C337C437EB
:10116000C537CA37CB37CC37CD37C951CD5D08E14C
:10117000C851CC5D05E1C751CB5D02E1C651CA5DE6
:101180000FE3C651CA5FC751D8A0C73DCB5FC85156
:10119000D8A0C83DCC5FC951D8A0C93DCD5FD8808B
:1011A0000036013602360336CE2FD6D7EA6ACA0E8B
:1011B000E96E000CE950BA6F3B0EC16F9A0EC06F1A
:1011C000CA0EBF6FBE6B0A0EBC6FB9C0C5F0B8C007
:1011D000C4F0B7C0C3F0B6C0C2F0C1C0C9F0C0C04F
:1011E000C8F0BFC0C7F0BEC0C6F0A7DF0150EFCF48
:1011F000B6F0ECCFB7F0ECCFB8F0ECCFB9F00052CE
:101200000FE1BC51010A0CE0BA510BE00F0BBC5DC1
:1012100001E00DE2BABF0BD0BABD03D0200E02D060
:10122000BA6B300E002600C0C2F0B2EC03F0C1C0B1
:10123000C5F0C0C0C4F0BFC0C3F0BEC0C2F0C96B2F
:10124000C86BC76B0A0EC66F78DF03C0C1F002C05F
:10125000C0F001C0BFF000C0BEF0BC2FB6D7000C7C
:10126000F29CF29EF2BEFDD79380070E006E002E18
:10127000FED79382070E006E002EFED78A909390C1
:10128000070E006E002EFED78A929392D00EB86F92
:1012900097EC01F0B86B97EC01F09380070E006EAD
:1012A000002EFED79382070E006E002EFED781A27D
:1012B000FED78A909390070E006E002EFED78A927A
:1012C0009392D10EB86F97EC01F0010E006ECDEC49
:1012D00001F001507F0BB46FB96F00EC02F001C058
:1012E0001DF0010E006ECDEC01F001507F0BB46FCC
:1012F000B96F00EC02F001C01CF0006ACDEC01F007
:1013000001503F0BB46FB96F00EC02F001C01BF04D
:1013100093900000938281A2FED7070E006E002EEC
:10132000FED700D000009380070E006E002EFED77F
:10133000C00EF212F29CF29EF2BEFDD79380070E11
:10134000006E002EFED79382070E006E002EFED791
:101350008A909390070E006E002EFED78A92939289
:10136000D00EB86F97EC01F0030EB86F97EC01F058
:101370009380070E006E002EFED79382070E006E3C
:10138000002EFED781A2FED78A909390070E006EA2
:10139000002EFED78A929392D10EB86F97EC01F08F
:1013A000010E006ECDEC01F001507F0BB46FB96FF0
:1013B00000EC02F001C021F0010E006ECDEC01F056
:1013C00001503F0BB46FB96F00EC02F001C01EF08A
:1013D000010E006ECDEC01F001501F0BB46FB96F20
:1013E00000EC02F001C01FF0006ACDEC01F001C07A
:1013F000B4F001C0B9F000EC02F001C020F093900D
:101400000000938281A2FED7070E006E002EFED749
:1014100000D000009380070E006E002EFED7C00E95
:10142000F212010EB46FB66B240EB56F4ADE516A2C
:10143000280E506E1EC0B4F01B0EB56FC0EC03F04A
:101440002F0EC26FB2EC03F01FC0B4F01B0EB56FCD
:10145000C0EC03F02F0EC26FB2EC03F020C0B4F06A
:101460001B0EB56FC0EC03F0200EC26FB2EC03F0A0
:101470001BC0B4F01B0EB56FC0EC03F03A0EC26F88
:10148000B2EC03F01CC0B4F01B0EB56FC0EC03F05F
:101490003A0EC26FB2EC03F01DC0B4F01B0EB56F74
:1014A000C0EC03F0AB0EF66E010EF76E050EB66FD4
:1014B000F3EC03F0050EB56FB46BB5C0F7FFB45194
:1014C00063EC00F0000907E0B42BD8B4B52BC26F71
:1014D000B2EC03F0F2D7B20EF66E010EF76E050E07
:1014E000B66FF3EC03F0410EE96E27C0B9F026C0E9
:1014F000B8F025C0B7F024C0B6F05CDEEA6A280E6A
:10150000E96E77EC04F00A0E9EA8FED7AD6E0D0EC4
:101510009EA8FED7AD6EC1EF0CF0F29CF29EF2BE1B
:10152000FDD79380070E006E002EFED79382070E24
:10153000006E002EFED78A909390070E006E002E4C
:10154000FED78A929392D00EB86F97EC01F0B86BE9
:1015500097EC01F09380070E006E002EFED7938269
:10156000070E006E002EFED781A2FED78A909390C0
:10157000070E006E002EFED78A929392D10EB86F9E
:1015800097EC01F0010E006ECDEC01F001507F0BE5
:10159000B46FB96F00EC02F001C01DF0010E006ED7
:1015A000CDEC01F001507F0BB46FB96F00EC02F08D
:1015B00001C01CF0006ACDEC01F001503F0BB46F8C
:1015C000B96F00EC02F001C01BF093900000938211
:1015D00081A2FED7070E006E002EFED700D00000BD
:1015E0009380070E006E002EFED7C00EF212F29C02
:1015F000F29EF2BEFDD79380070E006E002EFED73E
:101600009382070E006E002EFED78A909390070EED
:10161000006E002EFED78A929392D00EB86F97EC90
:1016200001F0030EB86F97EC01F09380070E006E87
:10163000002EFED79382070E006E002EFED781A2E9
:10164000FED78A909390070E006E002EFED78A92E6
:101650009392D10EB86F97EC01F0010E006ECDECB5
:1016600001F001507F0BB46FB96F00EC02F001C0C4
:1016700021F0010E006ECDEC01F001503F0BB46F74
:10168000B96F00EC02F001C01EF0010E006ECDEC4F
:1016900001F001501F0BB46FB96F00EC02F001C0F4
:1016A0001FF0006ACDEC01F001C0B4F001C0B9F048
:1016B00000EC02F001C020F093900000938281A220
:1016C000FED7070E006E002EFED700D000009380DC
:1016D000070E006E002EFED7C00EF212010EB46F80
:1016E000B66B240EB56FEDDC516A280E506E1EC02D
:1016F000B4F01B0EB56FC0EC03F02F0EC26FB2EC4E
:1017000003F01FC0B4F01B0EB56FC0EC03F02F0E3A
:10171000C26FB2EC03F020C0B4F01B0EB56FC0EC8A
:1017200003F0200EC26FB2EC03F01BC0B4F01B0E2E
:10173000B56FC0EC03F03A0EC26FB2EC03F01CC000
:10174000B4F01B0EB56FC0EC03F03A0EC26FB2ECF2
:1017500003F01DC0B4F01B0EB56FC0EC03F0CD0E4E
:10176000F66E010EF76E050EB66FF3EC03F0060E83
:10177000B56FB46BB5C0F7FFB45163EC00F000096E
:1017800007E0B42BD8B4B52BC26FB2EC03F0F2D79C
:10179000D40EF66E010EF76E050EB66FF3EC03F085
:1017A000410EE96E27C0B9F026C0B8F025C0B7F0E9
:1017B00024C0B6F0FFDCEA6A280EE96E77EC04F08C
:1017C0000A0E9EA8FED7AD6E0D0E9EA8FED7AD6E7A
:1017D000C2EF0CF0EA6AB50EE96EEF500EE0070EAC
:1017E000016E006A002EFED7012EFBD7C70E006ED9
:1017F000002EFED70000EF2EF2D7C7EF0CF0F86AEC
:10180000D09E078EEA6AE96AB886700EAF6E020E45
:10181000B06EA60EAC6E900EAB6E1B6A1C6A1D6A93
:101820001E6A1F6A206A216AB886700EAF6E020EA9
:10183000B06EA60EAC6E900EAB6ECD0EA76F050E01
:10184000A86FA96FFF0EAA6FAB6BAF6BAE6BAD6BE2
:10185000AC6BB36BB26BB16BB06BC150C00B0F090B
:10186000C16E070EB46E196A1A6A506A516A526ADA
:10187000536A4C0E546E750E556E6E0E566E650E96
:10188000576E730E586E596A5A6A5B6A5C6A5D6A73
:101890005E6A4D0E5F6E610E606F720E616F740E48
:1018A000626F650E636F730E646F656B666B676B5B
:1018B000686B696B4D0E6A6F690E6B6FE90E6C6F2A
:1018C000720E6D6F630E6E6F6F0E6F6F6C0E706FBA
:1018D000650E716F730E726F736B746B4A0E756F5A
:1018E000750E766F650E776F760E786F650E796F71
:1018F000730E7A6F7B6B7C6B7D6B7E6B7F6B560E92
:10190000806F690E816F650E826F720E836F6E0E2F
:10191000846F650E856F730E866F876B886B896B1E
:101920008A6B530E8B6FE10E8C6F620E8D6F610EA2
:101930008E6F640E8F6F6F0E906F916B926B936BC7
:10194000946B956B440E966F6F0E976F6D0E986F3C
:10195000690E996F6E0E9A6F670E9B6F6F0E9C6F7C
:101960009D6B9E6BA16BA26BA36BA46BA56BA66B0F
:1019700056EF03F08AEF04F0BFEF05F007EF07F032
:101980006FD4CBD5020EB46FFA0EB56F23D7B42F38
:06199000FBD7F0D70300B5
:020000040030CA
:0E0000003FCE390E008781000FC00FE00F4089
:00000001FF
;PIC18F4550
;CRC=8001  CREATED="21-Dic-12 08:39"
