:10000000F8EF0FF06896000C046ED8CF05F0E0CF43
:1000100006F00001E9CF0CF0EACF07F0E1CF08F0DD
:10002000E2CF09F0D9CF0AF0DACF0BF0F3CF12F01C
:10003000F4CF13F0FACF14F0F5CF15F0F6CF16F099
:10004000F7CF17F000C00EF001C00FF002C010F0A3
:1000500003C011F0A0AA30EF00F0A1BAC6EF07F07C
:100060000EC000F00FC001F010C002F011C003F08C
:100070000CC0E9FF07C0EAFF078E08C0E1FF09C016
:10008000E2FF0AC0D9FF0BC0DAFF12C0F3FF13C0B2
:10009000F4FF14C0FAFF15C0F5FF16C0F6FF17C035
:1000A000F7FF045006C0E0FF05C0D8FF1000F76A54
:1000B000BE0FF66E000EF7220900F5501200000385
:1000C00002FFFFFFFFFFFFFFFFFFFFFFFFFFF76ADA
:1000D000DE0FF66E000EF7220900F550120000FF49
:1000E00002FFFFFFFFFFFFFFFFFFFFFFFFFFF76ABA
:1000F000FE0FF66E000EF7220900F5501200080000
:1001000008004000000000000000000000000000A7
:100110000000000000000000000000000000F76A7E
:100120002E0FF66E010EF7220900F550120008009E
:10013000000040000000000000000000000000007F
:100140000000000000000000000000000000F76A4E
:100150005E0FF66E010EF7220900F550120009023B
:100160004300020100C03209040000010202010044
:1001700005240010010424020205240600010524C0
:10018000010001070581030800FA09040100020AC1
:10019000000000070502024000010705820240003E
:1001A000FA00F76AB20FF66E010EF7220900F55059
:1001B00012000200F76AC40FF66E010EF722090062
:1001C000F5501200120017001B002000FFFFFFFF78
:1001D000FFFFFFFFF76AE40FF66E010EF72209003A
:1001E000F55012001201100102000008D8040B00A3
:1001F000000101020001F76A060FF66E020EF722F7
:100200000900F550120004030904080343004300E9
:10021000530028035500530042005F0043006F0065
:100220006E00740072006F006C005F004400650097
:1002300076006900630065007300F76A4A0FF66E86
:10024000020EF7220900F550120000006D92699429
:1002500068A402D06894FCD7D2EF07F0080E04011E
:10026000016F040E036F180E026F880E006F046B8F
:10027000040E076F200E066F0001000C70A002D064
:10028000EDDF7090689ADBEF07F06A6A6892E1EF41
:1002900007F001011B911ABF1B811A9F1A51100808
:1002A00003E2000E016E1BD01BA10DD0036A1A5190
:1002B0000001FDDEFF0802E1000E01D0010E016E1B
:1002C00001010DD00CD0036A1A51000100DFFF08B4
:1002D00002E1000E01D0010E016E010100D000010B
:1002E000000C036A01011951700FE96E0F0E032013
:1002F000EA6EEF6A19C11AF10001CBDF015219E071
:1003000001011951080DF3501B6BE96E040E1B25FA
:10031000EA6EEF6A1951080DF3501B6B1A6F040E49
:100320001A27000E1B231AC1E9FF040E1B25EA6ED3
:10033000EF6A0001000C010E0101186F18510F083F
:1003400007E318C119F10001CCDF0101182BF6D722
:100350000001000C326A316A250E306E800E2F6E5D
:10036000336A346A080E356E846B8391376A366A55
:100370007F6B8091000C01010E6B0E5101080AE3A6
:10038000036A0E512D0FE96E000E0320EA6EEF6A2C
:100390000E2BF3D70001DEDF216A010E226E206AE8
:1003A000000C6A6A686A9F0E6B6E3D0E696E6E6A1B
:1003B000C2DFE1DF160E706E68A602D023DEFCD726
:1003C0006D984CDF030E286EE7EF07F0698468989C
:1003D0006D82EDEF07F0689CF3EF07F013C129F091
:1003E000000CFF0E296E000C0101116B2C522CE049
:1003F0001151070829E32350000A000105E0020A11
:1004000009E0010A0DE012D0036A2B50A0DEE8CF0C
:1004100012F10CD0036A2B50EEDEE8CF12F106D0B9
:10042000036A2B50D7DEE8CF12F100D02B2A2C061E
:1004300001011151112B036A200FE96E040E0320F4
:10044000EA6E12C1EFFFD2D72C5204E11151080815
:1004500001E0206A11C113F10001C0DF000C2B6A1A
:10046000236A04011B51010A000107E0030A0AE0A4
:10047000010A0BE0220A1BE02FD0120E2C6E030E95
:10048000236E2CD0430E2C6E29D0020E236E036AED
:1004900004011A51240FE96E000E0320EA6EEFCF1B
:1004A0002BF0036A2B500001A6DE2C6E17D0D890DB
:1004B00004011A35036A00017DDE0900F5CF03F05F
:1004C0002B6E2B3C01D006D0036A2B5040DE2C6EE5
:1004D00005D002D086DF0ED084DF0CD004011F537C
:1004E00005E12C501E5D02E21EC42CF0010E206EB0
:1004F00000017ADFA6EF03F00101105306E1040EBC
:10050000286E000118DFC5D00101050E286E040E0B
:10051000136F280E126F010E116F11510F08D8A022
:10052000B8D011C119F10001DCDE0101146B036ABE
:1005300011510001CCDDFF0853E0040E0101146FDE
:10054000D8901135036A0001EADD0900F5CF03F008
:100550000101156F03C016F11151080DF350196B0D
:10056000186F010E1825016E000E1921036E01C0CF
:10057000E9FF040E0324EA6E15C1EFFF1151080DC7
:10058000F350196B186F020E1825016E000E192119
:10059000036E01C0E9FF040E0324EA6E13C1ECFFF1
:1005A000ED5212C1EFFFD8901135036A0001B7DD9B
:1005B0000900F5CF03F00101122703501323880E21
:1005C000176F16B1178116B317831151080DF35029
:1005D000196BE96E040E1925EA6E17C1EFFF0001D1
:1005E000036A01011151000162DDFF0837E00101DA
:1005F00014831151080DF350196B186F040E18274E
:10060000000E1923020E1825016E000E1921036E2B
:1006100001C0E9FF040E0324EA6E13C1ECFFED52A2
:1006200012C1EFFFD8901135036A000160DD0900A7
:10063000F5CF03F001011227035013231151080DC8
:10064000F350196B186F040E1827000E192318C1E8
:10065000E9FF040E1925EA6E400EEF6E01011451F8
:10066000060802E10E0E146F036A115100011FDD2E
:10067000010803E0010114890001036A010111511D
:10068000700FE96E0F0E0320EA6E14C1EFFF112BFD
:1006900044D700019EEF03F004011951000A000144
:1006A0000DE0010A15E0020A20E0060A2AE0030A2A
:1006B00031E00E0A31E0010A37E046D022C020F4D2
:1006C0000401216B020E0101136F000187DE3ED091
:1006D00004011A2D07D0010E22160101136B00012F
:1006E0007DDE02D000017DDE31D004011A2D06D05E
:1006F00022820101136B000171DE02D0000171DE64
:1007000025D0020E206E1AC42AF00101136B0001DD
:1007100065DE1CD0A4D61AD021C020F4010E010140
:10072000136F00015BDE12D004011A5101080AE3C5
:100730001AC421F01AC410F10001DED60101136BB6
:1007400000014CDE000102D04CDE00D015EF05F0B8
:1007500021C010F104011951000A000105E00A0A44
:100760000CE0010A2BE03FD00401206B216B020E4C
:100770000101136F000132DE38D0010110531BE07C
:10078000010E105D036A00010CDD016E04011C5DA9
:10079000D8A002D001010FD0036A1C512D0FE96EC1
:1007A000000E0320EA6EEFCF20F4010E0101136F5B
:1007B000000114DE02D0000114DE17D00101105335
:1007C0000FE0036A04011C512D0FE96E000E032097
:1007D000EA6E1AC4EFFF0101136B0001FFDD02D0C6
:1007E0000001FFDD02D0FDDD00D015EF05F00101B5
:1007F000119110BF1181109F11A111D01051080D3E
:10080000F350136B126F040E1227000E132312C144
:10081000E9FF040E1325EA6E880EEF6E09D0105121
:10082000080DF350136BE96E040E1325EA6EEF6AA0
:1008300000017FEF04F00101119110BF1181109FA1
:1008400011A111D01051080DF350136B126F040E4B
:100850001227000E132312C1E9FF040E1325EA6EBE
:10086000840EEF6E0AD01051080DF350136BE96E31
:10087000040E1325EA6E840EEF6E000187EF04F07C
:100880000101119110BF1181109F11A111D01051C0
:10089000080DF350146B136F040E1327000E14236E
:1008A00013C1E9FF040E1425EA6EEFCF12F10AD04E
:1008B0001051080DF350146BE96E040E1425EA6E06
:1008C000EFCF12F112AF02D012B502D0000E01D05C
:1008D000010E016E000193EF04F01CC41AF1D9DC83
:1008E00001522EE004011951010A000105E0020A3B
:1008F0000BE0030A11E022D01CC410F178D70101EB
:10090000136B00016BDD1CD01CC410F194D70101E6
:10091000136B000163DD14D00401206B216B1CC438
:1009200010F10001ADD7015203E0010E0401206F68
:10093000020E0101136F000151DD02D052DD00D023
:1009400015EF05F0FE0E296E000C04011C2D01D0E0
:1009500002D01C534FE11951000A00010BE0010ABB
:100960000DE0210A1CE0010A1FE0030A30E0010A41
:1009700035E03DD0010E866FE5DF3BD0040EEA6E18
:10098000200EE96EE26A380EE16E080E016EE6CFC7
:10099000EEFF012EFCD71EC413F120DD2AD0020E7B
:1009A000866F8381CFDF25D0040EEA6E200EE96EBC
:1009B000E26A2F0EE16E070E016EE6CFEEFF012E0A
:1009C000FCD7070E0101136F000108DD12D01AC415
:1009D00084F00101136B000101DD0BD01AC437F064
:1009E0001BC436F00101136B0001F8DC02D0F9DC06
:1009F00000D00401000115EF05F0206A0401185130
:100A00007F0B000A000107E0010A07E0030A07E084
:100A1000230A07E008D040D608D09AD606D05DD782
:100A200004D093D702D0DDDC00D025EF07F0010120
:100A30001151080DF350176BE96E040E1725EA6E7D
:100A4000EFCF13F11251020806E113AD02D0126B81
:100A500002D0010E126F1251030813E1840E136FBE
:100A60001151080DF350176B166F040E1627000E68
:100A7000172316C1E9FF040E1725EA6E840EEF6EE8
:100A800007D0122D03D0C80E136F02D0880E136F3B
:100A9000D8901135036A00018FEC00F00900F5CF02
:100AA00003F00101146F03C015F11151080DF3504B
:100AB000176B166F010E1625016E000E1721036EBF
:100AC00001C0E9FF040E0324EA6E14C1EFFF15B163
:100AD000138115B313831151080DF350176BE96E91
:100AE000040E1725EA6E13C1EFFF0001000C036A24
:100AF00001011E51700FE96E0F0E0320EA6EEF52D6
:100B000012E01E51080DF350206B1F6F040E1F27BB
:100B1000000E20231FC1E9FF040E2025EA6EEFCF4F
:100B20001FF11FAF02D0000E01D0010E016E0001B7
:100B3000000C19C11EF1DBDF015264E00101195103
:100B4000080DF3501F6B1E6F040E1E27000E1F238F
:100B5000010E1E25016E000E1F21036E01C0E9FF6C
:100B6000040E0324EA6E1AC1EFFF1C51020817E1BC
:100B70001951080DF3501F6B1E6F040E1E27000E37
:100B80001F231EC1E9FF040E1F25EA6EEFCF1DF1E2
:100B90001DAD02D01C6B02D0010E1C6F13D01C5176
:100BA000040810E11951080DF3501F6BE96E040E93
:100BB0001F25EA6EEFCF1DF11DAD03D0010E1C6F96
:100BC00001D01C6B1C2D03D0C80E1D6F02D0880EE7
:100BD0001D6F1BB11D811BB31D831951080DF350EF
:100BE0001F6B1E6F040E1E27000E1F231EC1E9FF80
:100BF000040E1F25EA6E1DC1EFFF010E016E05D028
:100C000000D00001000E016E01010001000C8651B0
:100C1000010A05E0020A14E0010A19E02CD0EA6A90
:100C2000380EE96E040EE26E180EE16E080E016ECB
:100C3000E6CFEEFF012EFCD7030E866F83DE1DD0BC
:100C40000101136B0001EEEC01F0866B16D0EA6A2D
:100C50002F0EE96E040EE26E180EE16E070E016EA5
:100C6000E6CFEEFF012EFCD7866B0101136B00016E
:100C7000EEEC01F002D0866B00D073EF06F00101BC
:100C80001151080DF350136B126F010E1225016EF6
:100C9000000E1321036E01C0E9FF040E0324EA6E67
:100CA000036AEFCF01F003C002F0000167EF06F026
:100CB0008091020E0101116F126F0001B8DE000C6D
:100CC0008081826B020E0101116F0001D8D701C033
:100CD00081F0815301E1ECDF7AEF06F0010110535E
:100CE00004E1000194D706D001011051020803E18C
:100CF0000001E6D701010001000C11C16EFF0101E6
:100D0000115303E0040E286E02D0020E286E00017B
:100D10008FEF06F0216A206A2AC011F1EED7FFEFAB
:100D200006F011C11EF1E3DE015241E00101115153
:100D3000080DF3501A6B196F040E1927000E1A23B1
:100D4000020E1925016E000E1A21036E01C0E9FF83
:100D5000040E0324EA6EECCF03F0ED52EFCF17F14F
:100D600003C018F118C1EAFF17C1E9FF13C1E2FF80
:100D700012C1E1FF15C102F014C101F0015202E0FD
:100D8000022A02D0025206E0E6CFEEFF012EFCD787
:100D9000022EFAD711C119F115C11BF114C11AF1B4
:100DA00016C11CF10001C5DE015003D000D0000EB9
:100DB000016E000C020E0101116F136B400E126FD9
:100DC000156B7FC014F1020E166F0001AADF7FC001
:100DD00085F07F6B000C7F5301E0ECDF06EF07F03E
:100DE000010110530EE1202C05D00001F4EC01F0BC
:100DF00006D001012050020803E100018BD7010158
:100E000006D01051020803E10001E5D701010001FD
:100E1000000C273001010E6F0E330E331F0E0E171C
:100E200027524FE1040100513C0B01010F6F430EAB
:100E30000401001701010F51340825E10401045198
:100E4000800B01E0046B0001D8D56D98293C07D0D8
:100E50000101116B030E126F0001E9DD12D00101D7
:100E6000116B020E126F0001E2DD2950FE0809E04D
:100E70000101196B1B6B29C01AF1040E1C6F0001D4
:100E800058DE1DD001010F5104081AE1106B00015A
:100E900025DF0101116B020E126F0001C8DD295020
:100EA000FE080CE0293C01D009D00101196B1B6B35
:100EB00029C01AF1010E1C6F00013BDE00D00101B8
:100EC00062D02750040818E1430E04010417FF0EF6
:100ED000296E0101106B000183DF293C01D00AD08B
:100EE0000101196B1B6B29C01AF1020E1C6F000166
:100EF00020DE00D047D0010127B41DD00E51080DCF
:100F0000F350116B016E040E1125036E0E51080D86
:100F1000F350136BE96E040E1325EA6EEF50430B8A
:100F200003C0EAFF01C0E9FFEF6E0EC110F100013E
:100F3000D5DE28D001010E51080DF350116B106F52
:100F4000040E1027000E112310C101F0040E11250C
:100F5000036E0E51080DF350136B126F040E12271F
:100F6000000E132312C1E9FF040E1325EA6EEF50A1
:100F7000430B03C0EAFF10C1E9FFEF6E0EC110F191
:100F800000012EDF01010001FFEF07F0A19A2852B6
:100F900001E13ED068523CE068A404D069A402D0CC
:100FA00026EF01F06DA201D033D068AA04D069AA5F
:100FB00002D03EEF01F068A204D069A202D045EF52
:100FC00001F068A004D069A002D0D1EF01F068A8B8
:100FD00004D069A802D0E6EF01F068AC04D069AC97
:100FE00002D0EBEF01F001010D6B68A60AD069A6F3
:100FF00008D06CCF27F0000102EC00F00AD702D035
:10100000010105D001010D510D2B0308EEE2000195
:1010100030EF00F00A0D4D703E2564000A0D4D655D
:101020006D496E663A202578202578202578202580
:101030007820257800000A0D3D3D25782025782070
:101040002578202578000A0D686F6C61206D756E1B
:10105000646F00000A0D4520256400000A0D7465C8
:101060007374202575000A0D20444553434F4E45A7
:10107000435441522E2E2E006D6A696A080E6F6E1F
:1010800094503009946E286A196AF2BE198EF29E45
:10109000BBEC01F019BEF28E000CEEDF7FEF08F022
:1010A000196AF2BE198EF29EBBEC01F019BEF28EE7
:1010B0006D6A140E6F6E696A6D86010E286E67EF99
:1010C00008F0958683A604D06DB601D0E9D703D089
:1010D0006DA601D0D1DF282C0BD06DBA09D0686A7B
:1010E000696AA08AC00EF212110E696E020E286E95
:1010F000000C2150016E000CAAEC01F0CED7E1DF0C
:10110000958683A60AD0F5DF015204E0010E016E38
:1011100006D003D0000E016E02D0FF0E016E92EFDA
:1011200008F0EAD701C0B1F09698D190800ED56E44
:10113000CD6A000ECA6E000ECB6E070EB46E9250D2
:10114000926E0D0E006E002EFED7B450A19CB56AB3
:10115000B16A9484BD6AB76AB66A000E966E936EE1
:10116000800E946E480E956E8D9296928D8096901C
:1011700095988C98959E8C8E959A8C9A959C8C8C33
:1011800049EF10F09EDF958683A60AD0B2DF0152A8
:1011900004E0010E016E06D003D0000E016E02D0F5
:1011A000FF0E016ED5EF08F0EDD7012C06D08D8231
:1011B0009692010E016E06D005D08D929692000E89
:1011C000016E00D0000CFE91F2BEFE81F29E7F51B6
:1011D0003E0802E23E0E7F6F7F517F2B036A400F75
:1011E000E96E000E0320EA6EFDC0EFFFF29EFEB135
:1011F000F28EFEEF08F0FCC0FDF0E5D7196AF2BEF2
:10120000198EF29E020E01011E6F000170DC19BEE4
:10121000F28E015207E0196AF2BE198EF29ECADD03
:1012200019BEF28E000C7F513E0815E2196AF2BE1B
:10123000198EF29E020E01011E6F000158DC19BECC
:10124000F28E015207E0196AF2BE198EF29EB2DDEB
:1012500019BEF28EE8D7FBC0FCF0CDDF000C090010
:10126000F5520CE0F6CFB3F0F7CFB4F0F5CFFBF0CA
:10127000DADFB3C0F6FFB4C0F7FFF1D759EF09F0DA
:10128000EA6AF00EE96EEF500EE0050E016E006A9C
:10129000002EFED7012EFBD72E0E006E002EFED79D
:1012A00000D0EF2EF2D7000C460EF66E100EF76E41
:1012B000D6D7020EB36FFA0EF06FE2DFB32FFBD773
:1012C0004FEF10F0F7C0F9F0F6C0F8F0F9C003F0F6
:1012D000F8C0E9FFF9C0EAFFEF5204E0F82BD8B4F8
:1012E000F92BF4D7F651F85D006EF751F959036EFA
:1012F00000C001F0000CF06703D0F16702D007D006
:10130000F12BEFC0EEFFF02FFCD7F12FFAD7000C36
:101310000900F6CFF0F0F7CFF1F0F5CFFCF06BDF7E
:10132000F0C0F6FFF1C0F7FFEF2FF2D72FEF0FF06D
:10133000FC51016AFB5D03E2FBC000F00CD0006AC7
:10134000080EFD6FFB370036FC51005CD8B0006E14
:101350000136FD2FF7D7000C200EF0A9300EF16FEB
:10136000EFC000F0EFAF07D0001E002A00C0EFF082
:101370002D0EF16FF08F0150EFC0FBF0640EFC6F8B
:10138000D7DF00C0EFF0300E0124F26FEFC0FBF0AA
:101390000A0EFC6FCDDF300E0024F46F300E0124F6
:1013A000F36FF1C000F0F0A702D0F0AFF095F0B904
:1013B0000BD0F0AF22D0F0B520D000C0F2F0F0B3E7
:1013C0001CD000C0F3F019D0300EF25D16E100C061
:1013D000F2F0200EF16FF0A704D0F095F083F0AF9B
:1013E000F093300EF35D09E100C0F3F0200EF26FD0
:1013F000F0A7F7D7F093F0AFF091F0A503D0F1C0CC
:10140000FCF0F9DEF0A303D0F2C0FCF0F4DEF0A1B2
:1014100003D0F3C0FCF0EFDEF4C0FCF0ECDE000C17
:101420000900F6CFF6F0F7CFF7F0F5CFFBF0FBDED3
:10143000F6C0F6FFF7C0F7FFF52FF2D7000C01500A
:10144000EFC0FBF0640EFC6F73DF00C0EFF00150E3
:10145000300E07E1F0A30CD0F0B70AD0F0B9200E9F
:1014600003D0F097F099F081012601C0FBF0DBDE9C
:10147000EFC0FBF00A0EFC6F5BDF00C0EFF0015025
:10148000300E06E1F0B708D0F0A106D0F0B9200E7A
:10149000012601C0FBF0C7DE300EEF27EFC0FBF0E6
:1014A000C2DE51EF0FF080B101D0FDD78251822B07
:1014B000036A300FE96E040E0320EA6EEFCFEFF0FF
:1014C0008151825D08E3196AF2BE198EF29E58ECD2
:1014D00006F019BEF28EEFC001F053EF0FF0720E5E
:1014E000FB6FA1DE958C959A8C9A040EEF6FFA0E25
:1014F000F06FC6DEEF2FFBD7959A8C8A0C0EEF6F3C
:10150000FA0EF06FBDDEEF2FFBD7000E016EF5EF88
:101510000FF0200EF6A9300EF76FF5C000F0F5AF12
:1015200007D0001E002A00C0F5F02D0EF76FF68FD1
:101530000150F5C0FBF0640EFC6FFADE00C0F5F060
:10154000300E0124F86FF5C0FBF00A0EFC6FF0DEE0
:10155000300E0024FA6F300E0124F96FF7C000F04E
:10156000F6A702D0F6AFF695F6B90BD0F6AF22D0BB
:10157000F6B520D000C0F8F0F6B31CD000C0F9F0EA
:1015800019D0300EF85D16E100C0F8F0200EF76FAC
:10159000F6A704D0F695F683F6AFF693300EF95D14
:1015A00009E100C0F9F0200EF86FF6A7F7D7F6931F
:1015B000F6AFF691F6A503D0F7C0FBF034DEF6A344
:1015C00003D0F8C0FBF02FDEF6A103D0F9C0FBF08A
:1015D0002ADEFAC0FBF027DEFCEF0AF0F4C094F03C
:1015E000140EF66E100EF76E050EF56F19DF94C02F
:1015F000F5F01F0EF66F8DD7000CF7BF0FD00F0E52
:10160000006EF63900160A0E005C03E2300E00266A
:1016100002D0F751002600C0FBF005DE0F0EF617D2
:101620000A0EF65D02E2300E02D0F79FF751F62760
:10163000F6C0FBF0F8DD000C9EA8FED7AD6E000CE6
:101640000A0EFB6FF0DD0D0EFB6FEDDD3E0EFB6F46
:10165000EADDF5C0F6F0370EF76FCFDFF551ECDFBE
:10166000200EFB6FE0DD650EFB6FDDDD93C0F6F055
:10167000370EF76FC2DF000C040EF75F09E3EA6A6A
:10168000F70EE96EEF5004E001D00000EF2EFDD719
:1016900053EF0BF00C0EF56F850EF46F020EF66F24
:1016A0009B0EF76FE9D7F62FFBD7F42F05D0F52F58
:1016B00003D0936B016A0AD09EAAF0D7AB50936F08
:1016C000AE50016E93A302D0AB98AB88000CF26BC6
:1016D000030EF36F83979EBA0CD0F3530AE0F253D4
:1016E00008E1D8DF01C0F2F02A0EFB6F9CDDF307A2
:1016F000F2D7F25303E1CEDF01C0F2F00A0EFB6F26
:1017000092DD0D0EFB6F8FDD3C0EFB6F8CDDF2C0AA
:10171000F6F0570EF76F71DF200EFB6F84DD650E5C
:10172000FB6F81DD93C0F6F0570EF76F66DFF2C0F6
:1017300001F0000C050EEF6FF46B50DF550EF56FE6
:101740007FDFC5DF01C0AAF0EF07780EF06F98DDEC
:10175000EF5303E0AA510608F1E1AA51060803E09D
:10176000010E016E07D083858393010EF46F36DF7F
:10177000000E016E77EF0FF083A503D0942D01D0FA
:1017800003D0010E016E16D0400EF56F59DF690EC1
:10179000F56F56DF9CDF01C0AAF0AA51060804E0ED
:1017A000020E016E07D001D08383020EF46F16DFA4
:1017B000000E016E7BEF0FF0560EF56F41DF87DFF5
:1017C00001C08EF084DF01C08FF081DF01C090F096
:1017D0007EDF01C091F07BDF01C092F01C0EF66E3F
:1017E000100EF76E0A0EF56F1BDE8EC0F6F0570E68
:1017F000F76F03DF200EFB6F16DD8FC0F6F0570E7C
:10180000F76FFBDE200EFB6F0EDD90C0F6F0570E7B
:10181000F76FF3DE200EFB6F06DD91C0F6F0570E7A
:10182000F76FEBDE200EFB6FFEDC92C0F6F0570E7A
:10183000F76FE3DEF5EF0FF0F7C0FCF0F6C0FBF05A
:10184000FA5324E0F9C003F0F8C0E9FFF9C0EAFF59
:10185000EF521CE0FCC003F0FB51FB2BD8B4FC2B77
:10186000FD6F03C0FEF0F9C003F0F851F82BD8B4B7
:10187000F92BE96E03C0EAFFEFCFFFF0FEC0EAFFED
:10188000FDC0E9FFFFC0EFFFFA07DAD7FA530CE01B
:10189000FCC003F0FB51FB2BD8B4FC2BE96E03C05A
:1018A000EAFFEF6AFA07F2D7F6C001F0F7C002F0DC
:1018B00080EF0CF083B303D0010E016E29D0F153F9
:1018C00004E0050EF46F8ADE03D0030EF46F86DEAB
:1018D000F0C0F7F0EFC0F6F0F5DC01C096F09651DD
:1018E0000C0802E3965101D00C0E966FF76B9B0E1D
:1018F000F66FF0C0F9F0EFC0F8F096C0FAF09CD7A0
:10190000956B8397010EA76F150EAA6F000E016EDF
:10191000000C83B303D0FF0E016E57D0945105081D
:1019200003E0FE0E016E51D0EF5305E0EF51640865
:1019300002E3A76B03D0FD0E016E47D09A6B996B43
:10194000986BEFC097F0400EF56F7ADE740EF56F6E
:1019500077DEA751A811A911F06FF56F71DE956BB5
:101960009651955D0EE2036A95519B0FE96E000E4C
:101970000320EA6EEFCFF0F0F0C0F5F061DE952BBA
:10198000EFD7F56B5DDE9AC0F0F09AC0F5F058DE47
:1019900099C0F0F099C0F5F053DE98C0F0F098C00F
:1019A000F5F04EDE97C0F0F097C0F5F049DE8FDE1F
:1019B00001C0AAF0AA51060803E0FC0E016E05D092
:1019C000060EF46F0BDE000E016E8CEF0FF0956BC0
:1019D000975306E1985304E1995302E19A5319E0B1
:1019E000F151955D16E2036A9551EF25E96EF051CC
:1019F0000320EA6EEFCFF2F0F2C0F5F021DE952B76
:101A0000FF0E9727D8A09827D8A09927D8A09A2763
:101A1000DFD7975312E1985310E199530EE19A538F
:101A20000CE155DE01C0AAF0AA51060803E0F80E49
:101A3000016E05D0070EF46FD1DD95C001F095EF72
:101A40000FF0F06BF16BF26BF36BEF5306E0EF51BD
:101A5000640803E3EFC0A7F007D0FD0E006EFF0E91
:101A6000016E026E036E63D0400EF56FE9DD610E0C
:101A7000F56FE6DDA7C0F5F0E3DD956B9651955D5A
:101A80000EE2036A95519B0FE96E000E0320EA6E89
:101A9000EFCFF4F0F4C0F5F0D3DD952BEFD7000EC7
:101AA000CBDDF8DD01C0F0F0F5DD01C0F1F0F2DDD5
:101AB00001C0F2F0EFDD01C0F3F0F0C09AF0F1C028
:101AC00099F0F2C098F0F3C097F0360EF66E100E53
:101AD000F76E040EF56FA4DCF0C0F6F0570EF76F4A
:101AE0008CDD200EFB6F13EC09F0F1C0F6F0570E01
:101AF000F76F83DD200EFB6F13EC09F0F2C0F6F0F8
:101B0000570EF76F7ADD200EFB6F13EC09F0F3C070
:101B1000F6F0570EF76F71DD040EF46F5FDD97C0BE
:101B200000F098C001F099C002F09AC003F0A3EF52
:101B30000FF0006A016A026A036A0101036B046B19
:101B4000056B066B0251011100110001FF1134E019
:101B5000200E0101076FD8900001FB37FC37FD37DD
:101B6000FE37010103370437053706370251065D9A
:101B70000AE10151055D07E10051045D04E1000146
:101B8000FF510101035D11E30001FF510101035FFA
:101B90000051D8A0003D045F0151D8A0013D055F70
:101BA0000251D8A0023D065FD880003601360236C9
:101BB0000336072FD0D70001010EEA6E030EE96E3F
:101BC000000CE950F36F3B0EFA6F9A0EF96FCA0ED4
:101BD000F86FF76B0A0EF56FF2C0FEF0F1C0FDF082
:101BE000F0C0FCF0EFC0FBF0FAC002F1F9C001F167
:101BF000F8C000F1F7C0FFF09CDF0150EFCFEFF02D
:101C0000ECCFF0F0ECCFF1F0ECCFF2F000520FE1BE
:101C1000F551010A0CE0F3510BE00F0BF55D01E00B
:101C20000DE2F3BF0BD0F3BD03D0200E02D0F36B57
:101C3000300E002600C0FCF0FBEC08F0FAC0FEF00D
:101C4000F9C0FDF0F8C0FCF0F7C0FBF00101026B39
:101C5000016B006B0A0E0001FF6F6BDF03C0FAF02F
:101C600002C0F9F001C0F8F000C0F7F0F52FB4D7CA
:101C7000F5EF0FF0F16B956B060EF56FE1DCA751F8
:101C8000955D1EE2975306E1985304E1995302E1F2
:101C90009A5316E01CDD01C0F1F0036A9551EF255F
:101CA000E96EF0510320EA6EF1C0EFFF952BFF0EB5
:101CB0009727D8A09827D8A09927D8A09A27DFD708
:101CC000975312E1985310E199530EE19A530CE1A6
:101CD000FEDC01C0AAF0AA51060803E0FC0E016E6A
:101CE00005D0070EF46F7ADC95C001F0C7EF0FF056
:101CF000EF5210E0EACFF0F0E9CFEFF0EFCFFCF0D9
:101D0000FBEC08F0F0C0EAFFEFC0E9FFE92AD8B425
:101D1000EA2AEED7F5EF0FF09451040805E1150E0D
:101D20008BDCD5DC01C0AAF09451060813E197536F
:101D300006E1985304E1995302E19A530BE0000E37
:101D40007BDCFF0E9727D8A09827D8A09927D8A08A
:101D50009A27EDD79A6B996B986B976B020EF46F7D
:101D60003DDC010EA76F000E016EE1EF0FF0EA6A95
:101D70009B0EE96E000E1DEC01F00A000900F55003
:101D8000EE6E0009FBE1956B966B8397010EA76FD2
:101D9000150EAA6F020EF46F21DC000E016EE5EF46
:101DA0000FF00900F5520DE0F6CFEFF0F7CFF0F0AD
:101DB000F5CFFCF0FBEC08F0EFC0F6FFF0C0F7FF4A
:101DC000F0D7EDEF0FF0740EB36F650EB46F730EB6
:101DD000B56F740EB66F2E0EB76F740EB86F780EA7
:101DE000B96F740EBA6FBB6B300EBC6F310EBD6F26
:101DF000320EBE6F330EBF6F340EC06F350EC16F23
:101E0000360EC26F370EC36F380EC46F390EC56FF2
:101E1000C66BE76BE86BE96BED6BEC6BEB6BEA6B3E
:101E2000EE6BF76BBC0EF66F62EC09F001C0E8F0E8
:101E3000EA6AC70EE96EEF6BF16B200EF06F7BEC78
:101E400009F0D4EC08F00152D8B4D0D0E72B540EEE
:101E5000F66E100EF76E040EEF6F88EF09F0E9C012
:101E6000EFF01F0EF06FACEC09F0EA6AC70EE96EF6
:101E7000EF6BF16B200EF06F7BEC09F0E96BED6B13
:101E8000EC6BEB6BEA6B5C0EF66E100EF76E070EEA
:101E9000F56F10EC0AF0E7C0EFF01B0EF06F1FEFCC
:101EA0000AF053EF0AF001C0EEF0EE53FAE0EE5103
:101EB000300A19E0010A1AE0030A1CE05B0A1EE07E
:101EC0000C0A1EE0120A25E0040A29E01F0A30E08D
:101ED0001E0A36E0150A57E0040AD8B471D01B0A6E
:101EE000D8B472D075D06FEF0AF07FD023D401C080
:101EF000E9F07BD041D401C0E9F077D05DD475D052
:101F0000F06BB30EEF6F010EF16FD4DC01C0E9F09E
:101F10006CD0E8C0EFF0FDD401C0E9F066D0F06B02
:101F2000BC0EEF6FE8C0F1F052D501C0E9F05DD012
:101F3000F06BB30EEF6FF16BBDDC01C0E9F055D073
:101F4000E8C0EFF07ED503C0EDF002C0ECF001C0B8
:101F5000EBF000C0EAF00A0EFC6FFBEC08F00D0E8F
:101F6000FC6FFBEC08F0740EFC6FFBEC08F0410E0C
:101F7000E96EEDC0F2F0ECC0F1F0EBC0F0F0EAC0B9
:101F8000EFF01FD632D0F06BC70EEF6F73D601C0E3
:101F9000E9F00A0EFC6FFBEC08F00D0EFC6FFBEC99
:101FA00008F0E9C0EFF01F0EF06FACEC09F0200E66
:101FB000FC6FFBEC08F0EA6AC70EE96E99D615D003
:101FC000ABD601C0E9F011D0D2D601C0E9F00DD0F6
:101FD000660EF66E100EF76EE4D6140EEF6FFA0E64
:101FE000F06F40EC09F0EF2FFAD72BD750EF10F03D
:101FF000F86AD09E078EEA6AE96AB886A00EAF6ECC
:10200000010EB06EA60EAC6E900EAB6E286A2C6AF6
:102010007F6B866B876BB886A00EAF6E010EB06EBD
:10202000A60EAC6E900EAB6E839383958397946BE4
:10203000956B966B9A6B996B986B976B010EA76F6C
:10204000800EA86FA96B150EAA6FB886A00EAF6E92
:10205000010EB06EA60EAC6E900EAB6EB16BC150A1
:10206000C00B0F09C16E070EB46E1A6A1B6A246A90
:10207000040E256E0C0E266E886B896B936B8E6B2F
:102080008F6B906B916B926BAB6BAC6BB29191EF72
:1020900008F0D4EC08F0015204E054EF09F093D6B4
:1020A0000FD0B2B102D08D9001D08D809690B271D8
:1020B000030EB36F6F0EF06F40EC09F0B32FFAD739
:0420C000E8D703005A
:020000040030CA
:0E0000003CCE3E1E008581000FC00FE00F4079
:00000001FF
;PIC18F4550
;CRC=BABB  CREATED="17-Jul-13 10:53"
