:1000000025EF0CF06896000C046ED8CF05F0E0CF19
:1000100006F00001E9CF0CF0EACF07F0E1CF08F0DD
:10002000E2CF09F0D9CF0AF0DACF0BF0F3CF12F01C
:10003000F4CF13F0FACF14F0F5CF15F0F6CF16F099
:10004000F7CF17F000C00EF001C00FF002C010F0A3
:1000500003C011F0A0AA30EF00F0A1BAD6EF07F06C
:100060000EC000F00FC001F010C002F011C003F08C
:100070000CC0E9FF07C0EAFF078E08C0E1FF09C016
:10008000E2FF0AC0D9FF0BC0DAFF12C0F3FF13C0B2
:10009000F4FF14C0FAFF15C0F5FF16C0F6FF17C035
:1000A000F7FF045006C0E0FF05C0D8FF1000F76A54
:1000B000BE0FF66E000EF7220900F5501200000385
:1000C00002FFFFFFFFFFFFFFFFFFFFFFFFFFF76ADA
:1000D000DE0FF66E000EF7220900F550120000FF49
:1000E00002FFFFFFFFFFFFFFFFFFFFFFFFFFF76ABA
:1000F000FE0FF66E000EF7220900F5501200080000
:1001000008004000000000000000000000000000A7
:100110000000000000000000000000000000F76A7E
:100120002E0FF66E010EF7220900F550120008009E
:10013000000040000000000000000000000000007F
:100140000000000000000000000000000000F76A4E
:100150005E0FF66E010EF7220900F550120009023B
:100160004300020100C03209040000010202010044
:1001700005240010010424020205240600010524C0
:10018000010001070581030800FA09040100020AC1
:10019000000000070502024000010705820240003E
:1001A000FA00F76AB20FF66E010EF7220900F55059
:1001B00012000200F76AC40FF66E010EF722090062
:1001C000F5501200120017001B002000FFFFFFFF78
:1001D000FFFFFFFFF76AE40FF66E010EF72209003A
:1001E000F55012001201100102000008D8040B00A3
:1001F000000101020001F76A060FF66E020EF722F7
:100200000900F550120004030904080343004300E9
:10021000530028035500530042005F0043006F0065
:100220006E00740072006F006C005F004400650097
:10023000760069006300650073000A0D2A2A2A3AD5
:10024000202564006D92699468A402D06894FCD75C
:10025000E2EF07F0080E0401016F040E036F180EA1
:10026000026F880E006F046B040E076F200E066F7E
:100270000001000C70A002D0EDDF7090689AEBEFE7
:1002800007F06A6A6892F1EF07F0010170916FBFA1
:1002900070816F9F6F51100803E2000E016E1BD03A
:1002A00070A10DD0036A6F51000101DFFF0802E168
:1002B000000E01D0010E016E01010DD00CD0036AB9
:1002C0006F51000104DFFF0802E1000E01D0010EB2
:1002D000016E010100D00001000C036A01016E51A2
:1002E000700FE96E0F0E0320EA6EEF6A6EC16FF1B8
:1002F0000001CBDF015219E001016E51080DF350EE
:10030000706BE96E040E7025EA6EEF6A6E51080D8F
:10031000F350706B6F6F040E6F27000E70236FC168
:10032000E9FF040E7025EA6EEF6A0001000C010E71
:1003300001016D6F6D510F0807E36DC16EF1000192
:10034000CCDF01016D2BF6D70001000C7B6B7A6BC3
:10035000250E796F800E786F7C6B7D6B080E7E6F3B
:10036000CD6BCC91806B7F6BC86BC991000C010188
:10037000636B635101080AE3036A6351760FE96E08
:10038000000E0320EA6EEF6A632BF3D70001DEDF75
:100390006A6B010E6B6F696B000C6A6A686A9F0E6C
:1003A0006B6E3D0E696E6E6AC2DFE1DF160E706E17
:1003B00068A602D027DEFCD76D984CDF030E716F64
:1003C000F7EF07F0698468986D82FDEF07F0689C8D
:1003D00003EF08F068C172F0000CFF0E726F000CA2
:1003E0000101666B0001755330E001016651070899
:1003F000D8B002D0000129D000016C5105E0020AFA
:1004000009E0010A0DE012D0036A7451A0DEE8CFC2
:1004100067F10CD0036A7451EEDEE8CF67F106D0C5
:10042000036A7451D7DEE8CF67F100D0742B7507EB
:1004300001016651662B036A200FE96E040E03204A
:10044000EA6E67C1EFFFCED70001755309E10101E4
:1004500066510808D8A402D0000102D00001696BDF
:1004600066C168F1B7DF000C746B6C6B04011B5143
:10047000010A000107E0030A0AE0010A0BE0220A70
:100480001BE02FD0120E756F030E6C6F2CD0430E35
:10049000756F29D0020E6C6F036A04011A516D0F3B
:1004A000E96E000E0320EA6EEFCF74F00001036ADC
:1004B0007451A1DE756F17D0D89004011A35036A04
:1004C000000178DE0900F5CF03F0746F743D01D0B0
:1004D00006D0036A74513BDE756F05D002D07DDF14
:1004E00010D07BDF0ED004011F5307E100017551CE
:1004F00004011E5D02E21EC475F0010E0001696F69
:100500006FDFB1EF03F00101655306E1040E000156
:10051000716F0DDFC7D00101050E0001716F040E70
:100520000101686F280E676F010E666F66510F0834
:10053000D8A0B8D066C16EF10001CFDE0101696BB1
:10054000036A66510001C3DDFF0853E0040E010198
:10055000696FD8906635036A0001E1DD0900F5CFC7
:1005600003F001016A6F03C06BF16651080DF3508F
:100570006E6B6D6F010E6D25016E000E6E21036EA8
:1005800001C0E9FF040E0324EA6E6AC1EFFF665161
:10059000080DF3506E6B6D6F020E6D25016E000E2F
:1005A0006E21036E01C0E9FF040E0324EA6E68C1E8
:1005B000ECFFED5267C1EFFFD8906635036A00018A
:1005C000AEDD0900F5CF03F0010167270350682372
:1005D000880E6C6F6BB16C816BB36C836651080DC8
:1005E000F3506E6BE96E040E6E25EA6E6CC1EFFF80
:1005F0000001036A01016651000159DDFF0837E07F
:10060000010169836651080DF3506E6B6D6F040E26
:100610006D27000E6E23020E6D25016E000E6E21F9
:10062000036E01C0E9FF040E0324EA6E68C1ECFF0B
:10063000ED5267C1EFFFD8906635036A000157DDC0
:100640000900F5CF03F001016727035068236651C5
:10065000080DF3506E6B6D6F040E6D27000E6E2348
:100660006DC1E9FF040E6E25EA6E400EEF6E0101CA
:100670006951060802E10E0E696F036A66510001B6
:1006800016DD010803E0010169890001036A010127
:100690006651700FE96E0F0E0320EA6E69C1EFFF1D
:1006A000662B44D70001A9EF03F004011951000A99
:1006B00000010DE0010A15E0020A21E0060A2CE023
:1006C000030A33E00E0A33E0010A39E048D06BC078
:1006D00020F40401216B020E0101686F00017ADE33
:1006E00040D004011A2D08D0010E00016B17010142
:1006F000686B00016FDE02D000016FDE32D00401B2
:100700001A2D07D000016B830101686B000162DEC6
:1007100002D0000162DE25D0020E696F1AC473F0A8
:100720000101686B000156DE1CD09ED61AD06AC04B
:1007300020F4010E0101686F00014CDE12D00401AB
:100740001A5101080AE31AC46AF01AC465F10001DB
:10075000DAD60101686B00013DDE000102D03DDE0A
:1007600000D022EF05F06AC065F104011951000ABA
:10077000000105E00A0A0CE0010A2BE03FD0040169
:10078000206B216B020E0101686F000123DE38D05F
:10079000010165531BE0010E655D036A000101DD87
:1007A000016E04011C5DD8A002D001010FD0036AC4
:1007B0001C51760FE96E000E0320EA6EEFCF20F495
:1007C000010E0101686F000105DE02D0000105DEA7
:1007D00017D0010165530FE0036A04011C51760F25
:1007E000E96E000E0320EA6E1AC4EFFF0101686B88
:1007F0000001F0DD02D00001F0DD02D0EEDD00D01E
:1008000022EF05F00101669165BF6681659F66A1D3
:1008100011D06551080DF350686B676F040E6727A0
:10082000000E682367C1E9FF040E6825EA6E880E92
:10083000EF6E09D06551080DF350686BE96E040E38
:100840006825EA6EEF6A00018AEF04F00101669103
:1008500065BF6681659F66A111D06551080DF35093
:10086000686B676F040E6727000E682367C1E9FF96
:10087000040E6825EA6E840EEF6E0AD06551080DED
:10088000F350686BE96E040E6825EA6E840EEF6E15
:10089000000192EF04F00101669165BF6681659FDA
:1008A00066A111D06551080DF350696B686F040E95
:1008B0006827000E692368C1E9FF040E6925EA6E06
:1008C000EFCF67F10AD06551080DF350696BE96EFF
:1008D000040E6925EA6EEFCF67F167AF02D067B506
:1008E00002D0000E01D0010E016E00019EEF04F057
:1008F0001CC46FF1CADC01522EE004011951010A37
:10090000000105E0020A0BE0030A11E022D01CC43A
:1009100065F178D70101686B00015CDD1CD01CC457
:1009200065F194D70101686B000154DD14D0040116
:10093000206B216B1CC465F10001ADD7015203E0AF
:10094000010E0401206F020E0101686F000142DDFB
:1009500002D043DD00D022EF05F0FE0E726F000CD6
:1009600004011C2D01D002D01C5351E11951000A81
:1009700000010BE0010A0DE0210A1CE0010A1FE062
:10098000030A30E0010A37E03FD0010ECF6FE5DF08
:100990003DD0040EEA6E200EE96EE26A810EE16E31
:1009A000080E016EE6CFEEFF012EFCD71EC468F1E3
:1009B00011DD2CD0020ECF6FCC81CFDF27D0040EFB
:1009C000EA6E200EE96EE26A780EE16E070E016EA5
:1009D000E6CFEEFF012EFCD7070E0101686F000184
:1009E000F9DC14D01BC4CEF01AC4CDF00101686B41
:1009F0000001F0DC0BD01AC480F01BC47FF00101B1
:100A0000686B0001E7DC02D0E8DC00D004010001E3
:100A100022EF05F0696B040118517F0B000A0001F9
:100A200007E0010A07E0030A07E0230A07E008D00D
:100A30003CD608D098D606D05BD704D091D702D048
:100A4000CCDC00D033EF07F001016651080DF35004
:100A50006C6BE96E040E6C25EA6EEFCF68F167519E
:100A6000020806E168AD02D0676B02D0010E676F25
:100A70006751030813E1840E686F6651080DF35047
:100A80006C6B6B6F040E6B27000E6C236BC1E9FF60
:100A9000040E6C25EA6E840EEF6E07D0672D03D02E
:100AA000C80E686F02D0880E686FD8906635036AEA
:100AB00000018FEC00F00900F5CF03F00101696F30
:100AC00003C06AF16651080DF3506C6B6B6F010E39
:100AD0006B25016E000E6C21036E01C0E9FF040E50
:100AE0000324EA6E69C1EFFF6AB168816AB3688363
:100AF0006651080DF3506C6BE96E040E6C25EA6EBE
:100B000068C1EFFF0001000C036A01017351700F0F
:100B1000E96E0F0E0320EA6EEF5212E07351080DDA
:100B2000F350756B746F040E7427000E752374C137
:100B3000E9FF040E7525EA6EEFCF74F174AF02D0B1
:100B4000000E01D0010E016E0001000C6EC173F1A8
:100B5000DBDF015264E001016E51080DF350746B4C
:100B6000736F040E7327000E7423010E7325016E3C
:100B7000000E7421036E01C0E9FF040E0324EA6E27
:100B80006FC1EFFF7151020817E16E51080DF3506C
:100B9000746B736F040E7327000E742373C1E9FF27
:100BA000040E7425EA6EEFCF72F172AD02D0716B54
:100BB00002D0010E716F13D07151040810E16E5113
:100BC000080DF350746BE96E040E7425EA6EEFCFD6
:100BD00072F172AD03D0010E716F01D0716B712D86
:100BE00003D0C80E726F02D0880E726F70B172811E
:100BF00070B372836E51080DF350746B736F040EF3
:100C00007327000E742373C1E9FF040E7425EA6E86
:100C100072C1EFFF010E016E05D000D00001000E81
:100C2000016E01010001000CCF51010A05E0020A2A
:100C300014E0010A19E02CD0EA6A810EE96E040E74
:100C4000E26E180EE16E080E016EE6CFEEFF012E89
:100C5000FCD7030ECF6F81DE1DD00101686B000150
:100C6000EAEC01F0CF6B16D0EA6A780EE96E040E5A
:100C7000E26E180EE16E070E016EE6CFEEFF012E5A
:100C8000FCD7CF6B0101686B0001EAEC01F002D0E8
:100C9000CF6B00D080EF06F001016651080DF350D4
:100CA000686B676F010E6725016E000E6821036E89
:100CB00001C0E9FF040E0324EA6E036AEFCF01F0DE
:100CC00003C002F0000174EF06F0C991020E0101A9
:100CD000666F676F0001B8DE000CC981CB6B020E36
:100CE0000101666F0001D8D701C0CAF0CA5301E103
:100CF000ECDF87EF06F00101655304E1000194D7B2
:100D000006D001016551020803E10001E6D70101A7
:100D10000001000C66C16EFF0101665305E0040E80
:100D20000001716F04D00101020E0001716F9EEF8E
:100D300006F06A6B696B73C066F1ECD70CEF07F0D5
:100D400066C173F1E1DE015241E001016651080D17
:100D5000F3506F6B6E6F040E6E27000E6F23020E42
:100D60006E25016E000E6F21036E01C0E9FF040EB7
:100D70000324EA6EECCF03F0ED52EFCF6CF103C029
:100D80006DF16DC1EAFF6CC1E9FF68C1E2FF67C1A7
:100D9000E1FF6AC102F069C101F0015202E0022ADA
:100DA00002D0025206E0E6CFEEFF012EFCD7022E63
:100DB000FAD766C16EF16AC170F169C16FF16BC19A
:100DC00071F10001C3DE015003D000D0000E016EAE
:100DD000000C020E0101666F686B890E676F6A6B0B
:100DE000C8C069F1020E6B6F0001AADFC8C0CEF067
:100DF000C86B000CC85301E0ECDF13EF07F00101F2
:100E000065530CE10001692D03D0F0EC01F004D032
:100E10006951020801E18DD706D001016551020830
:100E200003E10001E7D701010001000C703101016D
:100E3000636F633363331F0E63170001705350E118
:100E4000040100513C0B0101646F430E04010017C3
:100E500001016451340825E104010451800B01E0D3
:100E6000046B0001D7D56D98723D07D00101666B08
:100E7000030E676F0001E8DD12D00101666B020E00
:100E8000676F0001E1DD7251FE0809E001016E6B40
:100E9000706B72C06FF1040E716F000157DE1DD0D0
:100EA0000101645104081AE1656B000124DF0101AE
:100EB000666B020E676F0001C7DD7251FE080CE021
:100EC000723D01D009D001016E6B706B72C06FF181
:100ED000010E716F00013ADE00D0010164D0000103
:100EE0007051040818E1430E04010417FF0E0001BD
:100EF000726F0101656B000182DF723D01D00AD083
:100F000001016E6B706B72C06FF1020E716F0001A8
:100F10001DDE00D047D070B51DD001016351080D12
:100F2000F350666B016E040E6625036E6351080D67
:100F3000F350686BE96E040E6825EA6EEF50430BC0
:100F400003C0EAFF01C0E9FFEF6E63C165F1000174
:100F5000D2DE28D001016351080DF350666B656F36
:100F6000040E6527000E662365C101F0040E662598
:100F7000036E6351080DF350686B676F040E6727AB
:100F8000000E682367C1E9FF040E6825EA6EEF5082
:100F9000430B03C0EAFF65C1E9FFEF6E63C165F172
:100FA00000012DDF010100010FEF08F0A19A71533C
:100FB00001E13ED068523CE068A404D069A402D0AC
:100FC00022EF01F06DA201D033D068AA04D069AA43
:100FD00002D03AEF01F068A204D069A202D041EF3A
:100FE00001F068A004D069A002D0CDEF01F068A89C
:100FF00004D069A802D0E2EF01F068AC04D069AC7B
:1010000002D0E7EF01F00101626B68A60AD069A681
:1010100008D06CCF70F0000102EC00F007D702D0CE
:10102000010105D001016251622B0308EEE20001CB
:1010300030EF00F00A0D6D703E20256400000A0DAF
:10104000743A202575000A0D6D3A202578006D6AE6
:10105000696A080E6F6E945030090101946E0001A8
:10106000716B196AF2BE198EF29EB7EC01F019BECF
:10107000F28E000CECDF6DEF08F0196AF2BE198EEB
:10108000F29EB7EC01F019BEF28E6D6A140E6F6E0F
:10109000696A6D86010E716F55EF08F0FC0E936E54
:1010A00081A404D06DB601D0E8D703D06DA601D0DD
:1010B000CEDF712D0BD06DBA09D0686A696AA08A3B
:1010C000C00EF212110E696E020E716F000C6A51A1
:1010D000016E000CA6EC01F0CDD7E0DFFC0E936EA4
:1010E00081A40AD0F4DF015204E0010E016E06D0A3
:1010F00003D0000E016E02D0FF0E016E96EF08F0D5
:10110000010EEA6E4C0EE96EEF500EE0050E016E18
:10111000006A002EFED7012EFBD72E0E006E002E89
:10112000FED700D0EF2EF2D7000CD4D701C020F0AC
:101130009698D190800ED56ECD6A000ECA6E000EC4
:10114000CB6E070EB46E9250926E0D0E006E002E96
:10115000FED7B450A19CB56A000E966E936E8D902A
:1011600096908D8296928D8496940C0E0101496F13
:10117000FA0E4C6F0001C4DF0101492FF9D70001BD
:1011800016EF0DF08BDFFC0E936E81A40AD09FDF6B
:10119000015204E0010E016E06D003D0000E016E74
:1011A00002D0FF0E016ED6EF08F0ECD7012C08D06C
:1011B0008D8096908D929692010E016E08D007D088
:1011C0008D9096908D829692000E016E00D0000C4C
:1011D00001015391F2BE5381F29E0001C8513E08B5
:1011E00002E23E0EC86FC851C82B036A890FE96E30
:1011F000000E0320EA6E52C1EFFFF29E010153B1CF
:10120000F28E000107EF09F051C152F1E1D7196ADE
:10121000F2BE198EF29E020E0101736F000174DCA2
:1012200019BEF28E015207E0196AF2BE198EF29EC3
:10123000D0DD19BEF28E38EF09F0C8513E0815E234
:10124000196AF2BE198EF29E020E0101736F00013F
:101250005BDC19BEF28E015207E0196AF2BE198EEC
:10126000F29EB7DD19BEF28EE8D750C151F1CCD74E
:10127000000C0900F6CF4CF1F7CF4DF1F5CF50F14E
:10128000DCDF4CC1F6FF4DC1F7FF01014B2F01D050
:1012900002D00001EED70001000C01015151016A9A
:1012A000505D03E250C100F00CD0006A080E526F8E
:1012B000503700365151005CD8B0006E0136522FC5
:1012C000F7D70001000C200E01014BA9300E4C6F26
:1012D0004AC100F04AAF07D0001E002A00C04AF100
:1012E0002D0E4C6F4B8F01504AC150F1640E516F5F
:1012F0000001D3DF00C04AF1300E012401014D6F1F
:101300004AC150F10A0E516F0001C7DF300E0024B0
:1013100001014F6F300E01244E6F4CC100F04BA7FE
:1013200002D04BAF4B954BB90BD04BAF22D04BB546
:1013300020D000C04DF14BB31CD000C04EF119D0ED
:10134000300E4D5D16E100C04DF1200E4C6F4BA7E5
:1013500004D04B954B834BAF4B93300E4E5D09E160
:1013600000C04EF1200E4D6F4BA7F7D74B934BAFFC
:101370004B914BA505D04CC150F100015EDF01013E
:101380004BA305D04DC150F1000157DF01014BA126
:1013900004D04EC150F1000150DF4FC150F10001A7
:1013A0004CDFE5EF09F049C12CF1340EF66E100E5A
:1013B000F76E060E01014B6F00015BDF2CC14AF195
:1013C0001F0E01014B6F00017ED7000C959C8C9C79
:1013D000080E016E00D00000018E10D0019E0101A8
:1013E00049330001D8B08C8CD8A08C9C018C06D0DD
:1013F000019C012EF4D700D000008C8C840EE96E85
:10140000E92EFED700D0000001BEE8D701BCF0D71E
:10141000000C01504BC150F1640E0101516F0001ED
:101420003CDF00C04BF10150300E08E101014CA33C
:101430000FD04CB70DD04CB9200E04D001014C9701
:101440004C994C81012601C050F10001F6DE0101EA
:101450004BC150F10A0E516F00011FDF00C04BF16C
:101460000150300E08E101014CB70AD04CA108D060
:101470004CB9200E0001012601C050F1DEDE010151
:10148000300E4B274BC150F10001D7DEB6EF0AF00A
:10149000958E83BEFED7080E006E01014B6B008E49
:1014A0000ED0009E0CD0D89083BED8804B33008CD9
:1014B00006D0009C002EF7D74BC101F00CD0840E53
:1014C00000BE240E016E012EFED700D000BEE9D76B
:1014D00000BCEFD7E8D70001BCEF0AF001014CBF18
:1014E00011D00F0E006E4B3900160A0E005C03E29D
:1014F000300E002602D04C51002600C050F10001F1
:101500009CDE01010F0E4B170A0E4B5D02E2300EFE
:1015100002D04C9F4C514B274BC150F100018DDE46
:10152000D2EF0AF00101496B0001CC9701014A6B2F
:1015300083AE1ED04A5109081BE3040E4B6FFA0E0E
:101540004C6F0001DDDD01014B2FF9D74A2B3E0E18
:10155000F66E100EF76E050E4B6F00018ADE4AC163
:101560004BF11B0E01014C6F000153D70101E0D775
:1015700083BE06D000018CD701C049F103D0010120
:101580000001CC87460EF66E100EF76E050E0101B7
:101590004B6F00016EDE49C14BF1570E01014C6FDC
:1015A00000019CD7010149C101F00001000C550E5A
:1015B0000101496F00010ADFB5DF01C047F10101F8
:1015C0004751060803E0010E016E10D00001CC85E2
:1015D000CC930101336B346B356B366B376B010E7B
:1015E000496F0001E0DE000E016E010100011AEFFB
:1015F0000BF00101496B0001D6DEBF0E956E8C8C9D
:10160000956E8C9A140E0101496FFA0E4C6F000111
:1016100077DD0101492FF9D7BF0E956E8C8A140E24
:10162000496FFA0E4C6F00016BDD0101492FF9D7AC
:101630000001BDD701502CEF0DF0CCA508D0010161
:101640002C2D01D002D0000102D005D00001FF0EE8
:10165000016E20D00101400E496F0001B7DE690E16
:101660000101496F0001B2DE5DDF01C047F10101F8
:101670004751060806E0020E016E00010BD003D0B0
:1016800001010001CC83020E0101496F00018BDED4
:10169000000E016E2DEF0DF05CC0EAFF5BC0E9FFAC
:1016A00001014FC1EFFFE92AD8B4EA2AEF6A5B2AA9
:1016B000D8B45C2A0001000C0900F6CF4AF1F7CF3C
:1016C0004BF1F5CF4FF1E8DF4AC1F6FF4BC1F7FF11
:1016D0000101492F01D002D00001EED700013BEFFC
:1016E0000DF0200E01014AA9300E4B6F49C100F0E8
:1016F00049AF07D0001E002A00C049F12D0E4B6FE4
:101700004A8F015049C150F1640E516F0001C5DD8F
:1017100000C049F1300E012401014C6F49C150F164
:101720000A0E516F0001B9DD300E002401014E6F29
:10173000300E01244D6F4BC100F04AA702D04AAFD2
:101740004A954AB90BD04AAF22D04AB520D000C042
:101750004CF14AB31CD000C04DF119D0300E4C5D95
:1017600016E100C04CF1200E4B6F4AA704D04A95F9
:101770004A834AAF4A93300E4D5D09E100C04DF1F6
:10178000200E4C6F4AA7F7D74A934AAF4A914AA511
:1017900005D04BC14FF100017FDF01014AA305D005
:1017A0004CC14FF1000178DF01014AA104D04DC1C5
:1017B0004FF1000171DF4EC14FF100016DDF42EFCB
:1017C0000DF0EF520FE0EACF4CF1E9CF4BF1EFCF44
:1017D00050F133DD4CC1EAFF4BC1E9FFE92AD8B42F
:1017E000EA2AEFD7F9EF0BF04AC1EAFF49C1E9FF56
:1017F000E8D70A0E0101506F00011FDD0D0E010137
:10180000506F00011ADD48EF0DF0C9B101D0FDD7CE
:10181000CB51CB2B036A300FE96E040E0320EA6E26
:10182000EFCF49F101010001CA51CB5D08E3196A0C
:10183000F2BE198EF29E65EC06F019BEF28E010121
:1018400049C101F000015BEF0DF0F86AD09E078EF0
:10185000EA6AE96AB886A00EAF6E010EB06EA60EF7
:10186000AC6E900EAB6E206A216A226A236A246AEB
:10187000256A266A276A296A286AB886A00EAF6E8A
:10188000010EB06EA60EAC6E900EAB6E716B756BEA
:10189000C86BCF6BD06BB886A00EAF6E010EB06E6A
:1018A000A60EAC6E900EAB6E959C8C8CCC93CC95AA
:1018B000CC9701012C6B2D6B2E6B326B316B306B27
:1018C0002F6B010E446F800E456F466B150E476FF0
:1018D000C150C00B0F09C16E070EB46E1A6A1B6AA5
:1018E000740E526E650E536E730E546E740E556EFA
:1018F0002E0E566E740E576E780E586E740E596E0C
:101900005A6A5B6A5C6A5D6A5E6A0001636B646B5B
:101910006D6B040E6E6F0C0E6F6FD16BD26B4C0E35
:10192000D76F750ED86F6E0ED96F650EDA6F730EA6
:10193000DB6FDC6BDD6BDE6BDF6BE06BE16B4D0E49
:10194000E26F610EE36F720EE46F740EE56F650E69
:10195000E66F730EE76FE86BE96BEA6BEB6BEC6BB2
:101960004D0EED6F690EEE6FE90EEF6F720EF06FB8
:10197000630EF16F6F0EF26F6C0EF36F650EF46F06
:10198000730EF56FF66BF76B4A0EF86F750EF96F05
:10199000650EFA6F760EFB6F650EFC6F730EFD6FB2
:1019A000FE6BFF6B0101006B016B026B560E036F48
:1019B000690E046F650E056F720E066F6E0E076F6F
:1019C000650E086F730E096F0A6B0B6B0C6B0D6B5A
:1019D000530E0E6FE10E0F6F620E106F610E116FDE
:1019E000640E126F6F0E136F146B156B166B176B03
:1019F000186B440E196F6F0E1A6F6D0E1B6F690E08
:101A00001C6F6E0E1D6F670E1E6F6F0E1F6F206BAB
:101A1000216B246B256B266B276B336B346B356B1B
:101A2000366B376B486B000195EF08F0206AD5ECF8
:101A300008F00152FCE0140E0101496FFA0E4C6FE0
:101A4000000180EC08F00101492FF8D70001D5EC26
:101A500008F0015245E0CDD5F0D501C020F05C6A18
:101A60002A0E5B6E3A0EF66E020EF76E070E01013D
:101A7000496F000121D620C049F11F0E01014A6FB4
:101A800000012FD601014A6B2A0E496F0001ACD626
:101A90000A0E0101506F00011DEC09F00D0E01014D
:101AA000506F00011DEC09F03E0E0101506F000166
:101AB0001DEC09F0AAD601C048F148C150F11DEC57
:101AC00009F00101485172080AE0280E496FFA0E28
:101AD0004C6F000180EC08F00101492FF8D700019C
:041AE000A6D7030082
:020000040030CA
:0E0000003CCE3E1E008581000FC00FE00F4079
:00000001FF
;PIC18F4550
;CRC=D0DA  CREATED="19-Feb-13 08:21"
