:10000000F8EF0AF06896000C046ED8CF05F0E0CF48
:1000100006F00001E9CF0CF0EACF07F0E1CF08F0DD
:10002000E2CF09F0D9CF0AF0DACF0BF0F3CF12F01C
:10003000F4CF13F0FACF14F0F5CF15F0F6CF16F099
:10004000F7CF17F000C00EF001C00FF002C010F0A3
:1000500003C011F0A0AA30EF00F0A1BA58EF07F0EA
:100060000EC000F00FC001F010C002F011C003F08C
:100070000CC0E9FF07C0EAFF078E08C0E1FF09C016
:10008000E2FF0AC0D9FF0BC0DAFF12C0F3FF13C0B2
:10009000F4FF14C0FAFF15C0F5FF16C0F6FF17C035
:1000A000F7FF045006C0E0FF05C0D8FF1000F76A54
:1000B000BE0FF66E000EF7220900F5501200000385
:1000C00002FFFFFFFFFFFFFFFFFFFFFFFFFFF76ADA
:1000D000DE0FF66E000EF7220900F550120000FF49
:1000E00002FFFFFFFFFFFFFFFFFFFFFFFFFFF76ABA
:1000F000FE0FF66E000EF7220900F5501200080000
:1001000008004000000000000000000000000000A7
:100110000000000000000000000000000000F76A7E
:100120002E0FF66E010EF7220900F550120008009E
:10013000000040000000000000000000000000007F
:100140000000000000000000000000000000F76A4E
:100150005E0FF66E010EF7220900F550120009023B
:100160004300020100C03209040000010202010044
:1001700005240010010424020205240600010524C0
:10018000010001070581030800FA09040100020AC1
:10019000000000070502024000010705820240003E
:1001A000FA00F76AB20FF66E010EF7220900F55059
:1001B00012000200F76AC40FF66E010EF722090062
:1001C000F5501200120017001B002000FFFFFFFF78
:1001D000FFFFFFFFF76AE40FF66E010EF72209003A
:1001E000F55012001201100102000008D8040B00A3
:1001F000000101020001F76A060FF66E020EF722F7
:100200000900F550120004030904080343004300E9
:10021000530028035500530042005F0043006F0065
:100220006E00740072006F006C005F004400650097
:10023000760069006300650073000A0D4D703E256D
:1002400064006D92699468A402D06894FCD764EF4E
:1002500007F0080E0401016F040E036F180E026F01
:10026000880E006F046B040E076F200E066F0001EE
:10027000000C70A002D0EDDF7090689A6DEF07F06F
:100280006A6A689273EF07F00101039102BF03816C
:10029000029F0251100803E2000E016E1BD003A161
:1002A0000DD0036A0251000102DFFF0802E1000ED7
:1002B00001D0010E016E01010DD00CD0036A025174
:1002C000000105DFFF0802E1000E01D0010E016E02
:1002D000010100D00001000C036A01010151700FFF
:1002E000E96E0F0E0320EA6EEF6A01C102F1000110
:1002F000CBDF015219E001010151080DF350036BEE
:10030000E96E040E0325EA6EEF6A0151080DF35001
:10031000036B026F040E0227000E032302C1E9FFE4
:10032000040E0325EA6EEF6A0001000C010E0101C4
:10033000006F00510F0807E300C101F10001CCDF9D
:100340000101002BF6D70001000C566A556A250EF4
:10035000546E800E536E576A586A080E596EA76B1A
:1003600026965B6A5A6AA36BA491000CF66BF65151
:1003700001080AE3036AF651510FE96E000E0320EB
:10038000EA6EEF6AF62BF3D7E0DF456A010E466EA0
:10039000446A000C6A6A686A9F0E6B6E3D0E696E55
:1003A0006E6AC4DFE3DF160E706E68A602D02ADE26
:1003B000FCD76D984EDF030E4C6E79EF07F0698421
:1003C00068986D827FEF07F0689C85EF07F0FBC0AF
:1003D0004DF0000CFF0E4D6E000CF96B505226E0F4
:1003E000F951070823E3475005E0020A08E0010A33
:1003F0000BE00FD0036A4F50AADEFA6F0AD0036AEF
:100400004F50F9DEFA6F05D0036A4F50E3DEFA6F02
:1004100000D04F2A5006F951F92B036A200FE96EDC
:10042000040E0320EA6EFAC0EFFFD8D7505204E161
:10043000F951080801E0446AF9C0FBF0C8DF000C7C
:100440004F6A476A04011B51010A000107E0030AD1
:100450000AE0010A0BE0220A1BE02FD0120E506EB8
:10046000030E476E2CD0430E506E29D0020E476EFD
:10047000036A04011A51480FE96E000E0320EA6E68
:10048000EFCF4FF0036A4F500001B5DE506E17D02A
:10049000D89004011A35036A00018CDE0900F5CFFB
:1004A00003F04F6E4F3C01D006D0036A4F504FDE31
:1004B000506E05D002D08EDF0ED08CDF0CD0040140
:1004C0001F5305E150501E5D02E21EC450F0010EA4
:1004D000446E000182DF81EF03F0F85304E1040E63
:1004E0004C6E24DFBBD0050E4C6E040EFB6F280E45
:1004F000FA6F010EF96FF9510F08D8A0AFD0F9C00B
:1005000001F1EADEFC6B036AF951E1DDFF0853E01B
:10051000040EFC6FD890F935036A01DE0900F5CFAF
:1005200003F0FD6F03C0FEF0F951080DF350010117
:10053000016B006F010E0025016E000E0121036E9C
:1005400001C0E9FF040E0324EA6EFDC0EFFF0001C5
:10055000F951080DF3500101016B006F020E0025E7
:10056000016E000E0121036E01C0E9FF040E032499
:10057000EA6EFBC0ECFFED52FAC0EFFFD89000012D
:10058000F935036ACCDD0900F5CF03F0FA270350F3
:10059000FB23880EFF6FFEB1FF81FEB3FF83F9518D
:1005A000080DF3500101016BE96E040E0125EA6E9E
:1005B000FFC0EFFF0001036AF95179DDFF0838E061
:1005C000FC83F951080DF3500101016B006F040E1B
:1005D0000027000E0123020E0025016E000E0121EE
:1005E000036E01C0E9FF040E0324EA6EFBC0ECFFBA
:1005F000ED52FAC0EFFFD8900001F935036A77DDBC
:100600000900F5CF03F0FA270350FB23F951080D39
:10061000F3500101016B006F040E0027000E01234F
:1006200000C1E9FF040E0125EA6E400EEF6E0001E5
:10063000FC51060802E10E0EFC6F036AF95137DD2A
:100640000108D8A4FC89036AF951700FE96E0F0EF6
:100650000320EA6EFCC0EFFFF92B4DD77BEF03F0D0
:1006600004011951000A00010DE0010A14E0020A18
:100670001EE0060A27E0030A2CE00E0A2CE0010A1D
:1006800030E03DD046C020F40401216B020E000191
:10069000FB6F9DDE36D004011A2D06D0010E4616E2
:1006A0000001FB6B94DE02D0000194DE2AD004012D
:1006B0001A2D05D046820001FB6B89DE02D00001B5
:1006C00089DE1FD0020E446E1AC44EF0FB6B7FDE33
:1006D00018D0B6D616D045C020F4010EFB6F77DED9
:1006E00010D004011A51010808E31AC445F01AC4D5
:1006F000F8F00001F2D6FB6B6ADE000102D06ADE80
:1007000000D0D9EF04F045C0F8F004011951000AF7
:10071000000105E00A0A0BE0010A26E037D00401D7
:10072000206B216B020E0001FB6F51DE31D0F853BC
:1007300019E0010EF85D036A34DD016E04011C5DF1
:10074000D8A002D000010ED0036A1C51510FE96EEF
:10075000000E0320EA6EEFCF20F4010E0001FB6FC4
:1007600036DE01D037DE14D0F8530EE0036A040100
:100770001C51510FE96E000E0320EA6E1AC4EFFF00
:100780000001FB6B24DE01D025DE02D023DE00D089
:10079000D9EF04F0F991F8BFF981F89FF9A111D0D0
:1007A000F851080DF350FB6BFA6F040EFA27000E98
:1007B000FB23FAC0E9FF040EFB25EA6E880EEF6EFC
:1007C00009D0F851080DF350FB6BE96E040EFB25C0
:1007D000EA6EEF6A4CEF04F0F991F8BFF981F89FE7
:1007E000F9A111D0F851080DF350FB6BFA6F040E0C
:1007F000FA27000EFB23FAC0E9FF040EFB25EA6E80
:10080000840EEF6E0AD0F851080DF350FB6BE96EC1
:10081000040EFB25EA6E840EEF6E52EF04F0F991A0
:10082000F8BFF981F89FF9A111D0F851080DF350E4
:10083000FC6BFB6F040EFB27000EFC23FBC0E9FFE3
:10084000040EFC25EA6EEFCFFAF00AD0F851080D3D
:10085000F350FC6BE96E040EFC25EA6EEFCFFAF064
:10086000FAAF02D0FAB502D0000E01D0010E016E2F
:100870005CEF04F01CC402F107DD015229E0040121
:100880001951010A000105E0020A09E0030A0DE01E
:100890001DD01CC4F8F07ED7FB6B99DD19D01CC4A9
:1008A000F8F09AD7FB6B93DD13D00401206B216B1A
:1008B0001CC4F8F00001B3D7015204E0010E04019A
:1008C000206F0001020EFB6F82DD02D083DD00D0BD
:1008D000D9EF04F0FE0E4D6E000C04011C2D01D06A
:1008E00002D01C534BE11951000A00010BE0010A30
:1008F0000DE0210A1CE0010A1FE0030A2EE0010AB4
:1009000033E039D0010EA96FE5DF37D0040EEA6E6F
:10091000200EE96EE26A5C0EE16E080E016EE6CF13
:10092000EEFF012EFCD71EC4FBF051DD26D0020ED7
:10093000A96F2686CFDF21D0040EEA6E200EE96E65
:10094000E26A530EE16E070E016EE6CFEEFF012E56
:10095000FCD7070EFB6F3BDD10D01BC4A8F01AC4F8
:10096000A7F0FB6B34DD09D01AC45BF01BC45AF04E
:10097000FB6B2DDD02D02EDD00D004010001D9EF8C
:1009800004F0446A040118517F0B000A000107E0DB
:10099000010A07E0030A07E0230A07E008D060D64F
:1009A00008D0B1D606D066D704D097D702D012DDD2
:1009B00000D0C7EF06F0F951080DF350FF6BE96E58
:1009C000040EFF25EA6EEFCFFBF0FA51020806E1B4
:1009D000FBAD02D0FA6B02D0010EFA6FFA51030898
:1009E00013E1840EFB6FF951080DF350FF6BFE6F9E
:1009F000040EFE27000EFF23FEC0E9FF040EFF25B4
:100A0000EA6E840EEF6E07D0FA2D03D0C80EFB6F8E
:100A100002D0880EFB6FD890F935036A8FEC00F096
:100A20000900F5CF03F0FC6F03C0FDF0F951080D8C
:100A3000F350FF6BFE6F010EFE25016E000EFF21CD
:100A4000036E01C0E9FF040E0324EA6EFCC0EFFF51
:100A5000FDB1FB81FDB3FB83F951080DF350FF6B32
:100A6000E96E040EFF25EA6EFBC0EFFF000C036A7F
:100A700001010651700FE96E0F0E0320EA6EEF526E
:100A800012E00651080DF350086B076F040E07279C
:100A9000000E082307C1E9FF040E0825EA6EEFCF18
:100AA00007F107AF02D0000E01D0010E016E000168
:100AB000000C01C106F1DBDF015264E001010151CC
:100AC000080DF350076B066F040E0627000E072370
:100AD000010E0625016E000E0721036E01C0E9FF1D
:100AE000040E0324EA6E02C1EFFF0451020817E16D
:100AF0000151080DF350076B066F040E0627000E18
:100B0000072306C1E9FF040E0725EA6EEFCF05F1C2
:100B100005AD02D0046B02D0010E046F13D0045156
:100B2000040810E10151080DF350076BE96E040E43
:100B30000725EA6EEFCF05F105AD03D0010E046F76
:100B400001D0046B042D03D0C80E056F02D0880EAF
:100B5000056F03B1058103B305830151080DF350FF
:100B6000076B066F040E0627000E072306C1E9FF78
:100B7000040E0725EA6E05C1EFFF010E016E05D0D8
:100B800000D00001000E016E01010001000CA9510E
:100B9000010A05E0020A14E0010A16E027D0EA6A19
:100BA0005C0EE96E040EE26E180EE16E080E016E28
:100BB000E6CFEEFF012EFCD7030EA96F8BDE18D017
:100BC000FB6B05DCA96B14D0EA6A530EE96E040EC8
:100BD000E26E180EE16E070E016EE6CFEEFF012EFB
:100BE000FCD7A96BFB6BE7EC01F002D0A96B00D03E
:100BF00026EF06F0F951080DF350FB6BFA6F010E6A
:100C0000FA25016E000EFB21036E01C0E9FF040E00
:100C10000324EA6E036AEFCF01F003C002F01CEF79
:100C200006F0A491020EF96FFA6FC5DE000CA481E4
:100C3000A66B020EF96FDED701C0A5F0A55301E146
:100C4000F0DF2BEF06F0F85302E1A1D704D0F85102
:100C5000020801E1ECD7000CF9C06EFFF95303E084
:100C6000040E4C6E02D0020E4C6E3CEF06F0456A4C
:100C7000446A4EC0F9F0F0D7A6EF06F0F9C006F1CD
:100C8000F6DE015241E0F951080DF3500101026B0B
:100C9000016F040E0127000E0223020E0125016ED2
:100CA000000E0221036E01C0E9FF040E0324EA6E68
:100CB000ECCF03F0ED52EFCFFFF0000103C000F1E5
:100CC00000C1EAFFFFC0E9FFFBC0E2FFFAC0E1FF9D
:100CD000FDC002F0FCC001F0015202E0022A02D085
:100CE000025206E0E6CFEEFF012EFCD7022EFAD725
:100CF000F9C001F1FDC003F1FCC002F1FEC004F136
:100D0000D8DE015003D000D0000E016E000C020EA0
:100D1000F96FFB6B640EFA6FFD6BA3C0FCF0020E63
:100D2000FE6FACDFA3C0A8F0A36B000CA35301E0DF
:100D3000EEDFABEF06F0F8530AE1442C03D0EDEC04
:100D400001F004D04450020801E191D704D0F851D9
:100D5000020801E1EBD7000C4B30F66FF633F633A7
:100D60001F0EF6174B5246E1040100513C0B0001E7
:100D7000F76F430E040100170001F751340820E11A
:100D800004010451800B01E0046B0001FAD56D9859
:100D90004D3C05D0F96B030EFA6F0DDE10D0F96BE8
:100DA000020EFA6F08DE4D50FE0809E00101016BEA
:100DB000036B4DC002F1040E046F00017ADE19D0FE
:100DC000F751040816E1F86B3EDFF96B020EFA6F7B
:100DD000F2DD4D50FE080CE04D3C01D009D0010180
:100DE000016B036B4DC002F1010E046F000161DE67
:100DF00000D05CD04B50040816E1430E04010417E8
:100E0000FF0E4D6E0001F86B96DF4D3C01D00AD00D
:100E10000101016B036B4DC002F1020E046F000172
:100E200048DE00D043D04BB41BD0F651080DF35030
:100E3000F96B016E040EF925036EF651080DF3509F
:100E4000FB6BE96E040EFB25EA6EEF50430B03C00B
:100E5000EAFF01C0E9FFEF6EF6C0F8F0F4DE26D03D
:100E6000F651080DF350F96BF86F040EF827000ED9
:100E7000F923F8C001F0040EF925036EF651080DB0
:100E8000F350FB6BFA6F040EFA27000EFB23FAC037
:100E9000E9FF040EFB25EA6EEF50430B03C0EAFFA7
:100EA000F8C0E9FFEF6EF6C0F8F045DF8FEF07F00E
:100EB000A19A4C5201E139D0685237E068A404D0BD
:100EC00069A402D021EF01F06DA201D02ED068AA52
:100ED00004D069AA02D039EF01F068A204D069A257
:100EE00002D040EF01F068A004D069A002D0CAEFA0
:100EF00001F068A804D069A802D0DFEF01F068AC67
:100F000004D069AC02D0E4EF01F0F56B68A608D01C
:100F100069A606D06CCF4BF002EC00F01DD701D0D3
:100F200004D0F551F52B0308F1E230EF00F00A0D83
:100F300074657374202575006D6A696A080E6F6E9A
:100F400094503009946E4C6A196AF2BE198EF29E62
:100F5000B6EC01F019BEF28E000CEEDFDFEF07F009
:100F6000196AF2BE198EF29EB6EC01F019BEF28E2D
:100F70006D6A140E6F6E696A6D86010E4C6EC7EF56
:100F800007F0938481A404D06DB601D0E9D703D0D3
:100F90006DA601D0D1DF4C2C0BD06DBA09D0686A98
:100FA000696AA08AC00EF212110E696E020E4C6EB2
:100FB000000C4550016E000CA5EC01F0CED7E1DF2E
:100FC000938481A40AD0F5DF015204E0010E016E82
:100FD00006D003D0000E016E02D0FF0E016E06EFA8
:100FE00008F0EA6ADF0EE96EEF500EE0050E016EC2
:100FF000006A002EFED7012EFBD72E0E006E002EAB
:10100000FED700D0EF2EF2D7000CD6D701C0B1F03A
:101010009698D190800ED56ECD6A000ECA6E000EE5
:10102000CB6E070EB46E9250926E0D0E006E002EB7
:10103000FED7B450A19CB56A000E966E936E800EDA
:10104000956E8D9096908D8296928D8496940C0ECE
:10105000DC6FFA0EDF6FC5DFDC2FFBD737EF0BF04D
:1010600090DF938481A40AD0A4DF015204E0010E32
:10107000016E06D003D0000E016E02D0FF0E016E8D
:1010800043EF08F0EDD7012C08D08D8096908D921B
:101090009692010E016E08D007D08D9096908D82A9
:1010A0009692000E016E00D038EF0BF0E691F2BE82
:1010B000E681F29EA3513E0802E23E0EA36FA351C9
:1010C000A32B036A640FE96E000E0320EA6EE5C0ED
:1010D000EFFFF29EE6B1F28E71EF08F0E4C0E5F0AA
:1010E000E5D7196AF2BE198EF29E020E0101066F53
:1010F0000001BDDC19BEF28E015207E0196AF2BE92
:10110000198EF29E04DE19BEF28E000CA3513E0829
:1011100015E2196AF2BE198EF29E020E0101066FE7
:101120000001A5DC19BEF28E015207E0196AF2BE79
:10113000198EF29EECDD19BEF28EE8D7E3C0E4F022
:10114000CDDF000C0900F6CFDDF0F7CFDEF0F5CFF4
:10115000E3F0DCDFDDC0F6FFDEC0F7FFDC2FF2D707
:1011600042EF0BF0E451016AE35D03E2E3C000F0FB
:101170000CD0006A080EE56FE3370036E451005CDE
:10118000D8B0006E0136E52FF7D7000C0150DCC057
:10119000E3F0640EE46FE6DF00C0DCF00150300ED7
:1011A00007E1DDA30CD0DDB70AD0DDB9200E03D0F6
:1011B000DD97DD99DD81012601C0E3F0A7DFDCC00A
:1011C000E3F00A0EE46FCEDF00C0DCF00150300E19
:1011D00006E1DDB708D0DDA106D0DDB9200E01267D
:1011E00001C0E3F093DF300EDC27DCC0E3F08EDFDC
:1011F00047EF0BF0A4B101D0FDD7A651A62B036A8F
:10120000300FE96E040E0320EA6EEFCFDCF0A5513B
:10121000A65D07E3196AF2BE198EF29E02DD19BEC1
:10122000F28EDCC001F048EF0BF0DC6BDD6B720E70
:10123000E36F6CDF958C959A8C9A040EDE6FFA0E34
:10124000DF6FCFDEDE2FFBD7959A8C8A0C0EDE6F18
:10125000FA0EDF6FC6DEDE2FFBD7000E016E63EFE6
:101260000BF00900F6CFDEF0F7CFDFF0F5CFE3F0BB
:101270004DDFDEC0F6FFDFC0F7FFDD2FF2D7AFEFA7
:1012800009F0200EDEA9300EDF6FDDC000F0DDAF0B
:1012900007D0001E002A00C0DDF02D0EDF6FDE8FAC
:1012A0000150DDC0E3F0640EE46F5CDF00C0DDF0F0
:1012B000300E0124E06FDDC0E3F00A0EE46F52DF70
:1012C000300E0024E26F300E0124E16FDFC000F029
:1012D000DEA702D0DEAFDE95DEB90BD0DEAF22D0C6
:1012E000DEB520D000C0E0F0DEB31CD000C0E1F0DD
:1012F00019D0300EE05D16E100C0E0F0200EDF6F87
:10130000DEA704D0DE95DE83DEAFDE93300EE15D36
:1013100009E100C0E1F0200EE06FDEA7F7D7DE9311
:10132000DEAFDE91DEA503D0DFC0E3F0EFDEDEA3AB
:1013300003D0E0C0E3F0EADEDEA103D0E1C0E3F0D9
:10134000E5DEE2C0E3F0E2DEB4EF09F0DCC027F056
:101350003A0EF66E020EF76E050EDD6F82D727C0CD
:10136000DDF01F0EDE6F8DD7000CDFBF0FD00F0E2C
:10137000006EDE3900160A0E005C03E2300E002615
:1013800002D0DF51002600C0E3F0C0DE0F0EDE17F2
:101390000A0EDE5D02E2300E02D0DF9FDF51DE2753
:1013A000DEC0E3F0B3DE000C9EA8FED7AD6EE9EF21
:1013B00009F00A0EE36FAADE0D0EE36FA7DE3E0E04
:1013C000E36FA4DEDCC0DEF0370EDF6FCEDFDC5172
:1013D000EBD7000C040EE15F09E3EA6AE10EE96E67
:1013E000EF5004E001D00000EF2EFDD701EF0AF02E
:1013F0000C0EDF6F850EDE6F020EE06F9B0EE16F4D
:10140000E9D7E02FFBD7DE2F05D0DF2F03D0256AE9
:10141000016A0AD09EAAF0D7AB50256EAE50016E7D
:1014200025A202D0AB98AB88000CDC6B0A0EDD6FF6
:1014300026949EBA0CD0DD530AE0DC5308E1D8DFD5
:1014400001C0DCF02A0EE36F61DEDD07F2D7DC536A
:1014500003E1CEDF01C0DCF00A0EE36F57DE0D0EB4
:10146000E36F54DE3C0EE36F51DEDCC0DEF0570E5E
:10147000DF6F7BDFDCC001F0000CDC6B67DF550E3B
:10148000DC6F97DFD2DF01C03DF03D50060803E07E
:10149000010E016E07D026822690010EDC6F56DF0A
:1014A000000E016E57EF0BF0560EDC6F82DFBDDFD2
:1014B00001C020F0BADF01C021F0B7DF01C022F087
:1014C000B4DF01C023F0B1DF01C024F00A0EE36FE6
:1014D0001DDE0D0EE36F1ADE20C0DEF0570EDF6F4B
:1014E00044DF200EE36F12DE21C0DEF0570EDF6F07
:1014F0003CDF200EE36F0ADE22C0DEF0570EDF6F06
:1015000034DF200EE36F02DE23C0DEF0570EDF6F04
:101510002CDF200EE36FFADD24C0DEF0570EDF6F04
:1015200024DF63EF0BF0200EDDA9300EDE6FDCC090
:1015300000F0DCAF07D0001E002A00C0DCF02D0E4A
:10154000DE6FDD8F0150DCC0E3F0640EE46F0ADE75
:1015500000C0DCF0300E0124DF6FDCC0E3F00A0EC7
:10156000E46F00DE300E0024E16F300E0124E06FE6
:10157000DEC000F0DDA702D0DDAFDD95DDB90BD018
:10158000DDAF22D0DDB520D000C0DFF0DDB31CD050
:1015900000C0E0F019D0300EDF5D16E100C0DFF0D2
:1015A000200EDE6FDDA704D0DD95DD83DDAFDD939A
:1015B000300EE05D09E100C0E0F0200EDF6FDDA736
:1015C000F7D7DD93DDAFDD91DDA503D0DEC0E4F01C
:1015D00085DDDDA303D0DFC0E4F080DDDDA103D035
:1015E000E0C0E4F07BDDE1C0E4F078DD71EF0BF00A
:1015F000F86AD09E078EEA6AE96AB886A00EAF6ED6
:10160000010EB06EA60EAC6E900EAB6E26902692BA
:101610002694276A286A296A2D6A2C6A2B6A2A6A04
:10162000010E3A6E800E3B6E3C6A150E3D6E4C6AA2
:10163000506AA36BA96BAA6BB16BC150C00B0F09A9
:10164000C16E070EB46E1A6A1B6A256A206A216A87
:10165000226A236A246A3E6A3F6A486A040E496E17
:101660000C0E4A6EAB6BAC6BDA6BDB6BCED40AD56F
:10167000015238E0DA2B2E0EF66E0F0EF76E070EC3
:10168000DC6F60D5DAC0DCF01B0EDD6F7FD5B2D524
:1016900001C0DBF0DB53FBE0DB51720A05E01B0A03
:1016A00005E00F0A07E008D0C0D50DD0E6D601C08E
:1016B000B1F009D0F9D607D0140EDC6FFA0EDF6F47
:1016C00090DCDC2FFBD70A0EE46F08DD0D0EE46F13
:1016D00005DD450EE46F02DDB1C0DCF01F0EDD6FED
:0816E00022D7B16BC4D703004F
:020000040030CA
:0E0000003CCE3E1E008581000FC00FE00F4079
:00000001FF
;PIC18F4550
;CRC=4759  CREATED="28-Feb-13 10:19"
