:040000007FEF03F09B
:08000800046ED8CF05F0E0CF33
:1000100006F00001E9CF0CF0EACF07F0E1CF08F0DD
:10002000E2CF09F0D9CF0AF0DACF0BF0F3CF12F01C
:10003000F4CF13F0FACF14F0F5CF15F0F6CF16F099
:10004000F7CF17F000C00EF001C00FF002C010F0A3
:1000500003C011F0A0A230EF00F0A1B263EF00F0F6
:100060009DA436EF00F09EB467EF00F0A0A03CEF37
:1000700000F0A1B0A4EF00F00EC000F00FC001F03E
:1000800010C002F011C003F00CC0E9FF07C0EAFF86
:10009000078E08C0E1FF09C0E2FF0AC0D9FF0BC00C
:1000A000DAFF12C0F3FF13C0F4FF14C0FAFF15C04B
:1000B000F5FF16C0F6FF17C0F7FF045006C0E0FFBB
:1000C00005C0D8FF1000512AA1923CEF00F04F501C
:1000D000FF0808E19484BD6A040EBD6EB76AB66A73
:1000E0004F6A2FD04F5212E1016A746A756ABE508E
:1000F0007424566EBF507520576E000E5120586EF6
:10010000000E0120596E010E4F6E1BD04F2C19D0DE
:1001100059C055F058C054F057C053F056C052F073
:10012000016A746A756ABE507424566EBF50752099
:10013000576E000E5120586E000E0120596E020EAF
:100140004F6E9E943CEF00F04F50FF0808E19484FE
:10015000BD6A040EBD6EB76AB66A4F6A2FD04F52A1
:1001600012E1016A746A756ABB507424566EBC5001
:100170007520576E000E5120586E000E0120596EEA
:10018000010E4F6E1BD04F2C19D059C055F058C0DE
:1001900054F057C053F056C052F0016A746A756A41
:1001A000BB507424566EBC507520576E000E512003
:1001B000586E000E0120596E020E4F6EA1903CEF5A
:1001C00000F0C69E9E9673C0C9FF020EC6BE05D043
:1001D0009EA6FED7000EC5BC010E016E000C6C6A17
:1001E000C580C5B0FED7A00E736EEBDF01C06CF00A
:1001F000736AE7DF69C073F0E4DF01C06CF06C5232
:1002000003E0010E016E17D06BC003F06AC0E9FF76
:100210006BC0EAFFEFCF6DF06DC073F0D2DF01C0AD
:100220006CF06C5203E0020E016E05D0C584C5B4BB
:10023000FED7000E016ECEEF01F0C580C5B0FED72F
:10024000A00E736EBEDF01506D9001B06D80C5844D
:10025000C5B4FED7000E6DA0010E016E41EF01F096
:10026000C69CC586C5B6FED700B0C59A00A0C58A93
:10027000C588C5B8FED7C9CF01F06CEF01F06C6A34
:10028000DCD70152FDE0C580C5B0FED7A00E736E6D
:1002900098DF01C06CF0736A94DF69C073F091DF7E
:1002A00001C06CF06C5203E0010E016E1CD0C582DF
:1002B000C5B2FED7A10E736E84DF01C06CF06C5224
:1002C00003E0020E016E0FD06BC003F06AC0E9FFBD
:1002D0006BC0EAFF006AC4D701C0EFFFC584C5B494
:1002E000FED7000E016EDBEF01F06F6A706A71904D
:1002F000C580C5B0FED7A00E736E63DF01C06FF07E
:10030000736A5FDF6BC073F05CDF01C06FF06F5228
:1003100003E0010E016E21D07050702A036A6C2434
:10032000E96E6D500320EA6EEFCF72F072C073F089
:1003300048DF0150719001B0718071B003D06E50F0
:10034000705CEAE3C584C5B4FED76E50705C03E010
:10035000020E016E02D0000E016EFCEF01F0EA6A9F
:10036000690EE96EEF500EE0030E016E006A002E7A
:10037000FED7012EFBD73C0E006E002EFED700D01C
:10038000EF2EF2D7000C606A676A686A090E676E22
:10039000160E696E6B6A670E6A6E21D701C060F037
:1003A000605203E060C001F033D0160E696E6B6AD4
:1003B000680E6A6E64D701C060F0605203E060C0EE
:1003C00001F026D06850675C04E09D0E016E20D0DD
:1003D00002D068C040F0636A63C062F062C061F03E
:1003E000016A610E006E100E6B6E01C06DF000C0F0
:1003F0006CF0060E6E6E79D701C060F0605203E0BB
:1004000060C001F005D0640E696EA9DF000E016EB8
:100410005EEF03F0C150C00B0C09C16EC050C00BA1
:100420000A09C06EC08EC280070E926E000E016E69
:1004300061EF03F050C0B1FFB190B36AB26A4D50A2
:10044000080BD8B48294BD6A4DC0BDFFB76AB66AC6
:100450004E50080BD8B48292BA6A4EC0BAFF948448
:100460009482000E016E64EF03F06050070B006E83
:100470006030016E013201321F0E011601506224FC
:10048000E96E000E6320EA6E016A012A002A01D09B
:100490000136002EFDD7615203E00150EF1203D068
:1004A000011E0150EF16000C6050070B006E60300B
:1004B000016E013201321F0E011601506124E96EF6
:1004C000000E6220EA6EEFCF01F0002A01D0013267
:1004D000002EFDD78FEF02F023C060F0616A0F0E8F
:1004E000636E890E626EC1DF23C060F0616A0F0E19
:1004F000636E920E626EB9DF050E696E30DF23C047
:1005000060F0010E616E0F0E636E920E626EADDFD3
:1005100023C060F00F0E626E800E616EC5D71CEFB7
:1005200003F0F2CF61F0F29E959C8C9C080E016E58
:1005300000D00000018E0ED0019E6032D8B08C8CAD
:10054000D8A08C9C018C06D0019C012EF6D700D03F
:1005500000008C8C500EE96EE92EFED700D001BE53
:10056000EBD701BCF1D761BEF28E000C070E635EC3
:100570000BE3EA6A630EE96ED890EF32EF5004E0C5
:1005800001D000D0EF2EFDD7000C958E83BEFED794
:10059000080E006E626AF2CF63F0F29E008E0ED0FB
:1005A000009E0CD0D89083BED8806232008C06D0DA
:1005B000009C002EF7D762C001F00CD0500E00BE98
:1005C000150E016E012EFED7000000BEE9D700BC5B
:1005D000EFD7E8D763BEF28E0EEF03F01D94616A89
:1005E000606A9EBA18D0602AD8B4612A6150C308E4
:1005F00012E303E160504F080EE322C062F0622A6A
:100600006206D8B404D0FF0E636EB0DFF9D721C004
:1006100063F0ACDFE6D79EAA04D0B7D7015005D06F
:1006200004D01D84000E016E00D0000C1DB203D05A
:10063000FF0E016E3ED050D7050E606E6E0E696ED5
:100640008EDE602EFBD7550E606E6BDFC7DF01C0FC
:100650003DF03D5202E11DB403D03D50060803E0D9
:10066000010E016E26D0690E606E5BDFB7DF01C040
:100670003DF03D5202E11DB403D03D50060804E0B8
:10068000020E016E16D001D01D80560E606E49DF3D
:10069000A5DF01C029F0A2DF01C02AF09FDF01C061
:1006A0002BF09CDF01C02CF099DF01C02DF0000E73
:1006B000016E67EF03F0FF0E5F6E65D601C05FF05D
:1006C000A9D601C05FF0B6D601C05FF0AFD701C0B8
:1006D0005FF09698D190800ED56ECD6A000ECA6EEE
:1006E000000ECB6E070EB46E9250926E080E006E26
:1006F000002EFED7B450A19CB56AF5EF03F0F86A5E
:10070000D09E078EEA6AE96AB896400EAF6EA60ED2
:10071000AC6E900EAB6E94869488180EC86E280E40
:10072000C66EC78EC79C94869488180EC86E280E15
:10073000C66EC78EC79C959C8C8C1D901D921D9477
:10074000FF0E1E6E1F6A206A226A0A0E216E7C0E40
:10075000246E1D0E236E286A276A266A256A010EFA
:100760003A6E800E3B6E3C6A150E3D6EB896400E9A
:10077000AF6EA60EAC6E900EAB6E050E4D6E4E6E4D
:10078000FF0E4F6ECD0E506E516A556A546A536A11
:10079000526A596A586A576A566AC150C00B0F09A3
:1007A000C16E070EB46E196A1A6A1B6A1C6A296A3E
:1007B0002A6A2B6A2C6A2D6A3E6A3F6A010E406ED5
:1007C000020E416E030E426E800E436E446E456E05
:1007D000466E476E486E496A4A6A4B6A4C6A5D6A61
:1007E0005C6A5B6A5A6A5E6A66D75E5204E1FA0E18
:0807F000696EB5DDFAD70300C4
:020000040030CA
:0E00000000C2190E008781000FC00FE00F40F4
:00000001FF
;PIC18F4620
;CRC=98DF  CREATED="21-Sep-12 12:18"
