:1000000041EF16F06896000C046ED8CF05F0E0CFF3
:1000100006F00001E9CF0CF0EACF07F0E1CF08F0DD
:10002000E2CF09F0D9CF0AF0DACF0BF0F3CF12F01C
:10003000F4CF13F0FACF14F0F5CF15F0F6CF16F099
:10004000F7CF17F000C00EF001C00FF002C010F0A3
:1000500003C011F0A0A230EF00F0A1B273EF10F0D6
:100060009DA436EF00F09EB477EF10F0A0A03CEF17
:1000700000F0A1B0C9EF10F0A0AA42EF00F0A1BAC1
:10008000E8EF07F00EC000F00FC001F010C002F062
:1000900011C003F00CC0E9FF07C0EAFF078E08C0DB
:1000A000E1FF09C0E2FF0AC0D9FF0BC0DAFF12C0AE
:1000B000F3FF13C0F4FF14C0FAFF15C0F5FF16C01C
:1000C000F6FF17C0F7FF045006C0E0FF05C0D8FFD9
:1000D0001000F76AE20FF66E000EF7220900F550E5
:1000E0001200000302FFFFFFFFFFFFFFFFFFFFFF04
:1000F000FFFFF76A020FF66E010EF7220900F550B6
:10010000120000FF02FFFFFFFFFFFFFFFFFFFFFFE7
:10011000FFFFF76A220FF66E010EF7220900F55075
:10012000120008000800400000000000000000006D
:1001300000000000000000000000000000000000BF
:100140000000F76A520FF66E010EF7220900F55013
:100150001200080000004000000000000000000045
:10016000000000000000000000000000000000008F
:100170000000F76A820FF66E010EF7220900F550B3
:10018000120009024300020100C03209040000010C
:1001900002020100052400100104240202052406C5
:1001A00000010524010001070581030800FA090484
:1001B0000100020A000000070502024000010705D5
:1001C00082024000FA00F76AD60FF66E010EF7229F
:1001D0000900F55012000200F76AE80FF66E010EF2
:1001E000F7220900F5501200120017001B00200032
:1001F000FFFFFFFFFFFFFFFFF76A080FF66E020E1B
:10020000F7220900F5501200120110010200000847
:10021000D8040B00000101020001F76A2A0FF66EF4
:10022000020EF7220900F550120004030904080326
:1002300043004300530028035500530042005F0071
:1002400043006F006E00740072006F006C005F006E
:100250004400650076006900630065007300F76A7A
:100260006E0FF66E020EF7220900F5501200F20032
:10027000010110011F012E013D014C015B01F76AD4
:100280008E0FF66E020EF7220900F55012000000E4
:100290006D92699468A402D06894FCD7F4EF07F0DB
:1002A000080E0401016F040E036F180E026F880E12
:1002B000006F046B040E076F200E066F0001000C28
:1002C00070A002D0EDDF7090689AFDEF07F06A6AC7
:1002D000689203EF08F00201B291B1BFB281B19F01
:1002E000B151100803E2000E016E1BD0B2A10DD077
:1002F000036AB1510001EDDEFF0802E1000E01D0FA
:10030000010E016E02010DD00CD0036AB151000143
:10031000F0DEFF0802E1000E01D0010E016E0201C5
:1003200000D00001000C036A0201B051700FE96EA9
:100330000F0E0320EA6EEF6AB0C2B1F20001CBDF0C
:10034000015219E00201B051080DF350B26BE96E91
:10035000040EB225EA6EEF6AB051080DF350B26B8D
:10036000B16F040EB127000EB223B1C2E9FF040E33
:10037000B225EA6EEF6A0001000C010E0201AF6FB8
:10038000AF510F0807E3AFC2B0F20001CCDF0201AA
:10039000AF2BF6D70001000C356A346A250E336E98
:1003A000800E326E366A376A080E386E876B869119
:1003B0003A6A396A826B8391000C0201A56BA551E0
:1003C00001080AE3036AA551300FE96E000E03200D
:1003D000EA6EEF6AA52BF3D70001DEDF246A010E77
:1003E000256E236A000C6A6A686A9F0E6B6E3D0E6A
:1003F000696E6E6AC2DFE1DF160E706E68A602D00B
:1004000001DEFCD76D984CDF030E2B6E09EF08F070
:10041000698468986D820FEF08F0689C15EF08F00A
:10042000AAC22CF0000CFF0E2C6E000C0201A86B6F
:100430002F522CE0A851070829E32650000A00019A
:1004400005E0020A09E0010A0DE012D0036A2E500D
:1004500090DEE8CFA9F20CD0036A2E50DEDEE8CFA2
:10046000A9F206D0036A2E50C7DEE8CFA9F200D069
:100470002E2A2F060201A851A82B036A200FE96E2D
:10048000040E0320EA6EA9C2EFFFD2D72F5204E177
:10049000A851080801E0236AA8C2AAF20001C0DF3F
:1004A000000C2E6A266A04011B51010A000107E0B4
:1004B000030A0AE0010A0BE0220A1BE02FD0120E09
:1004C0002F6E030E266E2CD0430E2F6E29D0020EF7
:1004D000266E036A04011A51270FE96E000E0320ED
:1004E000EA6EEFCF2EF0036A2E50000196DE2F6EDB
:1004F00017D0D89004011A35036A00016DDE090097
:10050000F5CF03F02E6E2E3C01D006D0036A2E509C
:1005100030DE2F6E05D002D086DF0ED084DF0CD007
:1005200004011F5305E12F501E5D02E21EC42FF08F
:10053000010E236E00017ADFC8EF03F00201A7531A
:1005400006E1040E2B6E000118DFC5D00201050E76
:100550002B6E040EAA6F280EA96F010EA86FA8516A
:100560000F08D8A0B8D0A8C2B0F20001DCDE0201AA
:10057000AB6B036AA8510001BCDDFF0853E0040E19
:100580000201AB6FD890A835036A0001DADD0900DB
:10059000F5CF03F00201AC6F03C0ADF2A851080D16
:1005A000F350B06BAF6F010EAF25016E000EB0219E
:1005B000036E01C0E9FF040E0324EA6EACC2EFFF34
:1005C000A851080DF350B06BAF6F020EAF25016E4E
:1005D000000EB021036E01C0E9FF040E0324EA6E91
:1005E000AAC2ECFFED52A9C2EFFFD890A835036A6A
:1005F0000001A7DD0900F5CF03F00201A927035090
:10060000AA23880EAE6FADB1AE81ADB3AE83A85153
:10061000080DF350B06BE96E040EB025EA6EAEC261
:10062000EFFF0001036A0201A851000152DDFF083B
:1006300037E00201AB83A851080DF350B06BAF6FE8
:10064000040EAF27000EB023020EAF25016E000E80
:10065000B021036E01C0E9FF040E0324EA6EAAC2B2
:10066000ECFFED52A9C2EFFFD890A835036A000154
:1006700050DD0900F5CF03F00201A9270350AA239A
:10068000A851080DF350B06BAF6F040EAF27000EEA
:10069000B023AFC2E9FF040EB025EA6E400EEF6E44
:1006A0000201AB51060802E10E0EAB6F036AA851BE
:1006B00000010FDD010803E00201AB890001036ABC
:1006C0000201A851700FE96E0F0E0320EA6EABC253
:1006D000EFFFA82B44D70001C0EF03F0040119512C
:1006E000000A00010DE0010A15E0020A20E0060AF6
:1006F0002AE0030A31E00E0A31E0010A37E046D071
:1007000025C020F40401216B020E0201AA6F000132
:1007100087DE3ED004011A2D07D0010E25160201F6
:10072000AA6B00017DDE02D000017DDE31D0040124
:100730001A2D06D025820201AA6B000171DE02D0BB
:10074000000171DE25D0020E236E1AC42DF00201C5
:10075000AA6B000165DE1CD0A4D61AD024C020F4F8
:10076000010E0201AA6F00015BDE12D004011A51D2
:1007700001080AE31AC424F01AC4A7F20001DED665
:100780000201AA6B00014CDE000102D04CDE00D059
:1007900037EF05F024C0A7F204011951000A000147
:1007A00005E00A0A0CE0010A2BE03FD00401206BAF
:1007B000216B020E0201AA6F000132DE38D0020165
:1007C000A7531BE0010EA75D036A0001FCDC016E6C
:1007D00004011C5DD8A002D002010FD0036A1C5195
:1007E000300FE96E000E0320EA6EEFCF20F4010E09
:1007F0000201AA6F000114DE02D0000114DE17D03E
:100800000201A7530FE0036A04011C51300FE96E87
:10081000000E0320EA6E1AC4EFFF0201AA6B00016A
:10082000FFDD02D00001FFDD02D0FDDD00D037EF9B
:1008300005F00201A891A7BFA881A79FA8A111D088
:10084000A751080DF350AA6BA96F040EA927000E3B
:10085000AA23A9C2E9FF040EAA25EA6E880EEF6E4C
:1008600009D0A751080DF350AA6BE96E040EAA2512
:10087000EA6EEF6A0001A1EF04F00201A891A7BFA0
:10088000A881A79FA8A111D0A751080DF350AA6B6A
:10089000A96F040EA927000EAA23A9C2E9FF040E1E
:1008A000AA25EA6E840EEF6E0AD0A751080DF35008
:1008B000AA6BE96E040EAA25EA6E840EEF6E0001A3
:1008C000A9EF04F00201A891A7BFA881A79FA8A142
:1008D00011D0A751080DF350AB6BAA6F040EAA27D5
:1008E000000EAB23AAC2E9FF040EAB25EA6EEFCFE0
:1008F000A9F20AD0A751080DF350AB6BE96E040EB4
:10090000AB25EA6EEFCFA9F2A9AF02D0A9B502D00C
:10091000000E01D0010E016E0001B5EF04F01CC401
:10092000B1F2D9DC01522EE004011951010A000193
:1009300005E0020A0BE0030A11E022D01CC4A7F272
:1009400078D70201AA6B00016BDD1CD01CC4A7F292
:1009500094D70201AA6B000163DD14D00401206B5F
:10096000216B1CC4A7F20001ADD7015203E0010EB8
:100970000401206F020E0201AA6F000151DD02D0B6
:1009800052DD00D037EF05F0FE0E2C6E000C040196
:100990001C2D01D002D01C534FE11951000A000157
:1009A0000BE0010A0DE0210A1CE0010A1FE0030A26
:1009B00030E0010A35E03DD0010E896FE5DF3BD024
:1009C000040EEA6E200EE96EE26A3B0EE16E080E3E
:1009D000016EE6CFEEFF012EFCD71EC4AAF220DD89
:1009E0002AD0020E896F8681CFDF25D0040EEA6EF1
:1009F000200EE96EE26A320EE16E070E016EE6CF5E
:100A0000EEFF012EFCD7070E0201AA6F000108DDE0
:100A100012D01AC487F00201AA6B000101DD0BD0CD
:100A20001AC43AF01BC439F00201AA6B0001F8DCC9
:100A300002D0F9DC00D00401000137EF05F0236A91
:100A4000040118517F0B000A000107E0010A07E0CA
:100A5000030A07E0230A07E008D040D608D09AD658
:100A600006D05DD704D093D702D0DDDC00D047EFAD
:100A700007F00201A851080DF350AE6BE96E040EA9
:100A8000AE25EA6EEFCFAAF2A951020806E1AAAD9F
:100A900002D0A96B02D0010EA96FA951030813E17E
:100AA000840EAA6FA851080DF350AE6BAD6F040E03
:100AB000AD27000EAE23ADC2E9FF040EAE25EA6EEF
:100AC000840EEF6E07D0A92D03D0C80EAA6F02D0F6
:100AD000880EAA6FD890A835036A0001A1EC00F037
:100AE0000900F5CF03F00201AB6F03C0ACF2A851CF
:100AF000080DF350AE6BAD6F010EAD25016E000E0B
:100B0000AE21036E01C0E9FF040E0324EA6EABC2FE
:100B1000EFFFACB1AA81ACB3AA83A851080DF35082
:100B2000AE6BE96E040EAE25EA6EAAC2EFFF0001BD
:100B3000000C036A0201B551700FE96E0F0E03201D
:100B4000EA6EEF5212E0B551080DF350B76BB66F75
:100B5000040EB627000EB723B6C2E9FF040EB72570
:100B6000EA6EEFCFB6F2B6AF02D0000E01D0010EA2
:100B7000016E0001000CB0C2B5F2DBDF015264E08F
:100B80000201B051080DF350B66BB56F040EB527D6
:100B9000000EB623010EB525016E000EB621036EC0
:100BA00001C0E9FF040E0324EA6EB1C2EFFFB351A6
:100BB000020817E1B051080DF350B66BB56F040E83
:100BC000B527000EB623B5C2E9FF040EB625EA6EBE
:100BD000EFCFB4F2B4AD02D0B36B02D0010EB36F5D
:100BE00013D0B351040810E1B051080DF350B66BA7
:100BF000E96E040EB625EA6EEFCFB4F2B4AD03D0C1
:100C0000010EB36F01D0B36BB32D03D0C80EB46F18
:100C100002D0880EB46FB2B1B481B2B3B483B05114
:100C2000080DF350B66BB56F040EB527000EB62352
:100C3000B5C2E9FF040EB625EA6EB4C2EFFF010E9D
:100C4000016E05D000D00001000E016E020100010E
:100C5000000C8951010A05E0020A14E0010A19E0BA
:100C60002CD0EA6A3B0EE96E040EE26E180EE16EBD
:100C7000080E016EE6CFEEFF012EFCD7030E896F42
:100C800083DE1DD00201AA6B000110EC02F0896B1B
:100C900016D0EA6A320EE96E040EE26E180EE16EAC
:100CA000070E016EE6CFEEFF012EFCD7896B020125
:100CB000AA6B000110EC02F002D0896B00D095EF16
:100CC00006F00201A851080DF350AA6BA96F010E9E
:100CD000A925016E000EAA21036E01C0E9FF040ED2
:100CE0000324EA6E036AEFCF01F003C002F00001B3
:100CF00089EF06F08391020E0201A86FA96F00012F
:100D0000B8DE000C8381856B020E0201A86F000122
:100D1000D8D701C084F0845301E1ECDF9CEF06F0EA
:100D20000201A75304E1000194D706D00201A751A4
:100D3000020803E10001E6D702010001000CA8C28D
:100D40006EFF0201A85303E0040E2B6E02D0020EC8
:100D50002B6E0001B1EF06F0246A236A2DC0A8F2C1
:100D6000EED721EF07F0A8C2B5F2E3DE015241E071
:100D70000201A851080DF350B16BB06F040EB027FB
:100D8000000EB123020EB025016E000EB121036EDC
:100D900001C0E9FF040E0324EA6EECCF03F0ED522C
:100DA000EFCFAEF203C0AFF2AFC2EAFFAEC2E9FFCF
:100DB000AAC2E2FFA9C2E1FFACC202F0ABC201F0DD
:100DC000015202E0022A02D0025206E0E6CFEEFF14
:100DD000012EFCD7022EFAD7A8C2B0F2ACC2B2F2F2
:100DE000ABC2B1F2ADC2B3F20001C5DE015003D017
:100DF00000D0000E016E000C020E0201A86FAA6B5B
:100E0000430EA96FAC6B82C0ABF2020EAD6F000156
:100E1000AADF82C088F0826B000C825301E0ECDF15
:100E200028EF07F00201A7530EE1232C05D00001A3
:100E300016EC02F006D002012350020803E1000183
:100E40008BD7020106D0A751020803E10001E5D7C4
:100E500002010001000C2A300201A56FA533A53361
:100E60001F0EA5172A524FE1040100513C0B02014D
:100E7000A66F430E040100170201A651340825E1B4
:100E800004010451800B01E0046B0001D8D56D987A
:100E90002C3C07D00201A86B030EA96F0001E9DD0D
:100EA00012D00201A86B020EA96F0001E2DD2C50E6
:100EB000FE0809E00201B06BB26B2CC0B1F2040E67
:100EC000B36F000158DE1DD00201A65104081AE1DB
:100ED000A76B000125DF0201A86B020EA96F0001BC
:100EE000C8DD2C50FE080CE02C3C01D009D00201DA
:100EF000B06BB26B2CC0B1F2010EB36F00013BDEE0
:100F000000D0020162D02A50040818E1430E040107
:100F10000417FF0E2C6E0201A76B000183DF2C3C2F
:100F200001D00AD00201B06BB26B2CC0B1F2020E3C
:100F3000B36F000120DE00D047D002012AB41DD0DB
:100F4000A551080DF350A86B016E040EA825036E81
:100F5000A551080DF350AA6BE96E040EAA25EA6E9E
:100F6000EF50430B03C0EAFF01C0E9FFEF6EA5C2DB
:100F7000A7F20001D5DE28D00201A551080DF350DB
:100F8000A86BA76F040EA727000EA823A7C201F025
:100F9000040EA825036EA551080DF350AA6BA96F86
:100FA000040EA927000EAA23A9C2E9FF040EAA2550
:100FB000EA6EEF50430B03C0EAFFA7C2E9FFEF6EF2
:100FC000A5C2A7F200012EDF0201000121EF08F007
:100FD000A19A2B5201E13ED068523CE068A404D0B3
:100FE00069A402D048EF01F06DA201D033D068AA05
:100FF00004D069AA02D060EF01F068A204D069A20F
:1010000002D067EF01F068A004D069A002D0F3EF2E
:1010100001F068A804D069A802D008EF02F068AC1B
:1010200004D069AC02D00DEF02F00201A46B68A6F7
:101030000AD069A608D06CCF2AF0000102EC00F0BB
:101040000AD702D0020105D00201A451A42B030843
:10105000EEE2000142EF00F00A0D4D4F2564000062
:101060000A0D4D57256400000A0D4D5325640000FC
:1010700086A302D0000E01D0010E8693E8B08683CD
:1010800086A303D08D84969402D08D949694700E8E
:10109000F76F100EF86F34EF18F0080E016E040EA3
:1010A000006E002EFED78A929392040E006E002EE0
:1010B000FED70101F2378A90D8B09380D8A09390E0
:1010C000938281A2FED7012E01D002D00001E7D782
:1010D000040E006E002EFED78A9293920000938039
:1010E000040E006E002EFED7040E006E002EFED7FA
:1010F000938281A2FED7016A040E006E002EFED7F5
:1011000081B001808A9293928A9093900001000CA2
:10111000080E0101F36F00C0F4F19380040E006E1D
:10112000002EFED7938281A2FED781B0D88081A005
:10113000D8900136040E006E002EFED793928A924C
:10114000F32FEBD79380040E006E002EFED78A900B
:10115000F451D8A493900000938281A2FED7040E8C
:10116000006E002EFED78A929392040E006E002E1F
:10117000FED78A9093900001000CF3C1F4F1D8904F
:101180000101F433780EF417F431006E00323F0E93
:1011900000160050F425F56FF3510F0BF525016E85
:1011A0000001000C9380040E006E002EFED7938287
:1011B000040E006E002EFED78A909390040E006EEF
:1011C000002EFED78A929392D00E0101F26F000199
:1011D00064DF030E0101F26F00015FDF9380040EF4
:1011E000006E002EFED79382040E006E002EFED7F6
:1011F00081A2FED78A909390040E006E002EFED737
:101200008A929392D10E0101F26F000146DF010E26
:10121000006E7EDF01507F0B0101EE6FF36F000166
:10122000ACDF01C08AF0010E006E72DF01503F0B8F
:101230000101EE6FF36F0001A0DF01C0E2F0010ECB
:10124000006E66DF01501F0B0101EE6FF36F0001AE
:1012500094DF01C0E3F0006A5BDF01C0EEF101C082
:10126000F3F18BDF01C0E4F093900000938281A240
:10127000FED7040E006E002EFED700D00000938033
:10128000040E006E002EFED79380040E006E002E1A
:10129000FED79382040E006E002EFED78A909390A4
:1012A000040E006E002EFED78A929392D00E01019A
:1012B000F26F0001F2DE0101F26B0001EEDE9380BD
:1012C000040E006E002EFED79382040E006E002ED8
:1012D000FED781A2FED78A909390040E006E002E56
:1012E000FED78A929392D10E0101F26F0001D5DEF2
:1012F000010E006E0DDF01507F0B0101EE6FF36FE9
:1013000000013BDF01C0E7F0010E006E01DF01507C
:101310007F0B0101EE6FF36F00012FDF01C0E6F0DC
:10132000006AF6DE01503F0B0101EE6FF36F000122
:1013300024DF01C0E5F093900000938281A2FED7E4
:10134000040E006E002EFED700D000009380040E25
:10135000006E002EFED7A40E0101066F110E076F5E
:1013600034EF18F002016A35006E0036FC0E0016EC
:10137000C250C30B0010C26E0D0E006E002EFED7C1
:10138000C2826D91C2A26D816DA1FBD76CC203F0C8
:101390006BC2E9FF6CC2EAFFC2B2FED7C3CFEFFF58
:1013A000C4CFECFF1A0E006E002EFED70000000E18
:1013B000016E0001000CF1C0EAFFF0C0E9FF02017C
:1013C0008BC2EFFFE92AD8B4EA2AEF6A0001F02BBA
:1013D000D8B4F12B000C02018ABF11D00F0E006EA1
:1013E000893900160A0E005C03E2300E002602D096
:1013F0008A51002600C08BF20001DDDF02010F0ED2
:1014000089170A0E895D02E2300E02D08A9F8A5146
:10141000892789C28BF20001CEDF000C8DC28FF2CA
:101420008CC28EF28FC203F002018EC2E9FF8FC21E
:10143000EAFFEF5206E08E2BD8B48F2B0001F2D7D3
:1014400002018C518E5D006E8D518F59036E00C06C
:1014500001F00001000C02019591F2BE9581F29E0F
:10146000000182513E0802E23E0E826F8251822BC1
:10147000036A430FE96E000E0320EA6E94C2EFFF89
:10148000F29E020195B1F28E00014AEF0AF093C27A
:1014900094F2E1D7196AF2BE198EF29E020E020191
:1014A000B56F000199EC05F019BEF28E015207E00C
:1014B000196AF2BE198EF29E9FDC19BEF28E000CE4
:1014C0000900F6CF8EF2F7CF8FF2F5CF93F2DFDF80
:1014D0008EC2F6FF8FC2F7FF02018D2F01D002D01E
:1014E0000001EED70001000C02019451016A935DE6
:1014F00003E293C200F00CD0006A080E956F933798
:1015000000369451005CD8B0006E0136952FF7D7A5
:101510000001000C200E02018EA9300E8F6F8DC2CB
:1015200000F08DAF07D0001E002A00C08DF22D0EF6
:101530008F6F8E8F01508DC293F2640E946F0001F5
:10154000D3DF00C08DF2300E01240201906F8DC2F6
:1015500093F20A0E946F0001C7DF300E00240201DF
:10156000926F300E0124916F8FC200F08EA702D0CF
:101570008EAF8E958EB90BD08EAF22D08EB520D087
:1015800000C090F28EB31CD000C091F219D0300E82
:10159000905D16E100C090F2200E8F6F8EA704D0F0
:1015A0008E958E838EAF8E93300E915D09E100C0D3
:1015B00091F2200E906F8EA7F7D78E938EAF8E91FB
:1015C0008EA505D08FC293F2000161DF02018EA3C8
:1015D00005D090C293F200015ADF02018EA104D01F
:1015E00091C293F2000153DF92C293F200014FDFE8
:1015F000000C8CC2B9F1360EF66E220EF76E050E97
:1016000002018D6F00015CDFB9C18DF21F0E020176
:101610008E6F00017FDF000C8DC292F28CC291F2BE
:101620000201905324E08FC203F08EC2E9FF8FC203
:10163000EAFFEF521CE092C203F09151912BD8B413
:10164000922B936F03C094F28FC203F08E518E2BB6
:10165000D8B48F2BE96E03C0EAFFEFCF95F294C2A6
:10166000EAFF93C2E9FF95C2EFFF9007DAD79053E4
:101670000CE092C203F09151912BD8B4922BE96EF9
:1016800003C0EAFFEF6A9007F2D78CC201F08DC267
:1016900002F000017AEF0BF086B503D0010E016E67
:1016A00034D002018B5306E0050E8C6F0001A1DFE0
:1016B00005D00201030E8C6F00019BDF8AC28DF200
:1016C00089C28CF2ABDE01C0BBF10101BB510C0839
:1016D00002E3BB5101D00C0EBB6F010E02018D6FF6
:1016E000C50E8C6F8AC28FF289C28EF2BBC190F296
:1016F000000192D70101BA6B00018699010E010128
:10170000D16F150ED46F000E016E0001A1EF0EF027
:1017100002018FBF11D00F0E006E8E3900160A0E17
:10172000005C03E2300E002602D08F51002600C07C
:1017300093F20001ACDE02010F0E8E170A0E8E5DD1
:1017400002E2300E02D08F9F8F518E278EC293F20D
:1017500000019DDE000C9EA8FED7AD6ECAEF0BF017
:101760000A0E0201936F000192DE0D0E0201936FCB
:1017700000018DDE3E0E0201936F000188DE8DC2F6
:101780008EF2370E02018F6F0001C2DF02018D5110
:101790000001E1D7200E0201936F000178DE650E93
:1017A0000201936F000173DEB8C18EF2370E0201A1
:1017B0008F6F0001ADDF000C040E0201915F0AE3A0
:1017C000020EEA6E910EE96EEF5004E001D00000C7
:1017D000EF2EFDD70001F8EF0BF00C0E02018F6F1A
:1017E000850E8E6F020E906F9B0E916F0001E4D7F5
:1017F0000201902FF9D78E2F07D08F2F05D001012E
:10180000B86B016A0CD002019EAAECD7AB50010163
:10181000B86FAE50016EB8A302D0AB98AB88000190
:10182000000C02018C6B030E8D6F000186999EBA2D
:1018300018D002018D53D8A402D0000112D08C53CD
:10184000D8B402D000010DD00001C7DF01C08CF276
:101850002A0E0201936F00011ADE02018D070001BA
:10186000E6D702018C5305E10001B7DF01C08CF21D
:1018700002010A0E936F00010ADE0D0E0201936F42
:10188000000105DE3C0E0201936F000100DE8CC2F8
:101890008EF2570E02018F6F00013ADF200E020117
:1018A000936F0001F4DD650E0201936F0001EFDD1F
:1018B000B8C18EF2570E02018F6F000129DF0201BD
:1018C0008CC201F00001000C86B503D0FF0E016E42
:1018D00075D00101B951050804E0FE0E016E00014A
:1018E0006DD00201895307E08951640804E30101C6
:1018F000D16B06D00201FD0E016E00015FD0010127
:10190000BF6BBE6BBD6B89C2BCF1400E02018D6F17
:10191000000126DF740E02018D6F000121DF01013D
:10192000D151D211D31102018A6F8D6F000118DFDE
:101930000101BA6BBB51BA5D10E2036ABA51C50F1F
:10194000E96E010E0320EA6EEFCF8AF28AC28DF2B1
:10195000000106DF0101BA2BEDD702018D6B0001FA
:10196000FFDEBFC18AF2BFC18DF2FADEBEC18AF2CC
:10197000BEC18DF2F5DEBDC18AF2BDC18DF2F0DED1
:10198000BCC18AF2BCC18DF2EBDE4BDF01C0D4F1E9
:101990000101D45305E1000144DF01C0D4F101018C
:1019A000D451060804E0FC0E016E000107D0060EBB
:1019B00002018C6F00011DDE000E016EBBEF0EF008
:1019C00086B503D0FB0E016E59D00101B95106084E
:1019D00005E0FA0E016E000151D00101BC530BE18C
:1019E000BD5309E1BE5307E1BF5305E1F90E016E96
:1019F000000144D00101BA6BBC5306E1BD5304E1C0
:101A0000BE5302E1BF531EE002018B510101BA5DDA
:101A100019E2036ABA5102018925E96E8A5103204D
:101A2000EA6EEFCF8CF28CC28DF2000199DE0101DB
:101A3000BA2BFF0EBC27D8A0BD27D8A0BE27D8A0A0
:101A4000BF27DAD7BC5318E1BD5316E1BE5314E1EA
:101A5000BF5312E10001E5DE01C0D4F10101D45110
:101A6000060804E0F80E016E000108D0070E02011E
:101A70008C6F0001BEDD0101BAC101F00001DAEF97
:101A80000EF0010EEA6EC50EE96E000E3FEC01F09D
:101A90000A000900F550EE6E0009FBE10101BA6B86
:101AA000BB6B00018699010E0101D16F150ED46F39
:101AB000020E02018C6F00019CDD000E016EEFEF43
:101AC0000EF0196AF2BE198EF29EDDEC01F019BE1D
:101AD000F28E6D6A140E6F6E696A6D86010E2B6E42
:101AE0008BEF0DF06D6A696A080E6F6E94503009C5
:101AF0000201946E2B6A196AF2BE198EF29E0001E1
:101B0000DDEC01F019BEF28E000C958683A604D0A0
:101B10006DB601D0D6D703D06DA601D0E3DF2B2C54
:101B20000BD06DBA09D0686A696AA08AC00EF21239
:101B3000110E696E020E2B6EA3EF0DF02450016E94
:101B4000A7EF0DF0E2D7958683A60AD0F7D701520A
:101B500004E0010E016E06D003D0000E016E02D02B
:101B6000FF0E016E000CEEDF012C06D08D829692E6
:101B7000010E016E06D005D08D929692000E016E78
:101B800000D0000CEF520FE0EACF8AF2E9CF89F2E1
:101B9000EFCF93F27CDC8AC2EAFF89C2E9FFE92A2F
:101BA000D8B4EA2AEFD7000C0201876B886B9584C2
:101BB00083A41ED10001F16BBB0EF06F0A0E02016F
:101BC0008B6F0001DBEC09F00D0E02018B6F000141
:101BD000DBEC09F0E2C089F2370E02018A6F0001E6
:101BE000EBEC09F03A0E02018B6F0001DBEC09F01F
:101BF000E3C089F2370E02018A6F0001EBEC09F0B5
:101C00003A0E02018B6F0001DBEC09F0E4C089F2AF
:101C1000370E02018A6F0001EBEC09F03A0E020167
:101C20008B6F0001DBEC09F0E5C089F2370E020191
:101C30008A6F0001EBEC09F03A0E02018B6F000194
:101C4000DBEC09F0E6C089F2370E02018A6F000171
:101C5000EBEC09F03A0E02018B6F0001DBEC09F0AE
:101C6000E7C089F2370E02018A6F0001EBEC09F040
:101C70003A0E02018B6F0001DBEC09F0E8C089F23B
:101C8000370E02018A6F0001EBEC09F03A0E0201F7
:101C90008B6F0001DBEC09F0E9C089F2370E02011D
:101CA0008A6F0001EBEC09F03A0E02018B6F000124
:101CB000DBEC09F0EDC089F2370E02018A6F0001FA
:101CC000EBEC09F0ECC089F2370E02018A6F0001DB
:101CD000EBEC09F0EBC089F2370E02018A6F0001CC
:101CE000EBEC09F0EAC089F2370E02018A6F0001BD
:101CF000EBEC09F03A0E02018B6F0001DBEC09F00E
:101D0000EFC089F2370E02018A6F0001EBEC09F097
:101D1000EEC089F2370E02018A6F0001EBEC09F088
:101D200002018D6BBB0E8C6F00010EEC0AF001C03E
:101D300087F202018A6BB40E896F010E8B6F00016E
:101D4000ABD401C09BF09B5313E0580EF66E100EFF
:101D5000F76E040E02018D6F000160EC0AF09BC06B
:101D60008DF21F0E02018E6F00018AEC0AF037D04F
:101D700087C289F2A9D501C09BF09B5313E0600E86
:101D8000F66E100EF76E040E02018D6F000160EC0E
:101D90000AF09BC08DF21F0E02018E6F00018AECCB
:101DA0000AF01DD002018A6BBB0E896F87C28BF2CD
:101DB000000106D601C088F2680EF66E100EF76EAE
:101DC000040E02018D6F000160EC0AF088C28DF2F2
:101DD0001F0E02018E6F00018AEC0AF052D6C3DE9C
:101DE000015204E0EA6ABB0EE96ECCDE09D00201C2
:101DF0000001B9DE015204E0EA6A9E0EE96EC2DE1D
:101E0000000C02016A6B6C6B9C0E6B6F0001B2ECF4
:101E100009F0E86BED6BEC6B9DC0EBF09CC0EAF059
:101E2000E92BC2DE020E0101156F1E0E166F34EF94
:101E300018F0010E02016A6F6C6B9C0E6B6F000153
:101E4000B2EC09F0010EE86FED6BEC6B9DC0EBF0AE
:101E50009CC0EAF0E92BA8DE320E0101246F1E0EB1
:101E6000256F34EF18F0020E02016A6F6C6B9C0E46
:101E70006B6F0001B2EC09F0020EE86FED6BEC6BDA
:101E80009DC0EBF09CC0EAF0E92B8EDE660E0101EE
:101E9000336F1E0E346F34EF18F002018751060ABB
:101EA000000107E0030A0AE0060A0DE0070A10E055
:101EB00014D0000E99B3010E016E12D0000E99B12C
:101EC000010E016E0DD0000E99B7010E016E08D003
:101ED000000E99B9010E016E03D0000E016E00D004
:101EE000000C030E0201876F0001D7DF015201E1F0
:101EF00013D0030E02016A6F6C6B9C0E6B6F0001B6
:101F0000B2EC09F0030EE86FED6BEC6B9DC0EBF0EB
:101F10009CC0EAF0E92B48DEE20E0101426F1E0E82
:101F2000436F34EF18F0040E0201876F0001B5DF34
:101F3000015201E113D0040E02016A6F6C6B9C0E1A
:101F40006B6F0001B2EC09F0040EE86FED6BEC6B07
:101F50009DC0EBF09CC0EAF0E92B26DE260E0101C5
:101F6000516F1F0E526F34EF18F0985302E1000EBC
:101F700001D0010E016E33EF10F00101018F00015D
:101F8000F28F0101108F1F8F2E8F4C8F3D8F00011C
:101F900036EF10F0010E986FC00EF212A082976B10
:101FA000966B956B946B97C093F096C092F095C02A
:101FB00091F094C090F0B36AB26AB1800201872DAB
:101FC00002D09D8401D0A080000155EF10F08E5109
:101FD000020802E0000E01D0010E016E56EF10F073
:101FE0009051945D006E91519559016E92519659A0
:101FF000026E93519759036E5AEF10F09D94A09082
:10200000A0928C51080BD8B48292BA6A8CC0BAFFE5
:102010008D51080BD8B48292BA6A8DC0BAFFFF0EF8
:102020008E6FB1908F6B986B63EF10F00101019F81
:102030000001F29F0101109F1F9F2E9F4C9F3D9F0B
:1020400000016CEF10F0050E0201876F000125DF23
:10205000015208E1060E0201876F00011EDF0152E6
:1020600001E13AD082D7015220E187D79A2D0CD0D6
:10207000050E0201876F000110DF015202E0020E1F
:1020800001D0010E9A6F0ED09A5102080BE1060E94
:102090000201876F000101DF015202E0010E01D051
:1020A000020E9A6F9AC087F275D791D7015201E15B
:1020B00013D096D703C0EDF002C0ECF001C0EBF0F6
:1020C00000C0EAF09BD79A2D02D0060E01D0050E73
:1020D000E86FE92B69DDAAD7460E0101606F200E7B
:1020E000616F34EF18F08F2BA19242EF00F08E5108
:1020F000FF0808E19484BD6A040EBD6EB76AB66A33
:102100008E6B44D08E531CE1016A8FC0A6F202018F
:10211000A46BA56BBE50A4250001946FBF500201B3
:10212000A5210001956F000E0201A6210001966F06
:10213000000E020101200001976F010E8E6F26D064
:102140008E2D24D09D9497C093F096C092F095C0A8
:1021500091F094C090F0016A8FC0A6F20201A46BC6
:10216000A56BBE50A4250001946FBF500201A521AC
:102170000001956F000E0201A6210001966F000E6E
:10218000020101200001976F020E8E6F9E9442EFB4
:1021900000F08E51FF0808E19484BD6A040EBD6E04
:1021A000B76AB66A8E6B44D08E531CE1016A8FC049
:1021B000A6F20201A46BA56BBB50A4250001946F8D
:1021C000BC500201A5210001956F000E0201A6215D
:1021D0000001966F000E020101200001976F010EB1
:1021E0008E6F26D08E2D24D0A09097C093F096C0ED
:1021F00092F095C091F094C090F0016A8FC0A6F261
:102200000201A46BA56BBB50A4250001946FBC50C8
:102210000201A5210001956F000E0201A621000117
:10222000966F000E020101200001976F020E8E6F63
:10223000A19042EF00F00A0D4D703E2564000A0D9A
:102240004D656D496E663A202578202578202578E1
:1022500020257820257800000A0D3D3D2578202591
:1022600078202578202578000A0D446573636F6E09
:1022700065637461722E2E2E000034DC44EF11F081
:1022800031DCCCEC01F0F9D75DDC015033EF13F019
:10229000010EEA6ED60EE96EEF500EE0050E016EED
:1022A000006A002EFED7012EFBD72E0E006E002EE8
:1022B000FED700D0EF2EF2D7000C720E0201936F02
:1022C000000147EC0AF0958C959A8C9A040E010156
:1022D000D56FFA0ED66F0001DBDF0101D52FF9D7DC
:1022E0000001869B959A8C8A0C0E0101D56FFA0E1F
:1022F000D66F0001CDDF0101D52FF9D7000E016E99
:10230000000136EF13F00A0E0101D56F02018C6B4C
:102310000001F9EC0AF0550E02018D6F0001B0ECDE
:102320000BF011EC0CF001C0D4F10101D507C80E7F
:10233000D66F0001ADDF0101D55306E0D451060888
:10234000D8B402D00001E7D7D451060803E0010E4B
:10235000016E0DD0000186878695869B010E0201D5
:102360008C6F0001F9EC0AF0000E016E0101000112
:1023700037EF13F086A708D00101B92D01D002D0A4
:10238000000102D004D00001010E016E24D0400EE5
:1023900002018D6F0001B0EC0BF0690E02018D6F30
:1023A0000001B0EC0BF011EC0CF001C0D4F1010114
:1023B000D451060805E0020E016E00010CD002D0D7
:1023C00000018685869B020E02018C6F0001F9ECEC
:1023D0000AF0000E016E3AEF13F0926A896A2F0E2E
:1023E000926EC150C00B0A09C16EC090C082C094E9
:1023F000C08EC280000E016E3DEF13F08BC0B1FFA6
:10240000B190B36AB26A8C51080BD8B48294BD6A99
:102410008CC0BDFFB76AB66A8D51080BD8B48292E2
:10242000BA6A8DC0BAFF94849482000E016E40EFA8
:1024300013F0DCC1DDF10101DE6BDD51090805E2BD
:102440000A0EDD5F100EDE2703D0DD51DE2701D03E
:10245000F4D7DEC101F00001000C0101D66B9380BE
:10246000040E006E002EFED79382040E006E002E26
:10247000FED78A909390040E006E002EFED78A92AB
:102480009392D00EF26F00014DEC08F00101F26B57
:1024900000014DEC08F09380040E006E002EFED774
:1024A0009382040E006E002EFED781A2FED78A9082
:1024B0009390040E006E002EFED78A929392D10E56
:1024C0000101F26F00014DEC08F0006A88EC08F0A1
:1024D00001C0D7F101C0F3F1BDEC08F001C0D6F1A5
:1024E00093900000938281A2FED7040E006E002E0E
:1024F000FED700D000009380040E006E002EFED7A1
:102500000101D69F030E006E002EFED700D09380EF
:10251000040E006E002EFED79382040E006E002E75
:10252000FED78A909390040E006E002EFED78A92FA
:102530009392D00EF26F00014DEC08F00101F26BA6
:1025400000014DEC08F0D6C1DCF173DF01C0D7F11A
:1025500001C0F2F14DEC08F09380040E006E002EE5
:10256000FED79382040E006E002EFED781A2FED706
:102570008A909390040E006E002EFED78A9293925A
:10258000D00E0101F26F00014DEC08F0070E0101C1
:10259000F26F00014DEC08F0D5C1F2F14DEC08F0FE
:1025A00093900000938281A2FED7040E006E002E4D
:1025B000FED700D000009380040E006E002EFED7E0
:1025C00047EF13F09380040E006E002EFED7938227
:1025D000040E006E002EFED78A909390040E006EBB
:1025E000002EFED78A929392D00E0101F26F000165
:1025F0004DEC08F0D5C1F2F14DEC08F09380040EDB
:10260000006E002EFED79382040E006E002EFED7C1
:1026100081A2FED78A909390040E006E002EFED702
:102620008A929392D10E0101F26F00014DEC08F0F5
:10263000006A88EC08F001C0D6F193900000938204
:1026400081A2FED7040E006E002EFED700D000003F
:102650009380040E006E002EFED70101D6C101F05A
:102660000001000C0DD601C09BF027D64CD601C04E
:102670009BF080D601C09BF0B0D601C09BF0BED6C7
:1026800001C09BF0900E0101D56F0001E6D6080E47
:102690000101D56F000196DF01C099F0E46BE4C041
:1026A000E3F0E3C0E2F0E76BE7C0E6F0E6C0E5F098
:1026B000E96BE9C0E8F0ED6BEC6BEB6BE8C0EAF0BE
:1026C000EF6BEE6B65EF13F0CDD79698D190C69A6D
:1026D000949E93809392010EC66E000EC76E880E74
:1026E000D56ECD6A000ECA6E000ECB6E070EB46EAC
:1026F0009250926E0D0E006E002EFED7B450A19C2B
:10270000B56A000E966E936E830E946E4E0E956EA5
:102710008D9296928D8096908D84969450EF17F0BE
:1027200083B101D0FDD78551852B036A300FE96E47
:10273000040E0320EA6EEFCFD5F1010100018451B0
:10274000855D08E3196AF2BE198EF29E7AEC06F0F6
:1027500019BEF28E0101D5C101F00001000C8251B9
:102760003E0817E2196AF2BE198EF29E020E0201AD
:10277000B56F000199EC05F019BEF28E015208E028
:10278000196AF2BE198EF29EFCEC06F019BEF28EAA
:10279000E6D7D5C193F247EC0AF0000C0101DB9FAC
:1027A0003F0ED9179380040E006E002EFED7938241
:1027B000040E006E002EFED78A909390040E006ED9
:1027C000002EFED78A929392D00EF26F00014DEC4C
:1027D00008F00101F26B00014DEC08F0DBC1DCF107
:1027E00028DE01C0DCF101C0F2F14DEC08F0DAC1E5
:1027F000DCF11FDE01C0DCF101C0F2F14DEC08F0AC
:10280000D9C1DCF116DE01C0DCF101C0F2F14DEC02
:1028100008F0D8C1DCF10DDE01C0DCF101C0F2F13D
:102820004DEC08F0D5C1DCF104DE01C0DCF101C0E3
:10283000F2F14DEC08F0D6C1DCF1FBDD01C0DCF1BA
:1028400001C0F2F14DEC08F0D7C1DCF1F2DD01C0BE
:10285000DCF101C0F2F14DEC08F09390000093829E
:1028600081A2FED7040E006E002EFED700D000001D
:102870009380040E006E002EFED7C7EF14F09380F5
:10288000040E006E002EFED79382040E006E002E02
:10289000FED78A909390040E006E002EFED78A9287
:1028A0009392D00E0101F26F00014DEC08F0D5C1FA
:1028B000F2F14DEC08F0D6C1F2F14DEC08F0939036
:1028C0000000938281A2FED7040E006E002EFED778
:1028D00000D000009380040E006E002EFED7000C86
:1028E0000900F5520DE0F6CFD5F1F7CFD6F1F5CFCF
:1028F00093F247EC0AF0D5C1F6FFD6C1F7FFF0D747
:102900003FEF16F0B3EC0DF00152D8B4B8D108DFA8
:1029100001C0E8F0E853FBE0E851310A0FE0030A98
:102920003CE0070AD8B446D1030AD8B459D1050A05
:10293000D8B46CD1070AD8B47ED192D1310E01013E
:10294000D56F00010CDFECDE01C0E2F0E9DE01C072
:10295000E3F0E6DE01C0E4F0E3DE01C0E9F0E0DE32
:1029600001C0E5F0DDDE01C0E6F0DADE01C0E7F02F
:10297000E2C0D5F1E3C0D6F1E4C0D7F1E9C0D8F1A7
:10298000E5C0D9F1E6C0DAF1E7C0DBF107D7060E02
:102990000101D56F0001E3DE68D1320E0101D56F70
:1029A0000001DDDE9380040E006E002EFED79382C0
:1029B000040E006E002EFED78A909390040E006ED7
:1029C000002EFED78A929392D00E0101F26F000181
:1029D0004DEC08F0030E0101F26F00014DEC08F020
:1029E0009380040E006E002EFED79382040E006EBC
:1029F000002EFED781A2FED78A909390040E006E1F
:102A0000002EFED78A929392D10E0101F26F00013F
:102A10004DEC08F0010E006E88EC08F001507F0BC1
:102A20000101EE6FF36F0001BDEC08F001C0E9F0A9
:102A3000010E006E88EC08F001503F0B0101EE6FB3
:102A4000F36F0001BDEC08F001C0E2F0010E006E72
:102A500088EC08F001501F0B0101EE6FF36F0001CD
:102A6000BDEC08F001C0E3F0006A88EC08F001C09A
:102A7000EEF101C0F3F1BDEC08F001C0E4F0939079
:102A80000000938281A2FED7040E006E002EFED7B6
:102A900000D000009380040E006E002EFED79380BD
:102AA000040E006E002EFED79382040E006E002EE0
:102AB000FED78A909390040E006E002EFED78A9265
:102AC0009392D00E0101F26F00014DEC08F001016C
:102AD000F26B00014DEC08F09380040E006E002EA6
:102AE000FED79382040E006E002EFED781A2FED781
:102AF0008A909390040E006E002EFED78A929392D5
:102B0000D10E0101F26F00014DEC08F0010E006ED4
:102B100088EC08F001507F0B0101EE6FF36F0001AC
:102B2000BDEC08F001C0E7F0010E006E88EC08F083
:102B300001507F0B0101EE6FF36F0001BDEC08F057
:102B400001C0E6F0006A88EC08F001503F0B01017B
:102B5000EE6FF36F0001BDEC08F001C0E5F093905B
:102B60000000938281A2FED7040E006E002EFED7D5
:102B700000D000009380040E006E002EFED7E2C04D
:102B8000D5F1EDDDE3C0D5F1EADDE4C0D5F1E7DD57
:102B9000E9C0D5F1E4DDE5C0D5F1E1DDE6C0D5F170
:102BA000DEDDE7C0D5F1DBDD060E0101D56F0001EA
:102BB000D6DD5BD0350E0101D56F0001D0DDB0DD73
:102BC00001C0E8F0ADDD01C0E9F0E8C0D5F1E9C031
:102BD000D6F155DE060E0101D56F0001C0DD45D0EE
:102BE000360E0101D56F0001BADD9ADD01C0E8F0B3
:102BF000E8C0D5F1E7DC01C0E9F0E9C0D5F1AFDD0F
:102C0000060E0101D56F0001AADD2FD0330E0101A0
:102C1000D56F0001A4DD84DD01C0E9F0080E0101DB
:102C2000D56FE9C0D6F100012ADE060E0101D56F8D
:102C3000000195DD1AD0340E0101D56F00018FDD42
:102C4000080E0101D56F0001BDDC01C0E9F0E9C04B
:102C5000D5F185DD060E0101D56F000180DD05D0BF
:102C6000150E0101D56F00017ADDE851390806E142
:102C7000680EF66E220EF76E33D601D043D656EFAD
:102C800017F0F86AD09E078EEA6AE96A2B6A2F6A03
:102C9000826B896B8A6BFD0E8B6F050E8C6F8D6F4F
:102CA000FF0E8E6F8F6B936B926B916B906B976B2C
:102CB000966B956B946B986B8693996B010E9A6FDC
:102CC0009B6B9D6B9C6B01016A6BB886A00EAF6E0F
:102CD000010EB06EA60EAC6E900EAB6E0001869526
:102CE00086978699869B0101B96BBA6BBB6BBF6BEC
:102CF000BE6BBD6BBC6B010ED16F800ED26F400EF0
:102D0000D36F150ED46FC150C00B0F09C16E070EE3
:102D1000B46E030E1B6E1C6A1D6A1E6A276A040EBF
:102D2000286E0C0E296E0A0E00019E6F0D0E9F6F0D
:102D30006E0EA06F6F0EA16F200EA26F730EA36FA9
:102D4000650EA46F200EA56F700EA66F750EA76F8F
:102D5000650EA86F640EA96F650EAA6F200EAB6F8B
:102D6000670EAC6F750EAD6F610EAE6F720EAF6F0A
:102D7000640EB06F610EB16F720EB26FB36B700EF6
:102D8000B46F720EB56F750EB66F650EB76F620ECB
:102D9000B86F610EB96FBA6BF06BF16B4C0E01013D
:102DA0006B6F750E6C6F6E0E6D6F650E6E6F730EC2
:102DB0006F6F706B716B726B736B746B756B4D0EA9
:102DC000766F610E776F720E786F740E796F650E85
:102DD0007A6F730E7B6F7C6B7D6B7E6B7F6B806B12
:102DE0004D0E816F690E826FE90E836F720E846FD4
:102DF000630E856F6F0E866F6C0E876F650E886F22
:102E0000730E896F8A6B8B6B4A0E8C6F750E8D6F8C
:102E1000650E8E6F760E8F6F650E906F730E916FCD
:102E2000926B936B946B956B966B560E976F690EC6
:102E3000986F650E996F720E9A6F6E0E9B6F650E8E
:102E40009C6F730E9D6F9E6B9F6BA06BA16B530E5F
:102E5000A26FE10EA36F620EA46F610EA56F640EE8
:102E6000A66F6F0EA76FA86BA96BAA6BAB6BAC6B51
:102E7000440EAD6F6F0EAE6F6D0EAF6F690EB06F1B
:102E80006E0EB16F670EB26F6F0EB36FB46BB56B32
:102E9000B86BC06BC16BC26BC36BC46B000114D445
:102EA000B3EC0DF0958483A402D02CD53BD1F26B0A
:102EB000F46B0A0EF36FF66BF56BFC6BFB6BFA6B46
:102EC000F96BFF0EFE6FFD6F0101006B0001FF6BE0
:102ED000700EF76F100EF86F0101016B036B0A0E95
:102EE000026F056B046B0B6B0A6B096B086BFF0EB3
:102EF0000D6F0C6F0F6B0E6BA40E066F110E076F2C
:102F0000106B126B060E116F146B136B1A6B196B2F
:102F1000186B176BFF0E1C6F1B6F1E6B1D6B020E69
:102F2000156F1E0E166F1F6B216B060E206F236B25
:102F3000226B296B286B276B266BFF0E2B6F2A6F7A
:102F40002D6B2C6B320E246F1E0E256F2E6B306B8B
:102F5000060E2F6F326B316B386B376B366B356B00
:102F6000FF0E3A6F396F3C6B3B6B660E336F1E0E74
:102F7000346F3D6B3F6B090E3E6F416B406B476B8F
:102F8000466B456B446BFF0E496F486F4B6B4A6B4A
:102F9000E20E426F1E0E436F4C6B4E6B090E4D6F6F
:102FA000506B4F6B566B556B546B536BFF0E586FDA
:102FB000576F5A6B596B260E516F1F0E526F5B6B1A
:102FC0005D6B110E5C6F5F6B5E6B656B646B636B4F
:102FD000626BFF0E676F666F696B686B460E606FA2
:102FE000200E616F1A6A810ED56E0B0ED76EDC0E45
:102FF000D66EF294810ED56E0B0ED76EDC0ED66EA9
:10300000F2941C6A080E1B6ED8901A34006E0001F0
:103010002FEC01F0026E010E00242FEC01F0036E84
:1030200003C0EAFF02C0E9FFEFCF02F0E92AEFCFC9
:1030300000F0ECCF01F0EC2AEFCF03F002E1EC2A34
:10304000ED52EC50015C5CE10050035C59E1ED5243
:10305000ED52EE6AEE6A02BE53D0EC52ECCFFAFFAC
:10306000ED52EFCFE8FFF96E0001D8901A34006EF0
:103070002FEC01F0026E010E00242FEC01F0036E24
:1030800003C0EAFF02C0E9FFF2A401D0EF88070EF7
:10309000E926000EEA22D650D7CF03F0240F016EA6
:1030A0000B0E0358026E0150EF260250EC20EF6E1B
:1030B000000EEC20EF6E000EEC20EF6EED52ED52A4
:1030C000ED52EC50EC50EC50EC500250EC5C0AE34A
:1030D00004E1ED520150EE5C05E3ED520150EF6E5C
:1030E0000250EC6EEE52EC50025C0AE304E1ED5249
:1030F0000150EE5C05E2ED520150EF6E0250EC6EB5
:103100001A2A080E1A5CD8B402D001017DD71A6AB7
:10311000D650D7CF03F0F2A402D001016DD7F8D773
:06312000FF0E1A6E030011
:020000040030CA
:0E0000003CCE3E1E008581000FC00FE00F4079
:00000001FF
;PIC18F4550
;CRC=7074  CREATED="04-Sep-14 16:21"
