:0400000098EF0BF07A
:08000800046ED8CF05F0E0CF33
:1000100006F00001E9CF0CF0EACF07F0E1CF08F0DD
:10002000E2CF09F0D9CF0AF0DACF0BF0F3CF12F01C
:10003000F4CF13F0FACF14F0F5CF15F0F6CF16F099
:10004000F7CF17F000C00EF001C00FF002C010F0A3
:1000500003C011F0A0A230EF00F0A1B2C0EF00F099
:100060009DA436EF00F09EB4C4EF00F0A0A03CEFDA
:1000700000F0A1B001EF01F00EC000F00FC001F0E0
:1000800010C002F011C003F00CC0E9FF07C0EAFF86
:10009000078E08C0E1FF09C0E2FF0AC0D9FF0BC00C
:1000A000DAFF12C0F3FF13C0F4FF14C0FAFF15C04B
:1000B000F5FF16C0F6FF17C0F7FF045006C0E0FFBB
:1000C00005C0D8FF1000757362206572726F7220D0
:1000D0003D25640A0D0025752F25752F25752025D2
:1000E000753A25753A2575206D6F643A2575207629
:1000F000616C3A254C64000025752F25752F2575F8
:100100002025753A25753A2575206D6F643A257559
:100110002076616C3A254C64000025752F25752FDB
:1001200025752025753A25753A2575206D6F643A39
:1001300025752076616C3A254C64000025752F25C5
:10014000752F25752025753A25753A2575206D6F13
:10015000643A25752076616C3A254C75000025754A
:100160002F25752F25752025753A25753A2575207B
:100170006D6F643A25752076616C3A254C750000E8
:10018000AB2BA1923CEF00F0AA51FF0808E1948448
:10019000BD6A040EBD6EB76AB66AAA6B2FD0AA53A9
:1001A00012E1016ACD6BCE6BBE50CD25B06FBF5052
:1001B000CE21B16F000EAB21B26F000E0120B36FE4
:1001C000010EAA6F1BD0AA2D19D0B3C0AFF0B2C0D8
:1001D000AEF0B1C0ADF0B0C0ACF0016ACD6BCE6B8B
:1001E000BE50CD25B06FBF50CE21B16F000EAB21F8
:1001F000B26F000E0120B36F020EAA6F9E943CEF07
:1002000000F0AA51FF0808E19484BD6A040EBD6E97
:10021000B76AB66AAA6B2FD0AA5312E1016ACD6BF6
:10022000CE6BBB50CD25B06FBC50CE21B16F000E50
:10023000AB21B26F000E0120B36F010EAA6F1BD06D
:10024000AA2D19D0B3C0AFF0B2C0AEF0B1C0ADF0BE
:10025000B0C0ACF0016ACD6BCE6BBB50CD25B06F9A
:10026000BC50CE21B16F000EAB21B26F000E012049
:10027000B36F020EAA6FA1903CEF00F0C150C00B0B
:100280000C09C16EC090C082C094C08EC280070E9F
:10029000926E000E016E2AEF03F0A7C0B1FFB1907D
:1002A000B36AB26AA851080BD8B48294BD6AA8C0D8
:1002B000BDFFB76AB66AA951080BD8B48292BA6A70
:1002C000A9C0BAFF94849482000E016E2DEF03F052
:1002D000080E016E070E006E002EFED78A929392D2
:1002E000070E006E002EFED7B8378A90D8B09380E4
:1002F000D8A09390938281A2FED7012EEBD7070E50
:10030000006E002EFED78A92939200009380070E13
:10031000006E002EFED7070E006E002EFED79382D1
:1003200081A2FED7016A070E006E002EFED781B0B3
:1003300001808A9293928A909390000C080EB96F74
:1003400000C0BAF09380070E006E002EFED7938295
:1003500081A2FED781B0D88081A0D8900136070E47
:10036000006E002EFED793928A92B92FEBD793801E
:10037000070E006E002EFED78A90BA51D8A4939033
:100380000000938281A2FED7070E006E002EFED7DA
:100390008A929392070E006E002EFED78A90939059
:1003A000000CB9C0BAF0D890BA33780EBA17BA3187
:1003B000006E00323F0E00160050BA25BB6FB951D7
:1003C0000F0BBB25016E000CB7C0B8F0B96BB8516C
:1003D000090805E20A0EB85F100EB92703D0B8511C
:1003E000B92701D0F4D7B9C001F063EF02F0B66BC2
:1003F000F29CF29EF2BEFDD79380070E006E002E97
:10040000FED79382070E006E002EFED78A9093903F
:10041000070E006E002EFED78A929392D00EB86F10
:1004200057DFB86B55DF9380070E006E002EFED7A6
:100430009382070E006E002EFED781A2FED78A900F
:100440009390070E006E002EFED78A929392D10EE3
:10045000B86F3EDF006A72DF01C0B7F001C0B9F0CB
:10046000A0DF01C0B6F093900000938281A2FED776
:10047000070E006E002EFED700D000009380070EFE
:10048000006E002EFED7B69F050E006E002EFED722
:1004900000D09380070E006E002EFED79382070EC9
:1004A000006E002EFED78A909390070E006E002EED
:1004B000FED78A929392D00EB86F0ADFB86B08DF2E
:1004C000B6C0B7F081D701C0B7F001C0B8F000DF07
:1004D0009380070E006E002EFED79382070E006EEB
:1004E000002EFED781A2FED78A909390070E006E51
:1004F000002EFED78A929392D00EB86FE9DE070ED7
:10050000B86FE6DEB5C0B8F0E3DE939000009382EA
:1005100081A2FED7070E006E002EFED700D000008D
:100520009380070E006E002EFED7C00EF21232EF3F
:1005300003F00900F6CFB6F0F7CFB7F0F5509EA85C
:10054000FED7AD6EB6C0F6FFB7C0F7FFB52FF1D737
:100550004EEF03F0BC51016ABB5D03E2BBC000F08B
:100560000CD0006A080EBD6FBB370036BC51005C72
:10057000D8B0006E0136BD2FF7D7000C200EB6A9FB
:10058000300EB76FB5C000F0B5AF07D0001E002A1F
:1005900000C0B5F02D0EB76FB68F0150B5C0BBF0DF
:1005A000640EBC6FD7DF00C0B5F0300E0124B86F09
:1005B000B5C0BBF00A0EBC6FCDDF300E0024BA6FA1
:1005C000300E0124B96FB7C000F0B6A702D0B6AFA5
:1005D000B695B6B90BD0B6AF22D0B6B520D000C014
:1005E000B8F0B6B31CD000C0B9F019D0300EB85D69
:1005F00016E100C0B8F0200EB76FB6A704D0B695CC
:10060000B683B6AFB693300EB95D09E100C0B9F05C
:10061000200EB86FB6A7F7D7B693B6AFB691B6A50A
:1006200004D0B7519EA8FED7AD6EB6A304D0B85182
:100630009EA8FED7AD6EB6A104D0B9519EA8FED734
:10064000AD6EBA519EA8FED7AD6E53EF03F0FF0E0C
:10065000B46F14D601C0B4F020D601C0B4F0100EAF
:10066000B56FC5D69698D190800ED56ECD6A000E26
:10067000CA6E000ECB6E070EB46E9250926E130EC1
:10068000006E002EFED700D0B450A19CB56AC60EF5
:10069000F66E000EF76E0B0EB56F4BD7B4C0B5F00B
:1006A0001F0EB66F6BD70A0E9EA8FED7AD6E0D0E4D
:1006B0009EA8FED7AD6E53EF0CF0B435006E003639
:1006C000FC0E0016C250C30B0010C26E130E006E5B
:1006D000002EFED700D0C282B791C2A2B781B7A1C7
:1006E000FBD7B6C003F0B5C0E9FFB6C0EAFFC2B29F
:1006F000FED7C3CFEFFFC4CFECFF00D000D000D0B7
:10070000000E016E000C51C0EAFF50C0E9FFC0C0EE
:10071000EFFFE92AD8B4EA2AEF6A502AD8B4512A5E
:10072000000C0150B4C0BBF0640EBC6F13DF00C0FE
:10073000B4F00150300E07E1B5A30CD0B5B70AD024
:10074000B5B9200E03D0B597B599B581012601C082
:10075000C0F0D9DFB4C0BBF00A0EBC6FFBDE00C036
:10076000B4F00150300E06E1B5B708D0B5A106D0FF
:10077000B5B9200E012601C0C0F0C5DF300EB42788
:10078000B4C0C0F0C0DF000C0900F6CFB5F0F7CF61
:10079000B6F0F5CFC0F0B7DFB5C0F6FFB6C0F7FFD3
:1007A000B42FF2D7000CEACFBCF0E9CFBBF0B5AF65
:1007B00008D0BB8FBBA9BB2BB41FB51FB42BD8B4BB
:1007C000B52BB539F009B76FB727E20FB86F320F05
:1007D000BA6FB5510F0BB827B827BA27E90FB96F11
:1007E000B927B927B4390F0BB927BA27B937BA37A0
:1007F000BA1FBA37B4510F0BBA27B737070EB66F07
:100800000A0EB907BA27FDE3B807B927FDE3B70712
:10081000B827FDE3B607B727FDE3EA6AB60EE96E2F
:10082000070EBB15BB9DE906BB1507E1BBB9E92A5D
:10083000BBB903D0200E006E1CD0E926BA0EE95CCD
:10084000D8B4BB8DEF50006E08E1BBBD06D0BBB97C
:100850001BD0BBB702D0200E0BD0BBAF06D02D0EE5
:10086000006EED50BB9DBB9F04D0BB87BB99300E83
:100870000026EACFB5F0E9CFB4F000C0C0F043DF06
:10088000B5C0EAFFB4C0E9FFEE50BBADD7D7000C4E
:10089000EF5210E0EACFB5F0E9CFB4F0EF509EA8E8
:1008A000FED7AD6EB5C0EAFFB4C0E9FFE92AD8B4FF
:1008B000EA2AEED7000CF29CF29EF2BEFDD793809E
:1008C000070E006E002EFED79382070E006E002EDC
:1008D000FED78A909390070E006E002EFED78A9264
:1008E0009392D00EB86FF4DCB86BF2DC9380070EF5
:1008F000006E002EFED79382070E006E002EFED7EC
:1009000081A2FED78A909390070E006E002EFED72C
:100910008A929392D10EB86FDBDC010E006E0EDD71
:1009200001507F0BB46FB96F3CDD01C01DF0010EAB
:10093000006E04DD01507F0BB46FB96F32DD01C072
:100940001CF0006AFBDC01503F0BB46FB96F29DD6E
:1009500001C01BF093900000938281A2FED7070E86
:10096000006E002EFED700D000009380070E006EB0
:10097000002EFED7C00EF212F29CF29EF2BEFDD700
:100980009380070E006E002EFED79382070E006E36
:10099000002EFED78A909390070E006E002EFED791
:1009A0008A929392D00EB86F93DC030EB86F90DCEE
:1009B0009380070E006E002EFED79382070E006E06
:1009C000002EFED781A2FED78A909390070E006E6C
:1009D000002EFED78A929392D10EB86F79DC010E69
:1009E000006EACDC01507F0BB46FB96FDADC01C074
:1009F00021F0010E006EA2DC01503F0BB46FB96F05
:100A0000D0DC01C01EF0010E006E98DC01501F0BFF
:100A1000B46FB96FC6DC01C01FF0006A8FDC01C083
:100A2000B4F001C0B9F0BDDC01C020F0939000002B
:100A3000938281A2FED7070E006E002EFED700D053
:100A400000009380070E006E002EFED7C00EF2123B
:100A5000010EB46FB66B220EB56F2FDE516A280EF1
:100A6000506E1EC0B4F01B0EB56F5BDE2F0EC06F54
:100A70004ADE1FC0B4F01B0EB56F53DE2F0EC06FE1
:100A800042DE20C0B4F01B0EB56F4BDE200EC06FEF
:100A90003ADE1BC0B4F01B0EB56F43DE3A0EC06FDA
:100AA00032DE1CC0B4F01B0EB56F3BDE3A0EC06FD9
:100AB0002ADE1DC0B4F01B0EB56F33DEE70EF66EF6
:100AC000000EF76E050EB46F5FDEB46B1B0EB56FD4
:100AD00028DEEE0EF66E000EF76E050EB46F54DED5
:100AE000100EE96E23C0B5F022C0B4F05CDEEA6AF5
:100AF000280EE96ECDDE0A0E9EA8FED7AD6E0D0E55
:100B00009EA8FED7AD6E55EF0CF0F29CF29EF2BEA1
:100B1000FDD79380070E006E002EFED79382070E3E
:100B2000006E002EFED78A909390070E006E002E66
:100B3000FED78A929392D00EB86F68EC01F0B86B32
:100B400068EC01F09380070E006E002EFED79382B2
:100B5000070E006E002EFED781A2FED78A909390DA
:100B6000070E006E002EFED78A929392D10EB86FB8
:100B700068EC01F0010E006E9EEC01F001507F0B5D
:100B8000B46FB96F0EDC01C01DF0010E006E9EEC5B
:100B900001F001507F0BB46FB96F03DC01C01CF092
:100BA000006A9EEC01F001503F0BB46FB96FD1ECBD
:100BB00001F001C01BF093900000938281A2FED748
:100BC000070E006E002EFED700D000009380070EA7
:100BD000006E002EFED7C00EF212F29CF29EF2BE04
:100BE000FDD79380070E006E002EFED79382070E6E
:100BF000006E002EFED78A909390070E006E002E96
:100C0000FED78A929392D00EB86F68EC01F0030E73
:100C1000B86F68EC01F09380070E006E002EFED7CF
:100C20009382070E006E002EFED781A2FED78A9017
:100C30009390070E006E002EFED78A929392D10EEB
:100C4000B86F68EC01F0010E006E9EEC01F00150EF
:100C50007F0BB46FB96FD1EC01F001C021F0010E30
:100C6000006E9EEC01F001503F0BB46FB96FD1ECF8
:100C700001F001C01EF0010E006E9EEC01F001506B
:100C80001F0BB46FB96FD1EC01F001C01FF0006A07
:100C90009EEC01F001C0B4F001C0B9F0D1EC01F05C
:100CA00001C020F093900000938281A2FED7070E2E
:100CB000006E002EFED700D000009380070E006E5D
:100CC000002EFED7C00EF212B46BB66B220EB56FBB
:100CD000F4DC516A280E506E1EC0B4F01B0EB56FC6
:100CE00020DD2F0EC06F0FDD1FC0B4F01B0EB56FDF
:100CF00018DD2F0EC06F07DD20C0B4F01B0EB56FDE
:100D000010DD200EC06FFFDC1BC0B4F01B0EB56FF2
:100D100008DD3A0EC06FF7DC1CC0B4F01B0EB56FD7
:100D200000DD3A0EC06FEFDC1DC0B4F01B0EB56FD6
:100D3000F8DC090EF66E010EF76E050EB46F24DDB9
:100D4000010EB46F1B0EB56FECDC100EF66E010ECB
:100D5000F76E050EB46F18DD100EE96E23C0B5F006
:100D600022C0B4F020DDEA6A280EE96E91DD0A0E99
:100D70009EA8FED7AD6E0D0E9EA8FED7AD6E57EFA6
:100D80000CF0F29CF29EF2BEFDD79380070E006E2F
:100D9000002EFED79382070E006E002EFED78A909B
:100DA0009390070E006E002EFED78A929392D00E7B
:100DB000B86F68EC01F0B86B68EC01F09380070E37
:100DC000006E002EFED79382070E006E002EFED717
:100DD00081A2FED78A909390070E006E002EFED758
:100DE0008A929392D10EB86F68EC01F0010E006EFA
:100DF0009EEC01F001507F0BB46FB96FD1EC01F0A4
:100E000001C01DF0010E006E9EEC01F001507F0B41
:100E1000B46FB96FD1EC01F001C01CF0006A9EEC18
:100E200001F001503F0BB46FB96FD1EC01F001C07C
:100E30001BF093900000938281A2FED7070E006EF4
:100E4000002EFED700D000009380070E006E002E0B
:100E5000FED7C00EF212F29CF29EF2BEFDD7938036
:100E6000070E006E002EFED79382070E006E002E36
:100E7000FED78A909390070E006E002EFED78A92BE
:100E80009392D00EB86F68EC01F0030EB86F68EC67
:100E900001F09380070E006E002EFED79382070E9E
:100EA000006E002EFED781A2FED78A909390070E87
:100EB000006E002EFED78A929392D10EB86F68EC26
:100EC00001F0010E006E9EEC01F001507F0BB46F3B
:100ED000B96FD1EC01F001C021F0010E006E9EEC63
:100EE00001F001503F0BB46FB96FD1EC01F001C0BC
:100EF0001EF0010E006E9EEC01F001501F0BB46F4E
:100F0000B96FD1EC01F001C01FF0006A9EEC01F056
:100F100001C0B4F001C0B9F0D1EC01F001C020F083
:100F200093900000938281A2FED7070E006E002EE0
:100F3000FED700D000009380070E006E002EFED773
:100F4000C00EF212020EB46FB66B220EB56F5DECDE
:100F500003F0516A280E506E1EC0B4F01B0EB56F20
:100F600091EC03F02F0EC06F83EC03F01FC0B4F0C0
:100F70001B0EB56F91EC03F02F0EC06F83EC03F0E6
:100F800020C0B4F01B0EB56F91EC03F0200EC06FC3
:100F900083EC03F01BC0B4F01B0EB56F91EC03F0B3
:100FA0003A0EC06F83EC03F01CC0B4F01B0EB56F9B
:100FB00091EC03F03A0EC06F83EC03F01DC0B4F067
:100FC0001B0EB56F91EC03F02B0EF66E010EF76E53
:100FD000050EB46FC4EC03F0020EB46F1B0EB56FB8
:100FE00091EC03F0320EF66E010EF76E050EB46F43
:100FF000C4EC03F0100EE96E23C0B5F022C0B4F0CB
:10100000D3EC03F0EA6A280EE96E42DC0A0E9EA8D1
:10101000FED7AD6E0D0E9EA8FED7AD6E59EF0CF04B
:10102000C00EF212A082B36AB26AB180B42D02D0AF
:101030009D8401D0A080AA51020801E0FCD79D94B4
:10104000A090A851080BD8B48292BA6AA8C0BAFF7F
:10105000A951080BD8B48292BA6AA9C0BAFFFF0E90
:10106000AA6FB190AB6BB5C0E9FFB6C0EAFFAC5157
:10107000B05D006EAD51B159016EAE51B259026E04
:10108000AF51B35900C0EFFF01C0ECFF02C0ECFF4D
:10109000EC6E000E016E000C006A016A026A036ABF
:1010A000C86BC96BCA6BCB6BC751C611C511C411D4
:1010B0002CE0200ECC6FD890C037C137C237C33771
:1010C000C837C937CA37CB37C751CB5D08E1C651DE
:1010D000CA5D05E1C551C95D02E1C451C85D0FE3B8
:1010E000C451C85FC551D8A0C53DC95FC651D8A07D
:1010F000C63DCA5FC751D8A0C73DCB5FD880003678
:10110000013602360336CC2FD6D7EA6AC80EE96E0E
:10111000000CE950B86F3B0EBF6F9A0EBE6FCA0E3F
:10112000BD6FBC6B0A0EBA6FB7C0C3F0B6C0C2F0D9
:10113000B5C0C1F0B4C0C0F0BFC0C7F0BEC0C6F0FB
:10114000BDC0C5F0BCC0C4F0A7DF0150EFCFB4F004
:10115000ECCFB5F0ECCFB6F0ECCFB7F000520FE12A
:10116000BA51010A0CE0B8510BE00F0BBA5D01E077
:101170000DE2B8BF0BD0B8BD03D0200E02D0B86BC3
:10118000300E002600C0C0F083EC03F0BFC0C3F0F7
:10119000BEC0C2F0BDC0C1F0BCC0C0F0C76BC66B62
:1011A000C56B0A0EC46F78DF03C0BFF002C0BEF08B
:1011B00001C0BDF000C0BCF0BA2FB6D7000CF29C45
:1011C000F29EF2BEFDD79380070E006E002EFED772
:1011D0009382070E006E002EFED78A909390070E22
:1011E000006E002EFED78A929392D00EB86F68ECF4
:1011F00001F0B86B68EC01F09380070E006E002ED2
:10120000FED79382070E006E002EFED781A2FED776
:101210008A909390070E006E002EFED78A929392CA
:10122000D10EB86F68EC01F0010E006E9EEC01F07B
:1012300001507F0BB46FB96FD1EC01F001C01DF00C
:10124000010E006E9EEC01F001507F0BB46FB96F80
:10125000D1EC01F001C01CF0006A9EEC01F00150DD
:101260003F0BB46FB96FD1EC01F001C01BF093904C
:101270000000938281A2FED7070E006E002EFED7DB
:1012800000D000009380070E006E002EFED7C00E27
:10129000F212F29CF29EF2BEFDD79380070E006E12
:1012A000002EFED79382070E006E002EFED78A9086
:1012B0009390070E006E002EFED78A929392D00E66
:1012C000B86F68EC01F0030EB86F68EC01F0938022
:1012D000070E006E002EFED79382070E006E002EC2
:1012E000FED781A2FED78A909390070E006E002E43
:1012F000FED78A929392D10EB86F68EC01F0010E7E
:10130000006E9EEC01F001507F0BB46FB96FD1EC11
:1013100001F001C021F0010E006E9EEC01F00150C1
:101320003F0BB46FB96FD1EC01F001C01EF0010E9C
:10133000006E9EEC01F001501F0BB46FB96FD1EC41
:1013400001F001C01FF0006A9EEC01F001C0B4F092
:1013500001C0B9F0D1EC01F001C020F09390000081
:10136000938281A2FED7070E006E002EFED700D01A
:1013700000009380070E006E002EFED7C00EF21202
:10138000010EB46FB66B240EB56F4ADE516A280E9B
:10139000506E1EC0B4F01B0EB56F91EC03F02F0E13
:1013A000C06F83EC03F01FC0B4F01B0EB56F91EC5F
:1013B00003F02F0EC06F83EC03F020C0B4F01B0EBF
:1013C000B56F91EC03F0200EC06F83EC03F01BC0EF
:1013D000B4F01B0EB56F91EC03F03A0EC06F83ECC6
:1013E00003F01CC0B4F01B0EB56F91EC03F03A0E85
:1013F000C06F83EC03F01DC0B4F01B0EB56F91EC11
:1014000003F04D0EF66E010EF76E050EB46FC4ECD0
:1014100003F0050EB46F1B0EB56F91EC03F0540E84
:10142000F66E010EF76E050EB46FC4EC03F0410EBC
:10143000E96E27C0B7F026C0B6F025C0B5F024C0CD
:10144000B4F067DEEA6A280EE96E48EC04F00A0E92
:101450009EA8FED7AD6E0D0E9EA8FED7AD6E5AEFBC
:101460000CF0F29CF29EF2BEFDD79380070E006E48
:10147000002EFED79382070E006E002EFED78A90B4
:101480009390070E006E002EFED78A929392D00E94
:10149000B86F68EC01F0B86B68EC01F09380070E50
:1014A000006E002EFED79382070E006E002EFED730
:1014B00081A2FED78A909390070E006E002EFED771
:1014C0008A929392D10EB86F68EC01F0010E006E13
:1014D0009EEC01F001507F0BB46FB96FD1EC01F0BD
:1014E00001C01DF0010E006E9EEC01F001507F0B5B
:1014F000B46FB96FD1EC01F001C01CF0006A9EEC32
:1015000001F001503F0BB46FB96FD1EC01F001C095
:101510001BF093900000938281A2FED7070E006E0D
:10152000002EFED700D000009380070E006E002E24
:10153000FED7C00EF212F29CF29EF2BEFDD793804F
:10154000070E006E002EFED79382070E006E002E4F
:10155000FED78A909390070E006E002EFED78A92D7
:101560009392D00EB86F68EC01F0030EB86F68EC80
:1015700001F09380070E006E002EFED79382070EB7
:10158000006E002EFED781A2FED78A909390070EA0
:10159000006E002EFED78A929392D10EB86F68EC3F
:1015A00001F0010E006E9EEC01F001507F0BB46F54
:1015B000B96FD1EC01F001C021F0010E006E9EEC7C
:1015C00001F001503F0BB46FB96FD1EC01F001C0D5
:1015D0001EF0010E006E9EEC01F001501F0BB46F67
:1015E000B96FD1EC01F001C01FF0006A9EEC01F070
:1015F00001C0B4F001C0B9F0D1EC01F001C020F09D
:1016000093900000938281A2FED7070E006E002EF9
:10161000FED700D000009380070E006E002EFED78C
:10162000C00EF212010EB46FB66B240EB56FF8DC6B
:10163000516A280E506E1EC0B4F01B0EB56F91ECAF
:1016400003F02F0EC06F83EC03F01FC0B4F01B0E2D
:10165000B56F91EC03F02F0EC06F83EC03F020C048
:10166000B4F01B0EB56F91EC03F0200EC06F83EC4D
:1016700003F01BC0B4F01B0EB56F91EC03F03A0EF3
:10168000C06F83EC03F01CC0B4F01B0EB56F91EC7F
:1016900003F03A0EC06F83EC03F01DC0B4F01B0ED4
:1016A000B56F91EC03F06F0EF66E010EF76E050E3E
:1016B000B46FC4EC03F0060EB46F1B0EB56F91EC63
:1016C00003F0760EF66E010EF76E050EB46FC4ECE5
:1016D00003F0410EE96E27C0B7F026C0B6F025C072
:1016E000B5F024C0B4F015DDEA6A280EE96E48ECC6
:1016F00004F00A0E9EA8FED7AD6E0D0E9EA8FED772
:10170000AD6E5BEF0CF0EA6AB50EE96EEF500EE0DD
:10171000070E016E006A002EFED7012EFBD7C70E02
:10172000006E002EFED70000EF2EF2D760EF0CF017
:10173000F86AD09E078EEA6AE96AB886700EAF6EC4
:10174000020EB06EA60EAC6E900EAB6E1B6A1C6ADB
:101750001D6A1E6A1F6A206A216AB886700EAF6E03
:10176000020EB06EA60EAC6E900EAB6ECD0EA76FD5
:10177000050EA86FA96FFF0EAA6FAB6BAF6BAE6BB8
:10178000AD6BAC6BB36BB26BB16BB06BC150C00BDC
:101790000F09C16E070EB46E196A1A6A506A516A4F
:1017A000526A536A4C0E546E750E556E6E0E566E1E
:1017B000650E576E730E586E596A5A6A5B6A5C6A98
:1017C0005D6A5E6A4D0E5F6E610E606F720E616FD4
:1017D000740E626F650E636F730E646F656B666B7C
:1017E000676B686B696B4D0E6A6F690E6B6FE90E04
:1017F0006C6F720E6D6F630E6E6F6F0E6F6F6C0E8F
:10180000706F650E716F730E726F736B746B4A0E2F
:10181000756F750E766F650E776F760E786F650E45
:10182000796F730E7A6F7B6B7C6B7D6B7E6B7F6BDE
:10183000560E806F690E816F650E826F720E836F18
:101840006E0E846F650E856F730E866F876B886B67
:10185000896B8A6B530E8B6FE10E8C6F620E8D6FEE
:10186000610E8E6F640E8F6F6F0E906F916B926B27
:10187000936B946B956B440E966F6F0E976F6D0E16
:10188000986F690E996F6E0E9A6F670E9B6F6F0E51
:101890009C6F9D6B9E6BA16BA26BA36BA46BA56BE6
:1018A000A66B27EF03F05BEF04F085EF05F0C1EFC7
:1018B00006F085D4D6D5020EB46FFA0EB56F23D7D5
:0818C000B42FFBD7F0D70300A1
:020000040030CA
:0E0000003FCE390E008781000FC00FE00F4089
:00000001FF
;PIC18F4550
;CRC=B797  CREATED="17-Oct-12 11:26"
