:1000000009EF0AF06896000C046ED8CF05F0E0CF37
:1000100006F00001E9CF0CF0EACF07F0E1CF08F0DD
:10002000E2CF09F0D9CF0AF0DACF0BF0F3CF12F01C
:10003000F4CF13F0FACF14F0F5CF15F0F6CF16F099
:10004000F7CF17F000C00EF001C00FF002C010F0A3
:1000500003C011F0A0A230EF00F0A1B2B0EF08F0A1
:100060009DA436EF00F09EB4B4EF08F0A0A03CEFE2
:1000700000F0A1B006EF09F0A0AA42EF00F0A1BA8B
:10008000D8EF07F00EC000F00FC001F010C002F072
:1000900011C003F00CC0E9FF07C0EAFF078E08C0DB
:1000A000E1FF09C0E2FF0AC0D9FF0BC0DAFF12C0AE
:1000B000F3FF13C0F4FF14C0FAFF15C0F5FF16C01C
:1000C000F6FF17C0F7FF045006C0E0FF05C0D8FFD9
:1000D0001000F76AE20FF66E000EF7220900F550E5
:1000E00012002300F76AF40FF66E000EF7220900E3
:1000F000F5501200000302FFFFFFFFFFFFFFFFFFAD
:10010000FFFFFFFFF76A140FF66E010EF7220900DA
:10011000F550120000FF02FFFFFFFFFFFFFFFFFF90
:10012000FFFFFFFFF76A340FF66E010EF72209009A
:10013000F550120008000800400000000000000018
:1001400000000000000000000000000000000000AF
:1001500000000000F76A640FF66E010EF722090036
:10016000F5501200080000004000000000000000F0
:10017000000000000000000000000000000000007F
:1001800000000000F76A940FF66E010EF7220900D6
:10019000F550120009024300020100C032090400B8
:1001A00000010202010005240010010424020205DE
:1001B000240600010524010001070581030800FA57
:1001C00009040100020A00000007050202400001C4
:1001D000070582024000FA00F76AE80FF66E010E8A
:1001E000F7220900F55012000200F76AFA0FF66EC6
:1001F000010EF7220900F5501200120017001B0033
:100200002000FFFFFFFFFFFFFFFFF76A1A0FF66EE8
:10021000020EF7220900F55012001201100102002F
:100220000008D8040B00000101020001F76A3C0F2E
:10023000F66E020EF7220900F550120004030904BD
:1002400008034300430053002803550053004200B5
:100250005F0043006F006E00740072006F006C005E
:100260005F0044006500760069006300650073006C
:100270006D92699468A402D06894FCD7E4EF07F00B
:10028000080E0401016F040E036F180E026F880E32
:10029000006F046B040E076F200E066F0001000C48
:1002A00070A002D0EDDF7090689AEDEF07F06A6AF7
:1002B0006892F3EF07F00101399138BF3981389F17
:1002C0003851100803E2000E016E1BD039A10DD089
:1002D000036A3851000106DFFF0802E1000E01D079
:1002E000010E016E01010DD00CD0036A38510001DE
:1002F00009DFFF0802E1000E01D0010E016E0101CD
:1003000000D00001000C036A01013751700FE96E43
:100310000F0E0320EA6EEF6A37C138F10001CBDF20
:10032000015219E001013751080DF350396BE96EA4
:10033000040E3925EA6EEF6A3751080DF350396B18
:10034000386F040E3827000E392338C1E9FF040E38
:100350003925EA6EEF6A0001000C010E0101366FCB
:1003600036510F0807E336C137F10001CCDF010138
:10037000362BF6D70001000C456A446A250E436E01
:10038000800E426E466A476A080E486E976B9691D9
:100390004A6A496A926B9391000C01012C6B2C51B3
:1003A00001080AE3036A2C51400FE96E000E032096
:1003B000EA6EEF6A2C2BF3D70001DEDF346A010E00
:1003C000356E336A000C6A6A686A9F0E6B6E3D0E6A
:1003D000696E6E6AC2DFE1DF160E706E68A602D02B
:1003E00011DEFCD76D984CDF030E3B6EF9EF07F082
:1003F000698468986D82FFEF07F0689C05EF08F04C
:1004000031C13CF0000CFF0E3C6E000C01012F6B63
:100410003F522CE02F51070829E33650000A000113
:1004200005E0020A09E0010A0DE012D0036A3E501D
:10043000A9DEE8CF30F10CD0036A3E50F7DEE8CFFA
:1004400030F106D0036A3E50E0DEE8CF30F100D054
:100450003E2A3F0601012F512F2B036A200FE96E20
:10046000040E0320EA6E30C1EFFFD2D73F5204E101
:100470002F51080801E0336A2FC131F10001C0DFBC
:10048000000C3E6A366A04011B51010A000107E0B4
:10049000030A0AE0010A0BE0220A1BE02FD0120E29
:1004A0003F6E030E366E2CD0430E3F6E29D0020EE7
:1004B000366E036A04011A51370FE96E000E0320ED
:1004C000EA6EEFCF3EF0036A3E500001AFDE3F6EB2
:1004D00017D0D89004011A35036A000186DE09009E
:1004E000F5CF03F03E6E3E3C01D006D0036A3E508D
:1004F00049DE3F6E05D002D086DF0ED084DF0CD0FF
:1005000004011F5305E13F501E5D02E21EC43FF08F
:10051000010E336E00017ADFB8EF03F001012E53B4
:1005200006E1040E3B6E000118DFC5D00101050E87
:100530003B6E040E316F280E306F010E2F6F2F515E
:100540000F08D8A0B8D02FC137F10001DCDE0101BF
:10055000326B036A2F510001D5DDFF0853E0040E12
:100560000101326FD8902F35036A0001F3DD0900D5
:10057000F5CF03F00101336F03C034F12F51080DA3
:10058000F350376B366F010E3625016E000E3721A2
:10059000036E01C0E9FF040E0324EA6E33C1EFFFCE
:1005A0002F51080DF350376B366F020E3625016E52
:1005B000000E3721036E01C0E9FF040E0324EA6E2A
:1005C00031C1ECFFED5230C1EFFFD8902F35036AF7
:1005D0000001C0DD0900F5CF03F001013027035011
:1005E0003123880E356F34B1358134B335832F51C3
:1005F000080DF350376BE96E040E3725EA6E35C1EE
:10060000EFFF0001036A01012F5100016BDDFF08BC
:1006100037E0010132832F51080DF350376B366FED
:10062000040E3627000E3723020E3625016E000E0B
:100630003721036E01C0E9FF040E0324EA6E31C1C5
:10064000ECFFED5230C1EFFFD8902F35036A000167
:1006500069DD0900F5CF03F0010130270350312394
:100660002F51080DF350376B366F040E3627000EEE
:10067000372336C1E9FF040E3725EA6E400EEF6ED0
:1006800001013251060802E10E0E326F036A2F514A
:10069000000128DD010803E0010132890001036A3D
:1006A00001012F51700FE96E0F0E0320EA6E32C167
:1006B000EFFF2F2B44D70001B0EF03F004011951D5
:1006C000000A00010DE0010A15E0020A20E0060A16
:1006D0002AE0030A31E00E0A31E0010A37E046D091
:1006E00035C020F40401216B020E0101316F0001BD
:1006F00087DE3ED004011A2D07D0010E3516010108
:10070000316B00017DDE02D000017DDE31D00401BD
:100710001A2D06D035820101316B000171DE02D045
:10072000000171DE25D0020E336E1AC43DF00101C6
:10073000316B000165DE1CD0A4D61AD034C020F481
:10074000010E0101316F00015BDE12D004011A516C
:1007500001080AE31AC434F01AC42EF10001DED6EF
:100760000101316B00014CDE000102D04CDE00D0F3
:1007700027EF05F034C02EF104011951000A0001E1
:1007800005E00A0A0CE0010A2BE03FD00401206BCF
:10079000216B020E0101316F000132DE38D0010100
:1007A0002E531BE0010E2E5D036A000115DD016E64
:1007B00004011C5DD8A002D001010FD0036A1C51B6
:1007C000400FE96E000E0320EA6EEFCF20F4010E19
:1007D0000101316F000114DE02D0000114DE17D0D8
:1007E00001012E530FE0036A04011C51400FE96E12
:1007F000000E0320EA6E1AC4EFFF0101316B000105
:10080000FFDD02D00001FFDD02D0FDDD00D027EFCB
:1008100005F001012F912EBF2F812E9F2FA111D006
:100820002E51080DF350316B306F040E3027000E3F
:10083000312330C1E9FF040E3125EA6E880EEF6ED8
:1008400009D02E51080DF350316BE96E040E31259D
:10085000EA6EEF6A000191EF04F001012F912EBFC3
:100860002F812E9F2FA111D02E51080DF350316BE7
:10087000306F040E3027000E312330C1E9FF040E23
:100880003125EA6E840EEF6E0AD02E51080DF3501A
:10089000316BE96E040E3125EA6E840EEF6E0001B5
:1008A00099EF04F001012F912EBF2F812E9F2FA1D0
:1008B00011D02E51080DF350326B316F040E3127D9
:1008C000000E322331C1E9FF040E3225EA6EEFCF6C
:1008D00030F10AD02E51080DF350326BE96E040E40
:1008E0003225EA6EEFCF30F130AF02D030B502D012
:1008F000000E01D0010E016E0001A5EF04F01CC432
:1009000038F1D9DC01522EE004011951010A00012D
:1009100005E0020A0BE0030A11E022D01CC42EF10C
:1009200078D70101316B00016BDD1CD01CC42EF1A6
:1009300094D70101316B000163DD14D00401206BF9
:10094000216B1CC42EF10001ADD7015203E0010E52
:100950000401206F020E0101316F000151DD02D050
:1009600052DD00D027EF05F0FE0E3C6E000C0401B6
:100970001C2D01D002D01C534FE11951000A000177
:100980000BE0010A0DE0210A1CE0010A1FE0030A46
:1009900030E0010A35E03DD0010E996FE5DF3BD034
:1009A000040EEA6E200EE96EE26A4B0EE16E080E4E
:1009B000016EE6CFEEFF012EFCD71EC431F120DD23
:1009C0002AD0020E996F9681CFDF25D0040EEA6EF1
:1009D000200EE96EE26A420EE16E070E016EE6CF6E
:1009E000EEFF012EFCD7070E0101316F000108DD7B
:1009F00012D01AC497F00101316B000101DD0BD058
:100A00001AC44AF01BC449F00101316B0001F8DC43
:100A100002D0F9DC00D00401000127EF05F0336AB1
:100A2000040118517F0B000A000107E0010A07E0EA
:100A3000030A07E0230A07E008D040D608D09AD678
:100A400006D05DD704D093D702D0DDDC00D037EFDD
:100A500007F001012F51080DF350356BE96E040EBC
:100A60003525EA6EEFCF31F13051020806E131ADA4
:100A700002D0306B02D0010E306F3051030813E109
:100A8000840E316F2F51080DF350356B346F040E07
:100A90003427000E352334C1E9FF040E3525EA6EF4
:100AA000840EEF6E07D0302D03D0C80E316F02D008
:100AB000880E316FD8902F35036A0001AAEC00F040
:100AC0000900F5CF03F00101326F03C033F12F515C
:100AD000080DF350356B346F010E3425016E000E96
:100AE0003521036E01C0E9FF040E0324EA6E32C112
:100AF000EFFF33B1318133B331832F51080DF35000
:100B0000356BE96E040E3525EA6E31C1EFFF000149
:100B1000000C036A01013C51700FE96E0F0E0320B7
:100B2000EA6EEF5212E03C51080DF3503E6B3D6F00
:100B3000040E3D27000E3E233DC1E9FF040E3E2575
:100B4000EA6EEFCF3DF13DAF02D0000E01D0010EB5
:100B5000016E0001000C37C13CF1DBDF015264E0A3
:100B600001013751080DF3503D6B3C6F040E3C27DB
:100B7000000E3D23010E3C25016E000E3D21036E4B
:100B800001C0E9FF040E0324EA6E38C1EFFF3A51B9
:100B9000020817E13751080DF3503D6B3C6F040E0E
:100BA0003C27000E3D233CC1E9FF040E3D25EA6EC3
:100BB000EFCF3BF13BAD02D03A6B02D0010E3A6F62
:100BC00013D03A51040810E13751080DF3503D6B32
:100BD000E96E040E3D25EA6EEFCF3BF13BAD03D04D
:100BE000010E3A6F01D03A6B3A2D03D0C80E3B6F1D
:100BF00002D0880E3B6F39B13B8139B33B8337510B
:100C0000080DF3503D6B3C6F040E3C27000E3D2356
:100C10003CC1E9FF040E3D25EA6E3BC1EFFF010E2A
:100C2000016E05D000D00001000E016E010100012F
:100C3000000C9951010A05E0020A14E0010A19E0CA
:100C40002CD0EA6A4B0EE96E040EE26E180EE16ECD
:100C5000080E016EE6CFEEFF012EFCD7030E996F52
:100C600083DE1DD00101316B000100EC02F0996BB5
:100C700016D0EA6A420EE96E040EE26E180EE16EBC
:100C8000070E016EE6CFEEFF012EFCD7996B010136
:100C9000316B000100EC02F002D0996B00D085EFBF
:100CA00006F001012F51080DF350316B306F010E2A
:100CB0003025016E000E3121036E01C0E9FF040EE4
:100CC0000324EA6E036AEFCF01F003C002F00001D3
:100CD00079EF06F09391020E01012F6F306F000142
:100CE000B8DE000C9381956B020E01012F6F00019D
:100CF000D8D701C094F0945301E1ECDF8CEF06F0FB
:100D000001012E5304E1000194D706D001012E51B8
:100D1000020803E10001E6D701010001000C2FC128
:100D20006EFF01012F5303E0040E3B6E02D0020E52
:100D30003B6E0001A1EF06F0346A336A3DC02FF12B
:100D4000EED711EF07F02FC13CF1E3DE015241E095
:100D500001012F51080DF350386B376F040E372700
:100D6000000E3823020E3725016E000E3821036E67
:100D700001C0E9FF040E0324EA6EECCF03F0ED524C
:100D8000EFCF35F103C036F136C1EAFF35C1E9FFD7
:100D900031C1E2FF30C1E1FF33C102F032C101F0E5
:100DA000015202E0022A02D0025206E0E6CFEEFF34
:100DB000012EFCD7022EFAD72FC137F133C139F1FA
:100DC00032C138F134C13AF10001C5DE015003D01F
:100DD00000D0000E016E000C020E01012F6F316B6E
:100DE000530E306F336B92C032F1020E346F00013C
:100DF000AADF92C098F0926B000C925301E0ECDFF6
:100E000018EF07F001012E530EE1332C05D000013D
:100E100006EC02F006D001013350020803E10001A4
:100E20008BD7010106D02E51020803E10001E5D75E
:100E300001010001000C3A3001012C6F2C332C33DE
:100E40001F0E2C173A524FE1040100513C0B0101D7
:100E50002D6F430E0401001701012D51340825E1C7
:100E600004010451800B01E0046B0001D8D56D989A
:100E70003C3C07D001012F6B030E306F0001E9DD10
:100E800012D001012F6B020E306F0001E2DD3C50E9
:100E9000FE0809E00101376B396B3CC038F1040EE4
:100EA0003A6F000158DE1DD001012D5104081AE1EE
:100EB0002E6B000125DF01012F6B020E306F000148
:100EC000C8DD3C50FE080CE03C3C01D009D00101DB
:100ED000376B396B3CC038F1010E3A6F00013BDED5
:100EE00000D0010162D03A50040818E1430E040119
:100EF0000417FF0E3C6E01012E6B000183DF3C3CAA
:100F000001D00AD00101376B396B3CC038F1020EB9
:100F10003A6F000120DE00D047D001013AB41DD065
:100F20002C51080DF3502F6B016E040E2F25036E0C
:100F30002C51080DF350316BE96E040E3125EA6E29
:100F4000EF50430B03C0EAFF01C0E9FFEF6E2CC175
:100F50002EF10001D5DE28D001012C51080DF350EF
:100F60002F6B2E6F040E2E27000E2F232EC101F0A3
:100F7000040E2F25036E2C51080DF350316B306F8A
:100F8000040E3027000E312330C1E9FF040E312555
:100F9000EA6EEF50430B03C0EAFF2EC1E9FFEF6E8C
:100FA0002CC12EF100012EDF0101000111EF08F02C
:100FB000A19A3B5201E13ED068523CE068A404D0C3
:100FC00069A402D038EF01F06DA201D033D068AA35
:100FD00004D069AA02D050EF01F068A204D069A23F
:100FE00002D057EF01F068A004D069A002D0E3EF6F
:100FF00001F068A804D069A802D0F8EF01F068AC4D
:1010000004D069AC02D0FDEF01F001012B6B68A6A2
:101010000AD069A608D06CCF3AF0000102EC00F0CB
:101020000AD702D0010105D001012B512B2B030857
:10103000EEE2000142EF00F093B101D0FDD79551EF
:10104000952B036A300FE96E040E0320EA6EEFCF92
:1010500019F1010100019451955D07E3196AF2BE8F
:10106000198EF29E37DE19BEF28E010119C101F010
:1010700000018EEF08F001011C91F2BE1C81F29E6E
:10108000000192513E0802E23E0E926F9251922B65
:10109000036A530FE96E000E0320EA6E1BC1EFFFD7
:1010A000F29E01011CB1F28E00015AEF08F01AC144
:1010B0001BF1E1D7196AF2BE198EF29E020E0101F0
:1010C0003C6F000126DD19BEF28E015207E0196A5D
:1010D000F2BE198EF29E80DE19BEF28E8BEF08F002
:1010E00092513E0815E2196AF2BE198EF29E020E66
:1010F00001013C6F00010DDD19BEF28E015207E0C7
:10110000196AF2BE198EF29E67DE19BEF28EE8D71A
:1011100019C11AF1CCD793EF08F08ED701C018F19E
:1011200018C119F1DDD701011851390805E3300E56
:10113000185D016E0FD00ED01851600806E21851EC
:101140007A0803E31851DF0B01D01851BF0F0A0FC3
:10115000016E00D01A0E286E110E296E34EF0BF0BE
:10116000EE2BA19242EF00F0ED51FF0808E19484CC
:10117000BD6A040EBD6EB76AB66AED6B44D0ED531E
:101180001CE1016AEEC02DF101012B6B2C6BBE50EE
:101190002B250001F36FBF5001012C210001F46FDA
:1011A000000E01012D210001F56F000E010101204B
:1011B0000001F66F010EED6F26D0ED2D24D09D9429
:1011C000F6C0F2F0F5C0F1F0F4C0F0F0F3C0EFF0CB
:1011D000016AEEC02DF101012B6B2C6BBE502B254B
:1011E0000001F36FBF5001012C210001F46F000ECC
:1011F00001012D210001F56F000E01010120000108
:10120000F66F020EED6F9E9442EF00F0ED51FF0875
:1012100008E19484BD6A040EBD6EB76AB66AED6BD0
:1012200044D0ED531CE1016AEEC02DF101012B6B9E
:101230002C6BBB502B250001F36FBC5001012C21FE
:101240000001F46F000E01012D210001F56F000E69
:10125000010101200001F66F010EED6F26D0ED2D8A
:1012600024D0A090F6C0F2F0F5C0F1F0F4C0F0F098
:10127000F3C0EFF0016AEEC02DF101012B6B2C6B76
:10128000BB502B250001F36FBC5001012C21000144
:10129000F46F000E01012D210001F56F000E010118
:1012A00001200001F66F020EED6FA19042EF00F0F9
:1012B0000A0D4D703E2564000A0D4D656D496E6640
:1012C0003A20257820257820257820257820257833
:1012D00000000A0D3D3D2578202578202578202521
:1012E0007800746172656120313A00006D6A696A44
:1012F000080E6F6E945030090101946E3B6A196AB2
:10130000F2BE198EF29E0001CDEC01F019BEF28EF4
:10131000000CECDFBDEF09F0196AF2BE198EF29EE7
:10132000CDEC01F019BEF28E6D6A140E6F6E696A13
:101330006D86010E3B6EA3EF09F0958683A604D05F
:101340006DB601D0E9D703D06DA601D0CFDF3B2C1D
:101350000BD06DBA09D0686A696AA08AC00EF21211
:10136000110E696E020E3B6EBEEF09F03450016E35
:10137000C2EF09F0BCEC01F0CCD7DFD7958683A68D
:101380000AD0F4D7015204E0010E016E06D003D05A
:10139000000E016E02D0FF0E016ED0EF09F0EAD709
:1013A00001C032F09698D190C69A949E9380939201
:1013B000010EC66E000EC76E800ED56E880ED56EFD
:1013C000000ECA6E000ECB6EB16A9484BD6AB76A15
:1013D000B66A070EB46E9250926E0D0E006E002E1D
:1013E000FED7B450A19CB56A000E966E936E800E27
:1013F000946E480E956E8D9296928D8096909598EB
:101400008C98959E8C8E959A8C9A959C8C8CE0EFFE
:101410000AF0F86AD09E078EEA6AE96AB886A00EDA
:10142000AF6E010EB06EA60EAC6E900EAB6E326A51
:101430003B6A3F6A926B996B9A6BFD0EEA6F050EE1
:10144000EB6FEC6FFF0EED6FEE6BF26BF16BF06B11
:10145000EF6BF66BF56BF46BF36BF76BB886A00E66
:10146000AF6E010EB06EA60EAC6E900EAB6E969384
:10147000969596979699F96BFA6BFB6BFF6BFE6BE3
:10148000FD6BFC6B010E0101116F800E126F400E9F
:10149000136F150E146FC150C00B0F09C16E070EEC
:1014A000B46E030E1B6E1C6A1D6A1E6A376A040E38
:1014B000386E0C0E396E4C0E00019B6F750E9C6FD2
:1014C0006E0E9D6F650E9E6F730E9F6FA06BA16B6E
:1014D000A26BA36BA46BA56B4D0EA66F610EA76FDD
:1014E000720EA86F740EA96F650EAA6F730EAB6FA4
:1014F000AC6BAD6BAE6BAF6BB06B4D0EB16F690E7D
:10150000B26FE90EB36F720EB46F630EB56F6F0EEC
:10151000B66F6C0EB76F650EB86F730EB96FBA6B9E
:10152000BB6B4A0EBC6F750EBD6F650EBE6F760E3F
:10153000BF6F650EC06F730EC16FC26BC36BC46BA0
:10154000C56BC66B560EC76F690EC86F650EC96F47
:10155000720ECA6F6E0ECB6F650ECC6F730ECD6FB1
:10156000CE6BCF6BD06BD16B530ED26FE10ED36FBE
:10157000620ED46F610ED56F640ED66F6F0ED76F8B
:10158000D86BD96BDA6BDB6BDC6B440EDD6F6F0EE7
:10159000DE6F6D0EDF6F690EE06F6E0EE16F670E2E
:1015A000E26F6F0EE36FE46BE56BE86BE96BF86B72
:1015B0000101006B016B026B036B046B0001EFD642
:1015C000236A256A140E246E276A266A2D6A2C6AFD
:1015D0002B6A2A6AFF0E2F6E2E6E316A306A1A0E3F
:1015E000286E110E296E1A6A880ED56E9E0ED76E61
:1015F000580ED66EF294880ED56E3C0ED76EB00E95
:10160000D66EF2941C6A040E1B6ED8901A34006ECB
:1016100069EC00F0026E010E002469EC00F0036E2C
:1016200003C0EAFF02C0E9FFEFCF02F0E92AEFCFE3
:1016300000F0ECCF01F0EC2AEFCF03F002E1EC2A4E
:10164000ED52EC50015C5CE10050035C59E1ED525D
:10165000ED52EE6AEE6A02BE53D0EC52ECCFFAFFC6
:10166000ED52EFCFE8FFF96E0001D8901A34006E0A
:1016700069EC00F0026E010E002469EC00F0036ECC
:1016800003C0EAFF02C0E9FFF2A401D0EF88070E11
:10169000E926000EEA22D650D7CF03F0500F016E94
:1016A0003C0E0358026E0150EF260250EC20EF6E04
:1016B000000EEC20EF6E000EEC20EF6EED52ED52BE
:1016C000ED52EC50EC50EC50EC500250EC5C0AE364
:1016D00004E1ED520150EE5C05E3ED520150EF6E76
:1016E0000250EC6EEE52EC50025C0AE304E1ED5263
:1016F0000150EE5C05E2ED520150EF6E0250EC6ECF
:101700001A2A010E1A5C81E11A6AD650D7CF03F06B
:0C171000F2B473D7FAD7FF0E1A6E030074
:020000040030CA
:0E0000003CCE3E1E008581000FC00FE00F4079
:00000001FF
;PIC18F4550
;CRC=817F  CREATED="14-Ago-13 11:59"
