:100000006CEF09F06896000C046ED8CF05F0E0CFD5
:1000100006F00001E9CF0CF0EACF07F0E1CF08F0DD
:10002000E2CF09F0D9CF0AF0DACF0BF0F3CF12F01C
:10003000F4CF13F0FACF14F0F5CF15F0F6CF16F099
:10004000F7CF17F000C00EF001C00FF002C010F0A3
:1000500003C011F0A0AA30EF00F0A1BA24EF07F01E
:100060000EC000F00FC001F010C002F011C003F08C
:100070000CC0E9FF07C0EAFF078E08C0E1FF09C016
:10008000E2FF0AC0D9FF0BC0DAFF12C0F3FF13C0B2
:10009000F4FF14C0FAFF15C0F5FF16C0F6FF17C035
:1000A000F7FF045006C0E0FF05C0D8FF1000F76A54
:1000B000BE0FF66E000EF7220900F5501200000385
:1000C00002FFFFFFFFFFFFFFFFFFFFFFFFFFF76ADA
:1000D000DE0FF66E000EF7220900F550120000FF49
:1000E00002FFFFFFFFFFFFFFFFFFFFFFFFFFF76ABA
:1000F000FE0FF66E000EF7220900F5501200080000
:1001000008004000000000000000000000000000A7
:100110000000000000000000000000000000F76A7E
:100120002E0FF66E010EF7220900F550120008009E
:10013000000040000000000000000000000000007F
:100140000000000000000000000000000000F76A4E
:100150005E0FF66E010EF7220900F550120009023B
:100160004300020100C03209040000010202010044
:1001700005240010010424020205240600010524C0
:10018000010001070581030800FA09040100020AC1
:10019000000000070502024000010705820240003E
:1001A0000100F76AB20FF66E010EF7220900F55052
:1001B00012000200F76AC40FF66E010EF722090062
:1001C000F550120012171B20FFFFFFFFF76ADC0F2C
:1001D000F66E010EF7220900F5501200120110010F
:1001E00002000008D8040B00000101020001F76AB8
:1001F000FE0FF66E010EF7220900F55012000403FF
:10020000090408034300430053002803550053002A
:1002100042005F0043006F006E00740072006F00C8
:100220006C005F00440065007600690063006500B3
:1002300073006D92699468A402D06894FCD730EF83
:1002400007F0080E0401016F040E036F180E026F11
:10025000880E006F046B040E076F200E066F0001FE
:10026000000C70A002D0EDDF7090689A39EF07F0B3
:100270006A6A68923FEF07F0BA91B9BFBA81B99F35
:10028000B951100803E2000E016E17D0BAA10BD0CD
:10029000036AB9510CDFFF0802E1000E01D0010E24
:1002A000016E0BD00AD0036AB95111DFFF0802E1D9
:1002B000000E01D0010E016E00D0000C036AB8518F
:1002C000700FE96E0F0E0320EA6EEF6AB8C0B9F046
:1002D000D3DF015218E0B851080DF350BA6BE96E44
:1002E000040EBA25EA6EEF6AB851080DF350BA6BE6
:1002F000B96F040EB927000EBA23B9C0E9FF040E86
:10030000BA25EA6EEF6A000C010EB76FB7510F08FD
:1003100005E3B7C0B8F0D2DFB72BF8D7000C2E6AD0
:100320002D6A250E2C6E800E2B6E2F6A306A080EF9
:10033000316E806B7F91336A326A7B6B7C91000CEB
:10034000AD6BAD5101080AE3036AAD51290FE96EA7
:10035000000E0320EA6EEF6AAD2BF3D7E0DF1D6AD3
:10036000010E1E6E1C6A000C6A6A686A9F0E6B6E34
:100370003D0E696E6E6AC8DFE3DF160E706E68A60A
:1003800002D040DEFCD76D985CDF030E246E45EF93
:1003900007F0698468986D824BEF07F0689C51EF15
:1003A00007F0B2C025F0000CFF0E256E000CB06BFC
:1003B000285226E0B051070823E31F5005E0020A47
:1003C00008E0010A0BE00FD0036A2750C0DEB16FCE
:1003D0000AD0036A27500BDFB16F05D0036A27509C
:1003E000F5DEB16F00D0272A2806B051B02B036A82
:1003F000200FE96E040E0320EA6EB1C0EFFFD8D7DC
:10040000285204E1B051080801E01C6AB0C0B2F003
:10041000C8DF000C276A1F6A04011B51010A000192
:1004200007E0030A0AE0010A0BE0220A1BE02BD0D6
:10043000120E286E030E1F6E28D0430E286E25D094
:10044000020E1F6E036A04011A51200FE96E000E9E
:100450000320EA6EEFCF27F0036A27500001C7DEC2
:10046000286E13D0036A04011A510001A3DE276E1F
:10047000273C01D006D0036A275069DE286E05D0DC
:1004800002D092DF0ED090DF0CD004011F5305E1A3
:1004900028501E5D02E21EC428F0010E1C6E0001F1
:1004A00086DF5DEF03F0AF5304E1040E246E2CDF12
:1004B000B1D0050E246E040EB26F280EB16F010E7E
:1004C000B06FB0510F08D8A0A5D0B0C0B8F0F6DE1C
:1004D000B36B036AB051FBDDFF084DE0040EB36F50
:1004E000D890B035036A1BDE0900F5CF03F0B46F76
:1004F00003C0B5F0B051080DF350B86BB76F010EE3
:10050000B725016E000EB821036E01C0E9FF040E8D
:100510000324EA6EB4C0EFFFB051080DF350B86B7E
:10052000B76F020EB725016E000EB821036E01C031
:10053000E9FF040E0324EA6EB2C0ECFFED52B1C035
:10054000EFFFD890B035036AEADD0900F5CF03F07C
:10055000B1270350B223880EB66FB5B1B681B5B3DB
:10056000B683B051080DF350B86BE96E040EB82590
:10057000EA6EB6C0EFFF036AB05199DDFF0834E0C0
:10058000B383B051080DF350B86BB76F040EB727A3
:10059000000EB823020EB725016E000EB821036EBF
:1005A00001C0E9FF040E0324EA6EB2C0ECFFED5275
:1005B000B1C0EFFFD890B035036A99DD0900F5CFDF
:1005C00003F0B1270350B223B051080DF350B86BBC
:1005D000B76F040EB727000EB823B7C0E9FF040EAB
:1005E000B825EA6E400EEF6EB351060802E10E0E1A
:1005F000B36F036AB0515BDD0108D8A4B389036A05
:10060000B051700FE96E0F0E0320EA6EB3C0EFFF1A
:10061000B02B57D757EF03F004011951000A00011E
:100620000DE0010A14E0020A1EE0060A27E0030AB0
:100630002CE00E0A2CE0010A30E03DD01EC020F470
:100640000401216B020E0001B26FABDE36D0040153
:100650001A2D06D0010E1E160001B26BA2DE02D0CA
:100660000001A2DE2AD004011A2D05D01E8200014D
:10067000B26B97DE02D0000197DE1FD0020E1C6E17
:100680001AC426F0B26B8DDE18D0C4D616D01DC0A9
:1006900020F4010EB26F85DE10D004011A5101085A
:1006A00008E31AC41DF01AC4AFF00001FCD6B26B07
:1006B00078DE000102D078DE00D0B3EF04F01DC078
:1006C000AFF004011951000A000105E00A0A0BE02D
:1006D000010A26E037D00401206B216B020E0001D5
:1006E000B26F5FDE31D0AF5319E0010EAF5D036A28
:1006F00058DD016E04011C5DD8A002D000010ED0AF
:10070000036A1C51290FE96E000E0320EA6EEFCF39
:1007100020F4010E0001B26F44DE01D045DE14D09A
:10072000AF530EE0036A04011C51290FE96E000E5D
:100730000320EA6E1AC4EFFF0001B26B32DE01D073
:1007400033DE02D031DE00D0B3EF04F0B091AFBFA2
:10075000B081AF9FB0A111D0AF51080DF350B26B73
:10076000B16F040EB127000EB223B1C0E9FF040E31
:10077000B225EA6E880EEF6E09D0AF51080DF35026
:10078000B26BE96E040EB225EA6EEF6A28EF04F050
:10079000B091AFBFB081AF9FB0A111D0AF51080DE4
:1007A000F350B26BB16F040EB127000EB223B1C08B
:1007B000E9FF040EB225EA6E840EEF6E0AD0AF5147
:1007C000080DF350B26BE96E040EB225EA6E840E8A
:1007D000EF6E2EEF04F0B091AFBFB081AF9FB0A12C
:1007E00011D0AF51080DF350B36BB26F040EB227A6
:1007F000000EB323B2C0E9FF040EB325EA6EEFCFBB
:10080000B1F00AD0AF51080DF350B36BE96E040E8E
:10081000B325EA6EEFCFB1F0B1AF02D0B1B502D0DF
:10082000000E01D0010E016E38EF04F01CC4B9F0C7
:1008300023DD015229E004011951010A000105E0FC
:10084000020A09E0030A0DE01DD01CC4AFF07ED7F8
:10085000B26BA7DD19D01CC4AFF09AD7B26BA1DD83
:1008600013D00401206B216B1CC4AFF00001B3D77F
:10087000015204E0010E0401206F0001020EB26F6C
:1008800090DD02D091DD00D0B3EF04F0FE0E256EB6
:10089000000C04011C2D01D002D01C5349E1195158
:1008A000000A00010BE0010A0DE0210A1CE0010A28
:1008B0001FE0030A2EE0010A31E037D0010E826FFB
:1008C000E5DF35D0040EEA6E200EE96EE26A340EE2
:1008D000E16E080E016EE6CFEEFF012EFCD71EC4BE
:1008E000B2F05FDD24D0020E826F7F81CFDF1FD098
:1008F000040EEA6E200EE96EE26A2B0EE16E070E20
:10090000016EE6CFEEFF012EFCD7070EB26F49DD78
:100910000ED01AC480F0B26B44DD09D01AC433F093
:100920001BC432F0B26B3DDD02D03EDD00D00401CD
:100930000001B3EF04F01C6A040118517F0B000A98
:10094000000107E0010A07E0030A07E0230A07E0C5
:1009500008D062D608D0B3D606D068D704D099D7CD
:1009600002D022DD00D099EF06F0B051080DF3500F
:10097000B66BE96E040EB625EA6EEFCFB2F0B15158
:10098000020806E1B2AD02D0B16B02D0010EB16F28
:10099000B151030813E1840EB26FB051080DF3504A
:1009A000B66BB56F040EB527000EB623B5C0E9FFD0
:1009B000040EB625EA6E840EEF6E07D0B12D03D07B
:1009C000C80EB26F02D0880EB26FD890B035036AED
:1009D0008FEC00F00900F5CF03F0B36F03C0B4F063
:1009E000B051080DF350B66BB56F010EB525016E11
:1009F000000EB621036E01C0E9FF040E0324EA6E67
:100A0000B3C0EFFFB4B1B281B4B3B283B051080D3B
:100A1000F350B66BE96E040EB625EA6EB2C0EFFF76
:100A2000000C036ABD51700FE96E0F0E0320EA6ED1
:100A3000EF5212E0BD51080DF350BF6BBE6F040EB4
:100A4000BE27000EBF23BEC0E9FF040EBF25EA6E1D
:100A5000EFCFBEF0BEAF02D0000E01D0010E016E8E
:100A6000000CB8C0BDF0DDDF015262E0B851080DE6
:100A7000F350BE6BBD6F040EBD27000EBE23010EEA
:100A8000BD25016E000EBE21036E01C0E9FF040EFC
:100A90000324EA6EB9C0EFFFBB51020817E1B85159
:100AA000080DF350BE6BBD6F040EBD27000EBE23B4
:100AB000BDC0E9FF040EBE25EA6EEFCFBCF0BCADB1
:100AC00002D0BB6B02D0010EBB6F13D0BB51040828
:100AD00010E1B851080DF350BE6BE96E040EBE254F
:100AE000EA6EEFCFBCF0BCAD03D0010EBB6F01D0FE
:100AF000BB6BBB2D03D0C80EBC6F02D0880EBC6F81
:100B0000BAB1BC81BAB3BC83B851080DF350BE6B07
:100B1000BD6F040EBD27000EBE23BDC0E9FF040E4D
:100B2000BE25EA6EBCC0EFFF010E016E03D000D0FF
:100B3000000E016E000C8251010A05E0020A14E069
:100B4000010A16E026D0EA6A340EE96E040EE26E5F
:100B5000180EE16E080E016EE6CFEEFF012EFCD7F7
:100B6000030E826F93DE17D0B26B1BDC826B13D047
:100B7000EA6A2B0EE96E040EE26E180EE16E070EA5
:100B8000016EE6CFEEFF012EFCD7826BB26B09DC63
:100B900002D0826B00D0FAEF05F0B051080DF3508F
:100BA000B26BB16F010EB125016E000EB221036E62
:100BB00001C0E9FF040E0324EA6E036AEFCF01F0DF
:100BC00003C002F0F0EF05F07C91020EB06FB16F40
:100BD000CCDEF5EF05F07C817E6B020EB06FDDD7C9
:100BE00001C07DF07D5301E1EFD7FFEF05F0AF537A
:100BF00002E1A1D704D0AF51020801E1ECD7000C0B
:100C0000B0C06EFFB05303E0040E246E02D0020E9B
:100C1000246E10EF06F01D6A1C6A26C0B0F0F0D7F3
:100C200078EF06F0B0C0BDF0FCDE01523FE0B051FD
:100C3000080DF350B96BB86F040EB827000EB92336
:100C4000020EB825016E000EB921036E01C0E9FF46
:100C5000040E0324EA6EECCF03F0ED52EFCFB6F0B2
:100C600003C0B7F0B7C0EAFFB6C0E9FFB2C0E2FF09
:100C7000B1C0E1FFB4C002F0B3C001F0015202E024
:100C8000022A02D0025206E0E6CFEEFF012EFCD788
:100C9000022EFAD7B0C0B8F0B4C0BAF0B3C0B9F001
:100CA000B5C0BBF0DEDE015003D000D0000E016EF7
:100CB000000C020EB06FB26B3C0EB16FB46B7BC018
:100CC000B3F0020EB56FAEDF7BC081F07B6B000C22
:100CD0007B5301E0EEDF7DEF06F0AF530AE11C2C01
:100CE00003D0D7EC01F004D01C50020801E193D7E7
:100CF00004D0AF51020801E1EBD7000C2330AD6FF7
:100D0000AD33AD331F0EAD17235242E10401005144
:100D10003C0B0001AE6F430E040100170001AE5101
:100D200034081EE104010451800B01E0046B000152
:100D300002D66D98253C05D0B06B030EB16F15DE61
:100D40000ED0B06B020EB16F10DE2550FE0807E02A
:100D5000B86BBA6B25C0B9F0040EBB6F82DE17D03A
:100D6000AE51040814E1AF6B42DFB06B020EB16FFD
:100D7000FCDD2550FE080AE0253C01D007D0B86B09
:100D8000BA6B25C0B9F0010EBB6F6BDE00D05AD034
:100D90002350040814E1430E04010417FF0E256ECE
:100DA0000001AF6B9ADF253C01D008D0B86BBA6B5D
:100DB00025C0B9F0020EBB6F54DE00D043D023B47F
:100DC0001BD0AD51080DF350B06B016E040EB02571
:100DD000036EAD51080DF350B26BE96E040EB225EF
:100DE000EA6EEF50430B03C0EAFF01C0E9FFEF6E6C
:100DF000ADC0AFF0FCDE26D0AD51080DF350B06BA6
:100E0000AF6F040EAF27000EB023AFC001F0040E89
:100E1000B025036EAD51080DF350B26BB16F040EE7
:100E2000B127000EB223B1C0E9FF040EB225EA6E6D
:100E3000EF50430B03C0EAFFAFC0E9FFEF6EADC058
:100E4000AFF04BDF5BEF07F0A19A245201E139D0FC
:100E5000685237E068A404D069A402D019EF01F009
:100E60006DA201D02ED068AA04D069AA02D031EFB9
:100E700001F068A204D069A202D038EF01F068A0A6
:100E800004D069A002D0B4EF01F068A804D069A82A
:100E900002D0C9EF01F068AC04D069AC02D0CEEF4B
:100EA00001F0AC6B68A608D069A606D06CCF23F021
:100EB00002EC00F023D701D004D0AC51AC2B0308D6
:100EC000F1E230EF00F0757362206572726F72208C
:100ED0003D25640A0D006573706572616E646F2054
:100EE0006120636F6E65637461722E2E2E2E0A0D63
:100EF00000006D6A696A080E6F6E94503009946E36
:100F0000246A196AF2BE198EF29EA0EC01F019BE95
:100F1000F28E000CEEDFBAEF07F0196AF2BE198EFE
:100F2000F29EA0EC01F019BEF28E6D6A140E6F6E87
:100F3000696A6D86010E246EA4EF07F0938481A484
:100F400004D06DB601D0E9D703D06DA601D0D1DFB2
:100F5000242C0BD06DBA09D0686A696AA08AC00EC9
:100F6000F212110E696E020E246E000C1D50016EFD
:100F7000000CD0D7E3DF938481A40AD0F7DF0152BD
:100F800004E0000E016E06D003D0010E016E02D007
:100F9000FF0E016E5DEF08F00900F6CF96F0F7CF77
:100FA00097F0F5509EA8FED7AD6E96C0F6FF97C09D
:100FB000F7FF952FF1D77BEF08F09C51016A9B5DFD
:100FC00003E29BC000F00CD0006A080E9D6F9B37B7
:100FD00000369C51005CD8B0006E01369D2FF7D7CB
:100FE000000C200E96A9300E976F95C000F095AFBB
:100FF00007D0001E002A00C095F02D0E976F968F27
:10100000015095C09BF0640E9C6FD7DF00C095F037
:10101000300E0124986F95C09BF00A0E9C6FCDDFB7
:10102000300E00249A6F300E0124996F97C000F0A3
:1010300096A702D096AF969596B90BD096AF22D0D0
:1010400096B520D000C098F096B31CD000C099F09F
:1010500019D0300E985D16E100C098F0200E976F01
:1010600096A704D09695968396AF9693300E995D89
:1010700009E100C099F0200E986F96A7F7D79693D4
:1010800096AF969196A504D097519EA8FED7AD6EC7
:1010900096A304D098519EA8FED7AD6E96A104D019
:1010A00099519EA8FED7AD6E9A519EA8FED7AD6EFF
:1010B00080EF08F0FF0E946F5CD701C094F0969813
:1010C000D190800ED56ECD6A000ECA6E000ECB6E2A
:1010D000070EB46E9250926E130E006E002EFED765
:1010E00000D0B450A19CB56AC60EF66E0E0EF76E17
:1010F0000B0E956F51D794C095F01F0E966F71D758
:101100000A0E9EA8FED7AD6E0D0E9EA8FED7AD6E40
:10111000C3EF09F013DF938481A40AD027DF0152C3
:1011200004E0000E016E06D003D0010E016E02D065
:10113000FF0E016E000C97C099F096C098F099C010
:1011400003F098C0E9FF99C0EAFFEF5204E0982B42
:10115000D8B4992BF4D79651985D006E9751995950
:10116000036E00C001F0CBEF09F09D91F2BE9D81AE
:10117000F29E7B513E0802E23E0E7B6F7B517B2B41
:10118000036A3C0FE96E000E0320EA6E9CC0EFFF7D
:10119000F29E9DB1F28ED0EF08F09BC09CF0E5D797
:1011A000196AF2BE198EF29E020EBD6F3ADC19BEAC
:1011B000F28E015207E0196AF2BE198EF29E79DDB5
:1011C00019BEF28E000C7B513E0813E2196AF2BE82
:1011D000198EF29E020EBD6F24DC19BEF28E0152F2
:1011E00007E0196AF2BE198EF29E63DD19BEF28E17
:1011F000EAD79AC09BF0D1DF22EF09F0836B8ADF38
:1012000001C084F0845324E19751835D1DE2982D41
:101210000DD0036A83519525E96E96510320EA6E3D
:10122000EFCF99F099C09AF0CED70CD0036A8351D2
:101230009525E96E96510320EA6EEFCF99F099C09B
:101240009BF0ABDF832BE0D783C001F008D005D043
:10125000842D03D0010E016E02D0FF0E016ED4EF7B
:1012600009F0EF5210E0EACF95F0E9CF94F0EF509B
:101270009EA8FED7AD6E95C0EAFF94C0E9FFE92AAB
:10128000D8B4EA2AEED7D8EF09F00900F5520DE0FC
:10129000F6CF94F0F7CF95F0F5509EA8FED7AD6E3F
:1012A00094C0F6FF95C0F7FFF0D7DEEF09F0EA6AC9
:1012B000950EE96EEF500EE0070E016E006A002EEB
:1012C000FED7012EFBD7C70E006E002EFED7000002
:1012D000EF2EF2D7E3EF09F0F86AD09E078EEA6AA4
:1012E000E96AB886700EAF6E020EB06EA60EAC6ED6
:1012F000900EAB6E938293803B0EC86E280EC66E26
:10130000C78EC79C246A286A7B6B826B836BFF0E37
:10131000846FB886700EAF6E020EB06EA60EAC6E05
:10132000900EAB6E938293803B0EC86E280EC66EF5
:10133000C78EC79CC150C00B0F09C16E070EB46E9B
:101340001A6A1B6A206A040E216E0C0E226E856BCF
:10135000866B680E876F6F0E886F6C0E896F610EDB
:101360008A6F200E8B6F6D0E8C6F750E8D6F6E0EEB
:101370008E6F640E8F6F6F0E906F0A0E916F0D0E51
:10138000926F936B97D6C6DE0150FF0812E0976B01
:10139000870E966FD0D601C094F0966B870E956F2E
:1013A00001C097F0986B2AD7EA6A870EE96E59D781
:1013B00005D0D60EF66E0E0EF76E67D7020E946F3E
:0E13C000FA0E956F74D7942FFBD7DDD703007C
:020000040030CA
:0E0000003FCE390E008781000FC00FE00F4089
:00000001FF
;PIC18F4550
;CRC=9CC7  CREATED="11-Oct-12 16:23"
