:1000000009EF12F06896000C046ED8CF05F0E0CF2F
:1000100006F00001E9CF0CF0EACF07F0E1CF08F0DD
:10002000E2CF09F0D9CF0AF0DACF0BF0F3CF12F01C
:10003000F4CF13F0FACF14F0F5CF15F0F6CF16F099
:10004000F7CF17F000C00EF001C00FF002C010F0A3
:1000500003C011F0A0A230EF00F0A1B21AEF0DF032
:100060009DA436EF00F09EB41EEF0DF0A0A03CEF73
:1000700000F0A1B070EF0DF0A0AA42EF00F0A1BA1D
:10008000E2EF07F00EC000F00FC001F010C002F068
:1000900011C003F00CC0E9FF07C0EAFF078E08C0DB
:1000A000E1FF09C0E2FF0AC0D9FF0BC0DAFF12C0AE
:1000B000F3FF13C0F4FF14C0FAFF15C0F5FF16C01C
:1000C000F6FF17C0F7FF045006C0E0FF05C0D8FFD9
:1000D0001000F76AE20FF66E000EF7220900F550E5
:1000E0001200000302FFFFFFFFFFFFFFFFFFFFFF04
:1000F000FFFFF76A020FF66E010EF7220900F550B6
:10010000120000FF02FFFFFFFFFFFFFFFFFFFFFFE7
:10011000FFFFF76A220FF66E010EF7220900F55075
:10012000120008000800400000000000000000006D
:1001300000000000000000000000000000000000BF
:100140000000F76A520FF66E010EF7220900F55013
:100150001200080000004000000000000000000045
:10016000000000000000000000000000000000008F
:100170000000F76A820FF66E010EF7220900F550B3
:10018000120009024300020100C03209040000010C
:1001900002020100052400100104240202052406C5
:1001A00000010524010001070581030800FA090484
:1001B0000100020A000000070502024000010705D5
:1001C00082024000FA00F76AD60FF66E010EF7229F
:1001D0000900F55012000200F76AE80FF66E010EF2
:1001E000F7220900F5501200120017001B00200032
:1001F000FFFFFFFFFFFFFFFFF76A080FF66E020E1B
:10020000F7220900F5501200120110010200000847
:10021000D8040B00000101020001F76A2A0FF66EF4
:10022000020EF7220900F550120004030904080326
:1002300043004300530028035500530042005F0071
:1002400043006F006E00740072006F006C005F006E
:100250004400650076006900630065007300F76A7A
:100260006E0FF66E020EF7220900F5501200F00034
:10027000FF010E011D012C013B014A0159016D9244
:10028000699468A402D06894FCD7EEEF07F0080EDA
:100290000401016F040E036F180E026F880E006FC9
:1002A000046B040E076F200E066F0001000C70A097
:1002B00002D0EDDF7090689AF7EF07F06A6A6892F3
:1002C000FDEF07F002017D917CBF7D817C9F7C5119
:1002D000100803E2000E016E1BD07DA10DD0036A51
:1002E0007C510001F6DEFF0802E1000E01D0010E94
:1002F000016E02010DD00CD0036A7C510001F9DEC1
:10030000FF0802E1000E01D0010E016E020100D0D3
:100310000001000C036A02017B51700FE96E0F0EA1
:100320000320EA6EEF6A7BC27CF20001CBDF015250
:1003300019E002017B51080DF3507D6BE96E040E4C
:100340007D25EA6EEF6A7B51080DF3507D6B7C6F63
:10035000040E7C27000E7D237CC2E9FF040E7D2560
:10036000EA6EEF6A0001000C010E02017A6F7A5109
:100370000F0807E37AC27BF20001CCDF02017A2B7F
:10038000F6D70001000C356A346A250E336E800EF4
:10039000326E366A376A080E386E876B86913A6A13
:1003A000396A826B8391000C0201706B70510108F5
:1003B0000AE3036A7051300FE96E000E0320EA6E03
:1003C000EF6A702BF3D70001DEDF246A010E256E81
:1003D000236A000C6A6A686A9F0E6B6E3D0E696E36
:1003E0006E6AC2DFE1DF160E706E68A602D00ADE0A
:1003F000FCD76D984CDF030E2B6E03EF08F0698479
:1004000068986D8209EF08F0689C0FEF08F075C2DC
:100410002CF0000CFF0E2C6E000C0201736B2F529F
:100420002CE07351070829E32650000A000105E07B
:10043000020A09E0010A0DE012D0036A2E5099DE8B
:10044000E8CF74F20CD0036A2E50E7DEE8CF74F2E6
:1004500006D0036A2E50D0DEE8CF74F200D02E2AE8
:100460002F0602017351732B036A200FE96E040EED
:100470000320EA6E74C2EFFFD2D72F5204E173510A
:10048000080801E0236A73C275F20001C0DF000CA6
:100490002E6A266A04011B51010A000107E0030AC3
:1004A0000AE0010A0BE0220A1BE02FD0120E2F6E89
:1004B000030E266E2CD0430E2F6E29D0020E266E10
:1004C000036A04011A51270FE96E000E0320EA6E39
:1004D000EFCF2EF0036A2E5000019FDE2F6E17D053
:1004E000D89004011A35036A000176DE0900F5CFC1
:1004F00003F02E6E2E3C01D006D0036A2E5039DE5A
:100500002F6E05D002D086DF0ED084DF0CD0040120
:100510001F5305E12F501E5D02E21EC42FF0010E95
:10052000236E00017ADFBFEF03F00201725306E190
:10053000040E2B6E000118DFC5D00201050E2B6ED4
:10054000040E756F280E746F010E736F73510F08D0
:10055000D8A0B8D073C27BF20001DCDE0201766B5A
:10056000036A73510001C5DDFF0853E0040E020168
:10057000766FD8907335036A0001E3DD0900F5CF8B
:1005800003F00201776F03C078F27351080DF35046
:100590007B6B7A6F010E7A25016E000E7B21036E54
:1005A00001C0E9FF040E0324EA6E77C2EFFF735126
:1005B000080DF3507B6B7A6F020E7A25016E000EE8
:1005C0007B21036E01C0E9FF040E0324EA6E75C2AD
:1005D000ECFFED5274C2EFFFD8907335036A00014F
:1005E000B0DD0900F5CF03F0020174270350752335
:1005F000880E796F78B1798178B379837351080D5A
:10060000F3507B6BE96E040E7B25EA6E79C2EFFF37
:100610000001036A0201735100015BDDFF0837E04E
:10062000020176837351080DF3507B6B7A6F040ED1
:100630007A27000E7B23020E7A25016E000E7B21A5
:10064000036E01C0E9FF040E0324EA6E75C2ECFFDD
:10065000ED5274C2EFFFD8907335036A000159DD83
:100660000900F5CF03F0020174270350752373517D
:10067000080DF3507B6B7A6F040E7A27000E7B23F4
:100680007AC2E9FF040E7B25EA6E400EEF6E02018E
:100690007651060802E10E0E766F036A735100016F
:1006A00018DD010803E0020176890001036A0201F6
:1006B0007351700FE96E0F0E0320EA6E76C2EFFFE2
:1006C000732B44D70001B7EF03F004011951000A5E
:1006D00000010DE0010A15E0020A20E0060A2AE006
:1006E000030A31E00E0A31E0010A37E046D025C0A6
:1006F00020F40401216B020E0201756F000187DEF8
:100700003ED004011A2D07D0010E25160201756B8B
:1007100000017DDE02D000017DDE31D004011A2D02
:1007200006D025820201756B000171DE02D0000146
:1007300071DE25D0020E236E1AC42DF00201756BF6
:10074000000165DE1CD0A4D61AD024C020F4010E0E
:100750000201756F00015BDE12D004011A5101081D
:100760000AE31AC424F01AC472F20001DED60201B0
:10077000756B00014CDE000102D04CDE00D02EEF84
:1007800005F024C072F204011951000A000105E0CD
:100790000A0A0CE0010A2BE03FD00401206B216B18
:1007A000020E0201756F000132DE38D00201725371
:1007B0001BE0010E725D036A000105DD016E04019C
:1007C0001C5DD8A002D002010FD0036A1C51300F6B
:1007D000E96E000E0320EA6EEFCF20F4010E020155
:1007E000756F000114DE02D0000114DE17D0020183
:1007F00072530FE0036A04011C51300FE96E000EC2
:100800000320EA6E1AC4EFFF0201756B0001FFDDE1
:1008100002D00001FFDD02D0FDDD00D02EEF05F09B
:100820000201739172BF7381729F73A111D07251D3
:10083000080DF350756B746F040E7427000E75234A
:1008400074C2E9FF040E7525EA6E880EEF6E09D0BA
:100850007251080DF350756BE96E040E7525EA6E42
:10086000EF6A000198EF04F00201739172BF738187
:10087000729F73A111D07251080DF350756B746F94
:10088000040E7427000E752374C2E9FF040E75254B
:10089000EA6E840EEF6E0AD07251080DF350756B3C
:1008A000E96E040E7525EA6E840EEF6E0001A0EF6E
:1008B00004F00201739172BF7381729F73A111D012
:1008C0007251080DF350766B756F040E7527000E8C
:1008D000762375C2E9FF040E7625EA6EEFCF74F237
:1008E0000AD07251080DF350766BE96E040E76252E
:1008F000EA6EEFCF74F274AF02D074B502D0000E7E
:1009000001D0010E016E0001ACEF04F01CC47CF2BA
:10091000D9DC01522EE004011951010A000105E061
:10092000020A0BE0030A11E022D01CC472F278D74D
:100930000201756B00016BDD1CD01CC472F294D7F0
:100940000201756B000163DD14D00401206B216B83
:100950001CC472F20001ADD7015203E0010E040184
:10096000206F020E0201756F000151DD02D052DDD1
:1009700000D02EEF05F0FE0E2C6E000C04011C2D95
:1009800001D002D01C534FE11951000A00010BE0C5
:10099000010A0DE0210A1CE0010A1FE0030A30E011
:1009A000010A35E03DD0010E896FE5DF3BD0040E32
:1009B000EA6E200EE96EE26A3B0EE16E080E016EF1
:1009C000E6CFEEFF012EFCD71EC475F220DD2AD043
:1009D000020E896F8681CFDF25D0040EEA6E200ECD
:1009E000E96EE26A320EE16E070E016EE6CFEEFFAF
:1009F000012EFCD7070E0201756F000108DD12D031
:100A00001AC487F00201756B000101DD0BD01AC416
:100A10003AF01BC439F00201756B0001F8DC02D01A
:100A2000F9DC00D0040100012EEF05F0236A040177
:100A300018517F0B000A000107E0010A07E0030AD2
:100A400007E0230A07E008D040D608D09AD606D09F
:100A50005DD704D093D702D0DDDC00D041EF07F0A2
:100A600002017351080DF350796BE96E040E79257C
:100A7000EA6EEFCF75F27451020806E175AD02D04F
:100A8000746B02D0010E746F7451030813E1840E6D
:100A9000756F7351080DF350796B786F040E7827DA
:100AA000000E792378C2E9FF040E7925EA6E840EE0
:100AB000EF6E07D0742D03D0C80E756F02D0880E6C
:100AC000756FD8907335036A0001A1EC00F009003E
:100AD000F5CF03F00201766F03C077F27351080D72
:100AE000F350796B786F010E7825016E000E792135
:100AF000036E01C0E9FF040E0324EA6E76C2EFFF25
:100B000077B1758177B375837351080DF350796BA5
:100B1000E96E040E7925EA6E75C2EFFF0001000C44
:100B2000036A02018051700FE96E0F0E0320EA6E16
:100B3000EF5212E08051080DF350826B816F040E6A
:100B40008127000E822381C2E9FF040E8225EA6E0E
:100B5000EFCF81F281AF02D0000E01D0010E016E05
:100B60000001000C7BC280F2DBDF015264E0020175
:100B70007B51080DF350816B806F040E8027000EAF
:100B80008123010E8025016E000E8121036E01C0BC
:100B9000E9FF040E0324EA6E7CC2EFFF7E510208D7
:100BA00017E17B51080DF350816B806F040E802795
:100BB000000E812380C2E9FF040E8125EA6EEFCF8B
:100BC0007FF27FAD02D07E6B02D0010E7E6F13D01C
:100BD0007E51040810E17B51080DF350816BE96EE2
:100BE000040E8125EA6EEFCF7FF27FAD03D0010EB8
:100BF0007E6F01D07E6B7E2D03D0C80E7F6F02D03A
:100C0000880E7F6F7DB17F817DB37F837B51080D1F
:100C1000F350816B806F040E8027000E812380C209
:100C2000E9FF040E8125EA6E7FC2EFFF010E016E1F
:100C300005D000D00001000E016E02010001000C81
:100C40008951010A05E0020A14E0010A19E02CD0DA
:100C5000EA6A3B0EE96E040EE26E180EE16E080EB3
:100C6000016EE6CFEEFF012EFCD7030E896F83DE07
:100C70001DD00201756B000107EC02F0896B16D0E4
:100C8000EA6A320EE96E040EE26E180EE16E070E8D
:100C9000016EE6CFEEFF012EFCD7896B0201756B6A
:100CA000000107EC02F002D0896B00D08DEF06F056
:100CB00002017351080DF350756B746F010E7425AA
:100CC000016E000E7521036E01C0E9FF040E0324BE
:100CD000EA6E036AEFCF01F003C002F0000181EF7A
:100CE00006F08391020E0201736F746F0001B8DE8B
:100CF00086EF06F08381856B020E0201736F00019F
:100D0000D7D701C084F0845301E1EBD794EF06F00C
:100D10000201725304E1000193D706D0020172511F
:100D2000020803E10001E6D702010001000C73C2D2
:100D30006EFF0201735303E0040E2B6E02D0020E0D
:100D40002B6E0001A9EF06F0246A236A2DC073F20E
:100D5000EED71BEF07F073C280F2E2DE015241E0F2
:100D600002017351080DF3507C6B7B6F040E7B27DF
:100D7000000E7C23020E7B25016E000E7C21036E8B
:100D800001C0E9FF040E0324EA6EECCF03F0ED523C
:100D9000EFCF79F203C07AF27AC2EAFF79C2E9FFB3
:100DA00075C2E2FF74C2E1FF77C202F076C201F0C1
:100DB000015202E0022A02D0025206E0E6CFEEFF24
:100DC000012EFCD7022EFAD773C27BF277C27DF2D6
:100DD00076C27CF278C27EF20001C4DE015003D0FC
:100DE00000D0000E016E02EF07F0020E0201736FD9
:100DF000756B430E746F776B82C076F2020E786F5C
:100E00000001A9D782C088F0826B0AEF07F08253F5
:100E100001E0EBD722EF07F0020172530EE1232C21
:100E200005D000010DEC02F006D0020123500208AB
:100E300003E1000189D7020106D07251020803E1E3
:100E40000001E5D702010001000C2A300201706F99
:100E5000703370331F0E70172A524FE10401005196
:100E60003C0B0201716F430E040100170201715126
:100E7000340825E104010451800B01E0046B0001FA
:100E8000D5D56D982C3C07D00201736B030E746F9F
:100E90000001E6DD12D00201736B020E746F0001D7
:100EA000DFDD2C50FE0809E002017B6B7D6B2CC05E
:100EB0007CF2040E7E6F000155DE1DD002017151DF
:100EC00004081AE1726B000123DF0201736B020E4A
:100ED000746F0001C5DD2C50FE080CE02C3C01D0E5
:100EE00009D002017B6B7D6B2CC07CF2010E7E6F02
:100EF000000138DE00D0020162D02A50040818E157
:100F0000430E04010417FF0E2C6E0201726B0001E8
:100F100083DF2C3C01D00AD002017B6B7D6B2CC09F
:100F20007CF2020E7E6F00011DDE00D047D0020170
:100F30002AB41DD07051080DF350736B016E040E6E
:100F40007325036E7051080DF350756BE96E040E36
:100F50007525EA6EEF50430B03C0EAFF01C0E9FFBD
:100F6000EF6E70C272F20001D3DE28D00201705120
:100F7000080DF350736B726F040E7227000E73230B
:100F800072C201F0040E7325036E7051080DF35008
:100F9000756B746F040E7427000E752374C2E9FF1D
:100FA000040E7525EA6EEF50430B03C0EAFF72C2D0
:100FB000E9FFEF6E70C272F200012EDF0201000144
:100FC0001BEF08F0A19A2B5201E13ED068523CE0A1
:100FD00068A404D069A402D03FEF01F06DA201D053
:100FE00033D068AA04D069AA02D057EF01F068A2F2
:100FF00004D069A202D05EEF01F068A004D069A01D
:1010000002D0EAEF01F068A804D069A802D0FFEF8F
:1010100001F068AC04D069AC02D004EF02F0020128
:101020006F6B68A60AD069A608D06CCF2AF00001C1
:1010300002EC00F00AD702D0020105D002016F5184
:101040006F2B0308EEE2000142EF00F00A0D257558
:101050002F25752F25752825753A25753A2575296B
:1010600020533A2575204E3A257520563A254C7561
:10107000000086A302D0000E01D0010E8693E8B0D6
:10108000868386A303D08D84969402D08D94969403
:10109000720EF56F100EF66FD6EF13F0080E016E9C
:1010A000040E006E002EFED78A929392040E006EFC
:1010B000002EFED70101D5378A90D8B09380D8A0F2
:1010C0009390938281A2FED7012E01D002D000011D
:1010D000E7D7040E006E002EFED78A92939200008E
:1010E0009380040E006E002EFED7040E006E002EBC
:1010F000FED7938281A2FED7016A040E006E002EF5
:10110000FED781B001808A9293928A9093900001D9
:10111000000C080E0101D66F00C0D7F19380040EB9
:10112000006E002EFED7938281A2FED781B0D880B8
:1011300081A0D8900136040E006E002EFED7939247
:101140008A92D62FEBD79380040E006E002EFED726
:101150008A90D751D8A493900000938281A2FED7A1
:10116000040E006E002EFED78A929392040E006E3B
:10117000002EFED78A9093900001000CD6C1D7F1C3
:10118000D8900101D733780ED717D731006E0032CF
:101190003F0E00160050D725D86FD6510F0BD8251B
:1011A000016E0001000C9380040E006E002EFED72D
:1011B0009382040E006E002EFED78A909390040E48
:1011C000006E002EFED78A929392D00E0101D56F49
:1011D000000164DF030E0101D56F00015FDF938022
:1011E000040E006E002EFED79382040E006E002EB9
:1011F000FED781A2FED78A909390040E006E002E37
:10120000FED78A929392D10E0101D56F000146DF7D
:10121000010E006E7EDF01507F0B0101D16FD66F92
:101220000001ACDF01C08AF0010E006E72DF0150D8
:101230003F0B0101D16FD66F0001A0DF01C0E2F0CA
:10124000010E006E66DF01501F0B0101D16FD66FDA
:10125000000194DF01C0E3F0006A5BDF01C0D1F15F
:1012600001C0D6F18BDF01C0E4F0939000009382BF
:1012700081A2FED7040E006E002EFED700D0000023
:101280009380040E006E002EFED79380040E006E35
:10129000002EFED79382040E006E002EFED78A9099
:1012A0009390040E006E002EFED78A929392D00E79
:1012B0000101D56F0001F2DE0101D56B0001EEDE08
:1012C0009380040E006E002EFED79382040E006EF3
:1012D000002EFED781A2FED78A909390040E006E56
:1012E000002EFED78A929392D10E0101D56F000194
:1012F000D5DE010E006E0DDF01507F0B0101D16FB5
:10130000D66F00013BDF01C0E7F0010E006E01DF88
:1013100001507F0B0101D16FD66F00012FDF01C09B
:10132000E6F0006AF6DE01503F0B0101D16FD66F87
:10133000000124DF01C0E5F093900000938281A2B8
:10134000FED7040E006E002EFED700D00000938062
:10135000040E006E002EFED7A60E0101046F110EC2
:10136000056FD6EF13F002013D35006E0036FC0E1E
:101370000016C250C30B0010C26E0D0E006E002E80
:10138000FED7C2824091C2A2408140A1FBD73FC29A
:1013900003F03EC2E9FF3FC2EAFFC2B2FED7C3CFAD
:1013A000EFFFC4CFECFF1A0E006E002EFED7000038
:1013B000000E016E0001000C95908C90080E016EDD
:1013C00000D00000018E10D0019E020162330001A6
:1013D000D8B08C80D8A08C90018C06D0019C012EB6
:1013E000F4D700D000008C80840EE96EE92EFED781
:1013F00000D0000001BEE8D701BCF0D7000C02010C
:101400005951016A585D03E258C200F00CD0006ADD
:10141000080E5A6F583700365951005CD8B0006E2C
:1014200001365A2FF7D70001000C015056C258F26E
:10143000640E0201596F0001E2DF00C056F2015054
:10144000300E08E1020157A30FD057B70DD057B99E
:10145000200E04D00201579757995781012601C0E9
:1014600062F20001A9DF020156C258F20A0E596F5A
:101470000001C5DF00C056F20150300E08E1020144
:1014800057B70AD057A108D057B9200E000101263E
:1014900001C062F291DF0201300E562756C262F29D
:1014A00000018ADF000C0900F6CF57F2F7CF58F29F
:1014B000F5CF62F281DF57C2F6FF58C2F7FF020193
:1014C000562F01D002D00001EED70001000C006AB7
:1014D000016A026A036A02016A6B6B6B6C6B6D6B6B
:1014E00069516811671166112CE0200E6E6FD8905B
:1014F00062376337643765376A376B376C376D37F8
:1015000069516D5D08E168516C5D05E167516B5D86
:1015100002E166516A5D0FE366516A5F6751D8A0C8
:10152000673D6B5F6851D8A0683D6C5F6951D8A07A
:10153000693D6D5FD88000360136023603366E2F66
:10154000D6D7020EEA6E6A0EE96E0001000CE95071
:1015500002015A6F3B0E616F9A0E606FCA0E5F6F89
:101560005E6B0A0E5C6F59C265F258C264F257C2D4
:1015700063F256C262F261C269F260C268F25FC28F
:1015800067F25EC266F20001A2DF0150EFCF56F2B1
:10159000ECCF57F2ECCF58F2ECCF59F2005213E1F6
:1015A00002015C51010AD8A402D000010CD05A51AA
:1015B0000CE00F0B5C5D01E00FE25ABF0DD05ABD8D
:1015C00004D0200E03D002015A6B300E002600C05A
:1015D00062F20001F1DE020161C265F260C264F2F2
:1015E0005FC263F25EC262F2696B686B676B0A0E80
:1015F000666F00016CDF03C061F202C060F201C0DF
:101600005FF200C05EF202015C2FADD70001000C5A
:10161000EF520FE0EACF57F2E9CF56F2EFCF62F286
:10162000CBDE57C2EAFF56C2E9FFE92AD8B4EA2A5C
:10163000EFD7B0EF0BF0958483A48ED00A0E020191
:10164000626F0001B9DE0D0E0201626F0001B4DEAF
:10165000E2C056F21B0E0201576F0001E6DE2F0EAC
:101660000201626F0001A8DEE3C056F21B0E020108
:10167000576F0001DADE2F0E0201626F00019CDE5F
:10168000E4C056F21B0E0201576F0001CEDE280E99
:101690000201626F000190DEE5C056F21B0E0201EE
:1016A000576F0001C2DE3A0E0201626F000184DE54
:1016B000E6C056F21B0E0201576F0001B6DE3A0E6D
:1016C0000201626F000178DEE7C056F21B0E0201D4
:1016D000576F0001AADE5F0EF66E100EF76E040E55
:1016E0000201566F0001DFDEE8C056F21B0E020158
:1016F000576F00019ADE200E0201626F00015CDE6E
:101700004E0E0201626F000157DE3A0E0201626F57
:10171000000152DEE9C056F21B0E0201576F0001B4
:1017200084DE200E0201626F000146DE560E0201C9
:10173000626F000141DE3A0E0201626F00013CDE81
:10174000410EE96EEDC059F2ECC058F2EBC057F211
:10175000EAC056F2FCDE04D0EA6A9E0EE96E58D763
:10176000000C02013D6B3F6B9C0E3E6F0001FBDDE8
:10177000E86BED6BEC6B9DC0EBF09CC0EAF0E92BE5
:101780005ADF620E0101136F170E146FD6EF13F0BC
:10179000010E02013D6F3F6B9C0E3E6F0001E3DDC9
:1017A000010EE86FED6BEC6B9DC0EBF09CC0EAF0B6
:1017B000E92B41DF900E0101226F170E236FD6EF48
:1017C00013F0020E02013D6F3F6B9C0E3E6F000155
:1017D000CADD020EE86FED6BEC6B9DC0EBF09CC0B8
:1017E000EAF0E92B28DFC20E0101316F170E326FCC
:1017F000D6EF13F002015651050A000107E0030A73
:101800000AE0050A0DE0070A10E014D0000E99B3B3
:10181000010E016E12D0000E99B1010E016E0DD0B5
:10182000000E99B7010E016E08D0000E99B9010E95
:10183000016E03D0000E016E00D0000C030E0201F9
:10184000566F0001D7DF015201E112D0030E0201F1
:101850003D6F3F6B9C0E3E6F000185DD030EE86F10
:10186000ED6BEC6B9DC0EBF09CC0EAF0E92BE3DE86
:101870003C0E0101406F180E416FD6EF13F0040EBD
:101880000201566F0001B6DF015201E112D0040ED1
:1018900002013D6F3F6B9C0E3E6F000164DD040E44
:1018A000E86FED6BEC6B9DC0EBF09CC0EAF0E92BB0
:1018B000C2DE7E0E01014F6F180E506FD6EF13F08F
:1018C000985302E1000E01D0010E016EDAEF0CF028
:1018D000FF8FF08F01010E8F1D8F2C8F4A8F3B8F52
:1018E0000001DDEF0CF0010E986FC00EF212A08225
:1018F000976B966B956B946B97C093F096C092F034
:1019000095C091F094C090F0B36AB26AB1800201C0
:10191000562D02D09D8401D0A0800001FCEF0CF078
:101920008E51020802E0000E01D0010E016EFDEFA3
:101930000CF09051945D006E91519559016E925149
:101940009659026E93519759036E01EF0DF09D94D5
:10195000A090A0928C51080BD8B48292BA6A8CC025
:10196000BAFF8D51080BD8B48292BA6A8DC0BAFF03
:10197000FF0E8E6FB1908F6B986B0AEF0DF0FF9F8B
:10198000F09F01010E9F1D9F2C9F4A9F3B9F0001CE
:1019900013EF0DF0060E0201566F00012BDF01520E
:1019A00008E1050E0201566F000124DF015201E13A
:1019B0003AD086D7015220E18BD79A2D0CD0060E53
:1019C0000201566F000116DF015202E0020E01D043
:1019D000010E9A6F0ED09A5102080BE1050E02011A
:1019E000566F000107DF015202E0010E01D0020E26
:1019F0009A6F9AC056F277D793D7015201E113D06C
:101A000098D703C0EDF002C0ECF001C0EBF000C0CD
:101A1000EAF09DD79A2D02D0050E01D0060EE86F90
:101A2000E92B09DEACD7940E01015E6F190E5F6FD2
:101A3000D6EF13F08F2BA19242EF00F08E51FF08EA
:101A400008E19484BD6A040EBD6EB76AB66A8E6BF7
:101A500044D08E531CE1016A8FC071F202016F6B9A
:101A6000706BBE506F250001946FBF500201702152
:101A70000001956F000E020171210001966F000EAA
:101A8000020101200001976F010E8E6F26D08E2D6E
:101A900024D09D9497C093F096C092F095C091F099
:101AA00094C090F0016A8FC071F202016F6B706B8D
:101AB000BE506F250001946FBF50020170210001DC
:101AC000956F000E020171210001966F000E020158
:101AD00001200001976F020E8E6F9E9442EF00F07E
:101AE0008E51FF0808E19484BD6A040EBD6EB76A8A
:101AF000B66A8E6B44D08E531CE1016A8FC071F2BE
:101B000002016F6B706BBB506F250001946FBC506E
:101B1000020170210001956F000E02017121000188
:101B2000966F000E020101200001976F010E8E6F6B
:101B300026D08E2D24D0A09097C093F096C092F01E
:101B400095C091F094C090F0016A8FC071F20201CB
:101B50006F6B706BBB506F250001946FBC5002011E
:101B600070210001956F000E020171210001966F36
:101B7000000E020101200001976F020E8E6FA190EE
:101B800042EF00F00A0D6D6F646F20636F6E66693F
:101B90006775726163696F6E0A0D00000A0D464534
:101BA0004348413A202563000A0D25752F25752FDE
:101BB00025752825753A25753A25752920533A2526
:101BC00075204E3A257520563A254C7500000A0DB1
:101BD0004441544F3A20256300000A0D43414E41D1
:101BE0004C3A202575000A0D446573636F6E65637A
:101BF0007461722E2E2E00006D6A696A080E6F6E77
:101C0000945030090101946E2B6A196AF2BE198E44
:101C1000F29E0001D4EC01F019BEF28E000CECDF54
:101C200056EF0EF0196AF2BE198EF29ED4EC01F056
:101C300019BEF28E6D6A140E6F6E696A6D86010EA2
:101C40002B6E29EF0EF0958683A604D06DB601D0D9
:101C5000E9D703D06DA601D0CFDF2B2C0BD06DBA06
:101C600009D0686A696AA08AC00EF212110E696E04
:101C7000020E2B6E41EF0EF02450016E45EF0EF078
:101C8000E2D7958683A60AD0F7D7015204E0010E69
:101C9000016E06D003D0000E016E02D0FF0E016E61
:101CA00057EF0EF0A9DFC3EC01F0B9D7E9D7015027
:101CB000A1EF0FF0926A896A2F0E926EC150C00B8D
:101CC0000A09C16EC090C082C094C08EC280000E4E
:101CD000016EA4EF0FF08BC0B1FFB190B36AB26A8E
:101CE0008C51080BD8B48294BD6A8CC0BDFFB76A12
:101CF000B66A8D51080BD8B48292BA6A8DC0BAFF09
:101D000094849482000E016EA7EF0FF0BFC1C0F162
:101D10000101C16BC051090805E20A0EC05F100E37
:101D2000C12703D0C051C12701D0F4D7C1C101F0F0
:101D30000001000C0101B96B9380040E006E002EAF
:101D4000FED79382040E006E002EFED78A909390E9
:101D5000040E006E002EFED78A929392D00ED56F9D
:101D600000014EEC08F00101D56B00014EEC08F0CB
:101D70009380040E006E002EFED79382040E006E38
:101D8000002EFED781A2FED78A909390040E006E9B
:101D9000002EFED78A929392D10E0101D56F0001D9
:101DA0004EEC08F0006A89EC08F001C0BAF101C0FD
:101DB000D6F1BEEC08F001C0B9F193900000938217
:101DC00081A2FED7040E006E002EFED700D00000C8
:101DD0009380040E006E002EFED70101B99F030E02
:101DE000006E002EFED700D09380040E006E002EF1
:101DF000FED79382040E006E002EFED78A90939039
:101E0000040E006E002EFED78A929392D00ED56FEC
:101E100000014EEC08F00101D56B00014EEC08F01A
:101E2000B9C1BFF173DF01C0BAF101C0D5F14EEC09
:101E300008F09380040E006E002EFED79382040EED
:101E4000006E002EFED781A2FED78A909390040EDA
:101E5000006E002EFED78A929392D00E0101D56FAC
:101E600000014EEC08F0070E0101D56F00014EECA9
:101E700008F0B8C1D5F14EEC08F0939000009382C1
:101E800081A2FED7040E006E002EFED700D0000007
:101E90009380040E006E002EFED7AEEF0FF09380FD
:101EA000040E006E002EFED79382040E006E002EEC
:101EB000FED78A909390040E006E002EFED78A9271
:101EC0009392D00E0101D56F00014EEC08F0B8C11D
:101ED000D5F14EEC08F09380040E006E002EFED774
:101EE0009382040E006E002EFED781A2FED78A9048
:101EF0009390040E006E002EFED78A929392D10E1C
:101F00000101D56F00014EEC08F0006A89EC08F081
:101F100001C0B9F193900000938281A2FED7040E14
:101F2000006E002EFED700D000009380040E006EDD
:101F3000002EFED70101B9C101F00001B3EF0FF08F
:101F4000B1D601C09BF0B6D601C09BF0C4D601C08B
:101F50009BF0900E0101B86F0001ECD6080E010154
:101F6000B86F00019CD701C099F0E46BE4C0E3F0C6
:101F7000E3C0E2F0E76BE7C0E6F0E6C0E5F0E96B4E
:101F8000E9C0E8F0ED6BEC6BEB6BE8C0EAF0CAEF90
:101F90000FF0D6D79698D190C69A949E938093923C
:101FA000010EC66E000EC76E880ED56ECD6A000E8D
:101FB000CA6E000ECB6E070EB46E9250926E0D0E6E
:101FC000006E002EFED7B450A19CB56A000E966E2E
:101FD000936E830E946E4E0E956E8D9296928D80BA
:101FE00096908D849694F6EF12F00900F5520DE06C
:101FF000F6CFB8F1F7CFB9F1F5CF62F2DCEC09F02A
:10200000B8C1F6FFB9C1F7FFF0D7000C958283B2D3
:10201000FED7080E006E0101B86B008E0ED0009E38
:102020000CD0D89083B2D880B833008C06D0009CF6
:10203000002EF7D7B8C101F00CD0840E00BE240EDC
:10204000016E012EFED700D000BEE9D700BCEFD74D
:10205000E8D70001000C0101BE9F3F0EBC17938022
:10206000040E006E002EFED79382040E006E002E2A
:10207000FED78A909390040E006E002EFED78A92AF
:102080009392D00ED56F00014EEC08F00101D56B94
:1020900000014EEC08F0BEC1BFF138DE01C0BFF157
:1020A00001C0D5F14EEC08F0BDC1BFF12FDE01C07B
:1020B000BFF101C0D5F14EEC08F0BCC1BFF126DE86
:1020C00001C0BFF101C0D5F14EEC08F0BBC1BFF1BA
:1020D0001DDE01C0BFF101C0D5F14EEC08F0B8C162
:1020E000BFF114DE01C0BFF101C0D5F14EEC08F024
:1020F000B9C1BFF10BDE01C0BFF101C0D5F14EEC9B
:1021000008F0BAC1BFF102DE01C0BFF101C0D5F1D4
:102110004EEC08F093900000938281A2FED7040E4B
:10212000006E002EFED700D000009380040E006EDB
:10213000002EFED71AEF11F09380040E006E002ED1
:10214000FED79382040E006E002EFED78A909390E5
:10215000040E006E002EFED78A929392D00E0101DB
:10216000D56F00014EEC08F0B8C1D5F14EEC08F087
:10217000B9C1D5F14EEC08F093900000938281A292
:10218000FED7040E006E002EFED700D00000938014
:10219000040E006E002EFED7E4EF11F0840EF66EF2
:1021A0001B0EF76E22DF32DF01C0E8F0E853FBE0E0
:1021B000E851310A07E0030AD8B4E1D0010AD8B4E3
:1021C000F3D015D1060E0201626F0001DCEC09F0BC
:1021D0009C0EF66E1B0EF76E090E0201566F000183
:1021E00053EC0AF0E8C062F2DCEC09F00FDF01C04A
:1021F000E2F00CDF01C0E3F009DF01C0E4F006DF2C
:1022000001C0E9F003DF01C0E5F000DF01C0E6F046
:10221000FDDE01C0E7F0E2C0B8F1E3C0B9F1E4C00F
:10222000BAF1E9C0BBF1E5C0BCF1E6C0BDF1E7C061
:10223000BEF111D70A0E0201626F0001DCEC09F059
:102240000D0E0201626F0001DCEC09F0E2C056F2F3
:102250001B0E0201576F000115EC0AF02F0E020150
:10226000626F0001DCEC09F0E3C056F21B0E0201C4
:10227000576F000115EC0AF02F0E0201626F00018A
:10228000DCEC09F0E4C056F21B0E0201576F0001AE
:1022900015EC0AF0280E0201626F0001DCEC09F077
:1022A000E5C056F21B0E0201576F000115EC0AF053
:1022B0003A0E0201626F0001DCEC09F0E6C056F252
:1022C0001B0E0201576F000115EC0AF03A0E0201D5
:1022D000626F0001DCEC09F0E7C056F21B0E020150
:1022E000576F000115EC0AF0BB0EF66E1B0EF76E71
:1022F000040E0201566F000153EC0AF0E8C056F2DA
:102300001B0E0201576F000115EC0AF0200E0201AE
:10231000626F0001DCEC09F04E0E0201626F0001F9
:10232000DCEC09F03A0E0201626F0001DCEC09F00E
:10233000E9C056F21B0E0201576F000115EC0AF0BE
:10234000200E0201626F0001DCEC09F0560E020162
:10235000626F0001DCEC09F03A0E0201626F0001CD
:10236000DCEC09F0410EE96EEDC059F2ECC058F218
:10237000EBC057F2EAC056F2A7EC0AF03ED0060EC8
:102380000201626F0001DCEC09F0CE0EF66E1B0E4E
:10239000F76E080E0201566F000153EC0AF0E8C018
:1023A00062F2DCEC09F029D0060E0201626F000136
:1023B000DCEC09F02BDE01C0E9F0080E0101B86F7A
:1023C000E9C0B9F10001B8D6DA0EF66E1B0EF76E51
:1023D000090E0201566F000153EC0AF0E9C056F2F3
:1023E0001B0E0201576F000115EC0AF006D0150E06
:1023F0000201626F0001DCEC09F0E851390806E1E6
:10240000E60EF66E1B0EF76EF0DD01D0CCD6FAEFBD
:1024100012F0F86AD09E078EEA6AE96A2B6A2F6A80
:10242000826B896B8A6BFD0E8B6F050E8C6F8D6FC7
:10243000FF0E8E6F8F6B936B926B916B906B976BA4
:10244000966B956B946B986B95908C808693996B3B
:10245000010E9A6F9B6B9D6B9C6B0101686BC15069
:10246000C00B0F09C16E070EB46E030E1B6E1C6A03
:102470001D6A1E6A276A040E286E0C0E296E0A0E4B
:1024800000019E6F0D0E9F6F6E0EA06F6F0EA16FFD
:10249000200EA26F730EA36F650EA46F200EA56FA2
:1024A000700EA66F750EA76F650EA86F640EA96FEC
:1024B000650EAA6F200EAB6F670EAC6F750EAD6F19
:1024C000610EAE6F720EAF6F640EB06F610EB16FC2
:1024D000720EB26FB36B700EB46F720EB56F750E75
:1024E000B66F650EB76F620EB86F610EB96FBA6BDB
:1024F0004C0E0101696F750E6A6F6E0E6B6F650E83
:102500006C6F730E6D6F6E6B6F6B706B716B726B4C
:10251000736B4D0E746F610E756F720E766F740E65
:10252000776F650E786F730E796F7A6B7B6B7C6B50
:102530007D6B7E6B4D0E7F6F690E806FE90E816F34
:10254000720E826F630E836F6F0E846F6C0E856FD9
:10255000650E866F730E876F886B896B4A0E8A6F64
:10256000750E8B6F650E8C6F760E8D6F650E8E6F90
:10257000730E8F6F906B916B926B936B946B560E87
:10258000956F690E966F650E976F720E986F6E0E4F
:10259000996F650E9A6F730E9B6F9C6B9D6B9E6B14
:1025A0009F6B530EA06FE10EA16F620EA26F610EC2
:1025B000A36F640EA46F6F0EA56FA66BA76BA86BBD
:1025C000A96BAA6B440EAB6F6F0EAC6F6D0EAD6F47
:1025D000690EAE6F6E0EAF6F670EB06F6F0EB16F9C
:1025E000B26BB36BB66BB76B0001D3D4958483A485
:1025F00002D0D4D539D1F06BF26B0A0EF16FF46BC7
:10260000F36BFA6BF96BF86BF76BFF0EFC6FFB6FFC
:10261000FE6BFD6B720EF56F100EF66FFF6B010116
:10262000016B0A0E006F036B026B096B086B076B83
:10263000066BFF0E0B6F0A6F0D6B0C6BA60E046F13
:10264000110E056F0E6B106B040E0F6F126B116B7A
:10265000186B176B166B156BFF0E1A6F196F1C6BCF
:102660001B6B620E136F170E146F1D6B1F6B040E26
:102670001E6F216B206B276B266B256B246BFF0E67
:10268000296F286F2B6B2A6B900E226F170E236F0A
:102690002C6B2E6B040E2D6F306B2F6B366B356BE6
:1026A000346B336BFF0E386F376F3A6B396BC20E7A
:1026B000316F170E326F3B6B3D6B040E3C6F3F6BFF
:1026C0003E6B456B446B436B426BFF0E476F466F2F
:1026D000496B486B3C0E406F180E416F4A6B4C6B58
:1026E000040E4B6F4E6B4D6B546B536B526B516BB7
:1026F000FF0E566F556F586B576B7E0E4F6F180E4F
:10270000506F596B5B6B060E5A6F5D6B5C6B636B46
:10271000626B616B606BFF0E656F646F676B666BFE
:10272000940E5E6F190E5F6F1A6A810ED56E0B0ED6
:10273000D76EDC0ED66EF294810ED56E0B0ED76E70
:10274000DC0ED66EF2941C6A080E1B6ED8901A34FA
:10275000006E00012FEC01F0026E010E00242FEC40
:1027600001F0036E03C0EAFF02C0E9FFEFCF02F001
:10277000E92AEFCF00F0ECCF01F0EC2AEFCF03F025
:1027800002E1EC2AED52EC50015C5CE10050035C8C
:1027900059E1ED52ED52EE6AEE6A02BE53D0EC52B0
:1027A000ECCFFAFFED52EFCFE8FFF96E0001D890C1
:1027B0001A34006E2FEC01F0026E010E00242FEC93
:1027C00001F0036E03C0EAFF02C0E9FFF2A401D0EA
:1027D000EF88070EE926000EEA22D650D7CF03F085
:1027E000240F016E0B0E0358026E0150EF260250AB
:1027F000EC20EF6E000EEC20EF6E000EEC20EF6E82
:10280000ED52ED52ED52EC50EC50EC50EC500250C9
:10281000EC5C0AE304E1ED520150EE5C05E3ED529D
:102820000150EF6E0250EC6EEE52EC50025C0AE387
:1028300004E1ED520150EE5C05E2ED520150EF6E05
:102840000250EC6E1A2A080E1A5CD8B402D00101AC
:102850007DD71A6AD650D7CF03F0F2A402D0010177
:0A2860006DD7F8D7FF0E1A6E0300C3
:020000040030CA
:0E0000003CCE3E1E008581000FC00FE00F4079
:00000001FF
;PIC18F4550
;CRC=9E45  CREATED="06-Feb-14 11:42"
