:1000000085EF01F065736372697475726120256410
:100010002D2061643A2025782064743A2025780ADE
:100020000D006C6563747572612025642D20616418
:100030003A2025782064743A2025780A0D003D3D49
:100040003D2054657374204C656374757261203D66
:100050003D3D0A0D00000900F5520DE0F6CF19F004
:10006000F7CF1AF0F5509EA8FED7AD6E19C0F6FF77
:100070001AC0F7FFF0D7DEEF01F02150080804E0C6
:10008000226E2036222EFDD79588959A959C8C9CC1
:10009000959E8C9E21C022F020AE8C9A20BE8C8A28
:1000A00020368C8C100E236E232EFED7013683A8AB
:1000B000019083B801808C9C0F0E236E232EFED7F7
:1000C000222EEAD78C8E000CEA6A1E0EE96EEF50E3
:1000D00011E0010E016EBF0E006E0400002EFDD770
:1000E000012EF9D74A0E006E002EFED70000040044
:1000F000EF2EEFD7000C1B503F0B006ED890003452
:100100001B6E1BC020F0080E216EB7DF640E1E6E42
:10011000DBDF1DC003F01CC0E9FF1DC0EAFF206A41
:10012000080E216EAADF015001C0EFFF000E016E24
:1001300054EF01F00900F6CF1CF0F7CF1DF0F55099
:100140009EA8FED7AD6E1CC0F6FF1DC0F7FF1B2E8C
:10015000F1D7000C2250016A215C03E221C000F0BB
:100160000CD0006A080E236E213600362250005C47
:10017000D8B0006E0136232EF7D7000C200E1CA835
:10018000300E1D6E1BC000F01BAE07D0001E002AF3
:1001900000C01BF02D0E1D6E1C8E01501BC021F0E7
:1001A000640E226ED7DF00C01BF0300E01241E6EDD
:1001B0001BC021F00A0E226ECDDF300E0024206E0F
:1001C000300E01241F6E1DC000F01CA602D01CAE14
:1001D0001C941CB80BD01CAE22D01CB420D000C084
:1001E0001EF01CB21CD000C01FF019D0300E1E5CD7
:1001F00016E100C01EF0200E1D6E1CA604D01C943B
:100200001C821CAE1C92300E1F5C09E100C01FF066
:10021000200E1E6E1CA6F7D71C921CAE1C901CA4B0
:1002200004D01D509EA8FED7AD6E1CA204D01E5057
:100230009EA8FED7AD6E1CA004D01F509EA8FED76E
:10024000AD6E20509EA8FED7AD6E60EF01F01CBED3
:1002500010D00F0E006E1B3800160A0E005C03E271
:10026000300E002602D01C50002600509EA8FED75B
:10027000AD6E0F0E1B160A0E1B5C02E2300E02D092
:100280001C9E1C501B261B509EA8FED7AD6E000C5A
:10029000010E1A6E196A19501F0835E319C01BF0B8
:1002A0001D6A1A0E1C6E27D7220EF66E000EF76E10
:1002B000080E1B6E3FDF19C01BF01F0E1C6E5ED7B1
:1002C0002C0EF66E000EF76E060E1B6E33DF19C095
:1002D0001BF0570E1C6EBBDF340EF66E000EF76E71
:1002E000050E1B6E27DF1AC01BF0570E1C6EAFDF0A
:1002F0000A0E9EA8FED7AD6E0D0E9EA8FED7AD6E5F
:100300001A6A192AC8D7DFEF01F0F86AD09EEA6AA4
:10031000E96A9588959A959C8C9C959E8C9EB8963A
:10032000190EAF6EA60EAC6E900EAB6EC150C00B28
:100330000F09C16E070EB46E046A056A0A6A0B6A79
:10034000010E106E020E116E030E126E800E136EF1
:10035000146E156E166E176E186EC150C00B0C0918
:10036000C16EC090C092C094C08EC2809698C69A4A
:10037000949E93809392010EC66E000EC76ED1803C
:10038000800ED56ECD6A000ECA6E000ECB6EB16ABD
:100390009484BD6AB76AB66A070EB46E9250926EC4
:1003A0000400020E006E002EFED700D0B450A19CB7
:1003B000B56A3E0EF66E000EF76E4DD669D7280E62
:1003C000196EFA0E1E6E80DE192EFBD7F2D70300CF
:020000040030CA
:0E00000020CE3E1E008581000FC00FE00F4095
:00000001FF
;PIC18F4550
;CRC=1476  CREATED="16-Abr-13 18:18"
