:1000000000308A008C2800008A06571DA030641D2D
:10001000A0127810643A3A10253C00008A06521D5E
:10002000A030641DA0127810643A3A10253C0000FC
:10003000831603178C170C140000000003184828BF
:1000400083120C087F390313C80003170D0803132C
:10005000C90003170F080313CA0048080C1E2E28F6
:100060009900490803178D0003134A0803178F00EE
:1000700083168C170C140000000083120313C70BA7
:100080004228452883160317482868288316031733
:1000900083120C0D0E0D7F390313C80003170D08D2
:1000A0000313C90003170F080313CA0048080C1EE6
:1000B00057289900490803178D0003134A080317AE
:1000C0008F008D0A03198F0A03100313C70B18281A
:1000D0000800C81B7C280F30F700470EF7050A30D0
:1000E0007702031876283030F70778284808F70792
:1000F00077080C1E792899000F30C7050A3047028F
:100100000318842830308628C8134808C7074708D2
:100110000C1E882899000800840183131F30830572
:10012000193083169900A6309800903083129800F9
:1001300083161F149F141F159F1107309C00FF305A
:100140008312C000C101C201C301C401C5018316ED
:100150001F109F101F159F111F1383121F139F1332
:1001600083169F1783121F14831609128312941289
:10017000C012400883168700831240164008831679
:10018000870085168312C015400883168700343017
:10019000831294000030831694000108C739083890
:1001A0008100831290010030F80092000030831625
:1001B000920083124015400883168700831297012E
:1001C000073083169C00050885000330F700F70B05
:1001D000E7281C0883120D1383169D01193099001E
:1001E000A63098008312C50145081F3C031C002956
:1001F000203045078400831345088000C50AF42891
:100200008316141C6B2983121308C3000310430CBC
:100210003F39C100C31F37298316141C0D298312CF
:100220001308C20020304107840083134208800075
:10023000043003178D0000308F00031009300313C2
:10024000C70018204108C7005730C800692009308E
:1002500003178D0000308F00031405300313C7000F
:1002600018204208C7005730C80069206C29203088
:100270004107840083130008C600460893008316D4
:10028000140C031C4029203083124107840083137F
:100290000008C6000E3003178D0000308F000310D9
:1002A00009300313C70018204108C7005730C800A1
:1002B0006920133003178D0000308F0003140530C0
:1002C0000313C70018204608C7005730C80069202C
:0C02D0008316141C6929831200296300A6
:02400E003A3F37
:00000001FF
;PIC16F877A
;CRC=3B72  CREATED="17-Abr-13 10:16"
